:100000000C9446000C9463000C9463000C94630001
:100010000C9463000C9463000C9463000C94032A0A
:100020000C9463000C9463000C9463000C948B2F6D
:100030000C94EA2F0C9463000C9463000C94EA195E
:100040000C9463000C9463000C9412340C946300C1
:100050000C9463000C9463000C9463000C94630094
:100060000C9463000C9463000C9463000C94630084
:100070000C9463000C9463000C9463000C94630074
:100080000C9463000C9463000C94630011241FBE55
:10009000CFEFD0E1DEBFCDBF11E0A0E0B1E0E0E600
:1000A000F4E700E00BBF02C007900D92AA31B10740
:1000B000D9F717E0AAE1B1E001C01D92AE38B1074F
:1000C000E1F70C9461350C940000CF93DF93CDB72A
:1000D000DEB700000000DF91CF910895CF93DF934A
:1000E000CDB7DEB7789488950E946500DF91CF91F7
:1000F0000895CF93DF93CDB7DEB77894DF91CF919A
:100100000895CF93DF93CDB7DEB7F894DF91CF9109
:100110000895CF93DF93CDB7DEB721970FB6F8944C
:10012000DEBF0FBECDBF80915F008983F8948981C7
:10013000992721960FB6F894DEBF0FBECDBFDF9191
:10014000CF910895CF93DF93CDB7DEB721970FB648
:10015000F894DEBF0FBECDBF8983898180935F0095
:1001600021960FB6F894DEBF0FBECDBFDF91CF91C1
:100170000895CF93DF93CDB7DEB700000000DF9185
:10018000CF910895CF93DF93CDB7DEB722970FB607
:10019000F894DEBF0FBECDBF9A83898389819A818F
:1001A0001816190674F4000000000000000000009A
:1001B00000000000000089819A8101979A83898359
:1001C000EDCF22960FB6F894DEBF0FBECDBFDF9104
:1001D000CF910895CF93DF93CDB7DEB780913B00E9
:1001E000846080933B00DF91CF910895CF93DF939C
:1001F000CDB7DEB780913B008B7F80933B00DF91D2
:10020000CF910895CF93DF93CDB7DEB780913900BA
:100210009927969587959695879581709070DF912F
:10022000CF910895CF93DF93CDB7DEB780913A0099
:10023000846080933A00DF91CF910895CF93DF934C
:10024000CDB7DEB780913A008B7F80933A00DF9183
:10025000CF910895CF93DF93CDB7DEB780913B0068
:10026000826080933B00DF91CF910895CF93DF931D
:10027000CDB7DEB780913B008D7F80933B00DF914F
:10028000CF910895CF93DF93CDB7DEB7809139003A
:1002900099279695879581709070DF91CF910895F9
:1002A000CF93DF93CDB7DEB780913A008260809321
:1002B0003A00DF91CF910895CF93DF93CDB7DEB7AA
:1002C00080913A008D7F80933A00DF91CF9108951D
:1002D000CF93DF93CDB7DEB780913B0081608093F1
:1002E0003B00DF91CF910895CF93DF93CDB7DEB779
:1002F00080913B008E7F80933B00DF91CF910895EA
:10030000CF93DF93CDB7DEB7809139009927817005
:100310009070DF91CF910895CF93DF93CDB7DEB783
:1003200080913A00816080933A00DF91CF910895E7
:10033000CF93DF93CDB7DEB780913A008E7F809365
:100340003A00DF91CF910895CF93DF93CDB7DEB719
:1003500080913B00806180933B00DF91CF910895B5
:10036000CF93DF93CDB7DEB780913B008F7E809334
:100370003B00DF91CF910895CF93DF93CDB7DEB7E8
:10038000809139009927929582958F7089279F7067
:10039000892781709070DF91CF910895CF93DF937B
:1003A000CDB7DEB780913A00806180933A00DF914B
:1003B000CF910895CF93DF93CDB7DEB780913A0008
:1003C0008F7E80933A00DF91CF910895CF93DF9392
:1003D000CDB7DEB780913B00806280933B00DF9118
:1003E000CF910895CF93DF93CDB7DEB780913B00D7
:1003F0008F7D80933B00DF91CF910895CF93DF9362
:10040000CDB7DEB78091390099279695879592955B
:1004100082958F7089279F70892781709070DF91F6
:10042000CF910895CF93DF93CDB7DEB780913A0097
:10043000806280933A00DF91CF910895CF93DF934C
:10044000CDB7DEB780913A008F7D80933A00DF917F
:10045000CF910895CF93DF93CDB7DEB780913B0066
:10046000806880933B00DF91CF910895CF93DF9315
:10047000CDB7DEB78FE790913B00892380933B0097
:10048000DF91CF910895CF93DF93CDB7DEB7229759
:100490000FB6F894DEBF0FBECDBF1A8219828091CD
:1004A0003900882324F481E090E09A83898389814C
:1004B0009A8122960FB6F894DEBF0FBECDBFDF91B2
:1004C000CF910895CF93DF93CDB7DEB780913A00F7
:1004D000806880933A00DF91CF910895CF93DF93A6
:1004E000CDB7DEB78FE790913A00892380933A0029
:1004F000DF91CF910895CF93DF93CDB7DEB72197EA
:100500000FB6F894DEBF0FBECDBF898380915A002D
:10051000806280935A008981882331F080915A004B
:10052000806180935A0005C080915A008F7E80932D
:100530005A0021960FB6F894DEBF0FBECDBFDF91F3
:10054000CF910895CF93DF93CDB7DEB780913B0075
:10055000806480933B00DF91CF910895CF93DF9328
:10056000CDB7DEB780913B008F7B80933B00DF915E
:10057000CF910895CF93DF93CDB7DEB78091390047
:1005800099270024880F991F001C880F991F001CB1
:10059000892F902D81709070DF91CF910895CF9326
:1005A000DF93CDB7DEB780913A00806480933A0044
:1005B000DF91CF910895CF93DF93CDB7DEB78091D0
:1005C0003A008F7B80933A00DF91CF910895CF93CB
:1005D000DF93CDB7DEB780913B00806280933B0014
:1005E000DF91CF910895CF93DF93CDB7DEB78091A0
:1005F0003B008F7D80933B00DF91CF910895CF9397
:10060000DF93CDB7DEB7809139009927969587950E
:10061000929582958F7089279F708927817090703D
:10062000DF91CF910895CF93DF93CDB7DEB780915F
:100630003A00806280933A00DF91CF910895CF9382
:10064000DF93CDB7DEB780913A008F7D80933A007B
:10065000DF91CF910895CF93DF93CDB7DEB780912F
:100660002300806480932300DF91CF910895CF937E
:10067000DF93CDB7DEB7809123008F7B809323007B
:10068000DF91CF910895CF93DF93CDB7DEB78091FF
:10069000210099270024880F991F001C880F991F9B
:1006A000001C892F902D81709070DF91CF9108955B
:1006B000CF93DF93CDB7DEB7809122008064809323
:1006C0002200DF91CF910895CF93DF93CDB7DEB7AE
:1006D000809122008F7B80932200DF91CF9108953B
:1006E000CF93DF93CDB7DEB78091230080648093F2
:1006F0002300DF91CF910895CF93DF93CDB7DEB77D
:10070000809123008F7B80932300DF91CF91089508
:10071000CF93DF93CDB7DEB78091210099270024D6
:10072000880F991F001C880F991F001C892F902D7E
:1007300081709070DF91CF910895CF93DF93CDB703
:10074000DEB780912200806480932200DF91CF91F8
:100750000895CF93DF93CDB7DEB7809122008F7BD2
:1007600080932200DF91CF910895CF93DF93CDB78F
:10077000DEB780913200806480933200DF91CF91A8
:100780000895CF93DF93CDB7DEB7809132008F7B92
:1007900080933200DF91CF910895CF93DF93CDB74F
:1007A000DEB78091300099270024880F991F001C24
:1007B000880F991F001C892F902D81709070DF91F8
:1007C000CF910895CF93DF93CDB7DEB780913100FD
:1007D000806480933100DF91CF910895CF93DF93B0
:1007E000CDB7DEB7809131008F7B80933100DF91F0
:1007F000CF910895CF93DF93CDB7DEB780913200CC
:10080000806180933200DF91CF910895CF93DF9381
:10081000CDB7DEB7809132008F7E80933200DF91BA
:10082000CF910895CF93DF93CDB7DEB7809130009D
:100830009927929582958F7089279F70892781705B
:100840009070DF91CF910895CF93DF93CDB7DEB74E
:1008500080913100806180933100DF91CF910895C4
:10086000CF93DF93CDB7DEB7809131008F7E809339
:100870003100DF91CF910895CF93DF93CDB7DEB7ED
:1008800080913800816080933800DF91CF91089586
:10089000CF93DF93CDB7DEB7809138008E7F809302
:1008A0003800DF91CF910895CF93DF93CDB7DEB7B6
:1008B00080913600992781709070DF91CF910895D3
:1008C000CF93DF93CDB7DEB78091370081608093FF
:1008D0003700DF91CF910895CF93DF93CDB7DEB787
:1008E000809137008E7F80933700DF91CF910895FC
:1008F000CF93DF93CDB7DEB78091380080688093C7
:100900003800DF91CF910895CF93DF93CDB7DEB755
:100910008FE790913800892380933800DF91CF9141
:100920000895CF93DF93CDB7DEB722970FB6F89433
:10093000DEBF0FBECDBF1A82198280913600882398
:1009400024F481E090E09A83898389819A812296B8
:100950000FB6F894DEBF0FBECDBFDF91CF910895E3
:10096000CF93DF93CDB7DEB7809137008068809357
:100970003700DF91CF910895CF93DF93CDB7DEB7E6
:100980008FE790913700892380933700DF91CF91D3
:100990000895CF93DF93CDB7DEB7809132008064A6
:1009A00080933200DF91CF910895CF93DF93CDB73D
:1009B000DEB7809132008F7B80933200DF91CF9140
:1009C0000895CF93DF93CDB7DEB78091300099279C
:1009D0000024880F991F001C880F991F001C892F65
:1009E000902D81709070DF91CF910895CF93DF9318
:1009F000CDB7DEB780913100806480933100DF9104
:100A0000CF910895CF93DF93CDB7DEB780913100BA
:100A10008F7B80933100DF91CF910895CF93DF9347
:100A2000CDB7DEB780913B00886080933B00DF91BB
:100A3000CF910895CF93DF93CDB7DEB780913B0080
:100A4000877F80933B00DF91CF910895CF93DF9311
:100A5000CDB7DEB780913900992796958795969501
:100A600087959695879581709070DF91CF910895C5
:100A7000CF93DF93CDB7DEB780913A008860809343
:100A80003A00DF91CF910895CF93DF93CDB7DEB7D2
:100A900080913A00877F80933A00DF91CF9108954B
:100AA000CF93DF93CDB7DEB7809132008062809321
:100AB0003200DF91CF910895CF93DF93CDB7DEB7AA
:100AC000809132008F7D80933200DF91CF91089525
:100AD000CF93DF93CDB7DEB78091300099279695FD
:100AE0008795929582958F7089279F70892781704D
:100AF0009070DF91CF910895CF93DF93CDB7DEB79C
:100B000080913100806280933100DF91CF91089510
:100B1000CF93DF93CDB7DEB7809131008F7D809387
:100B20003100DF91CF910895CF93DF93CDB7DEB73A
:100B300080913200886080933200DF91CF910895D8
:100B4000CF93DF93CDB7DEB780913200877F80935C
:100B50003200DF91CF910895CF93DF93CDB7DEB709
:100B600080913000992796958795969587959695CB
:100B7000879581709070DF91CF910895CF93DF9327
:100B8000CDB7DEB780913100886080933100DF916E
:100B9000CF910895CF93DF93CDB7DEB78091310029
:100BA000877F80933100DF91CF910895CF93DF93BA
:100BB000CDB7DEB780913200846080933200DF9140
:100BC000CF910895CF93DF93CDB7DEB780913200F8
:100BD0008B7F80933200DF91CF910895CF93DF9385
:100BE000CDB7DEB780913000992796958795969579
:100BF000879581709070DF91CF910895CF93DF93A7
:100C0000CDB7DEB780913100846080933100DF91F1
:100C1000CF910895CF93DF93CDB7DEB780913100A8
:100C20008B7F80933100DF91CF910895CF93DF9335
:100C3000CDB7DEB780912300806180932300DF91E0
:100C4000CF910895CF93DF93CDB7DEB78091230086
:100C50008F7E80932300DF91CF910895CF93DF9310
:100C6000CDB7DEB7809121009927929582958F703C
:100C700089279F70892781709070DF91CF910895A7
:100C8000CF93DF93CDB7DEB7809122008061809350
:100C90002200DF91CF910895CF93DF93CDB7DEB7D8
:100CA000809122008F7E80932200DF91CF91089562
:100CB000CF93DF93CDB7DEB780912300806280931E
:100CC0002300DF91CF910895CF93DF93CDB7DEB7A7
:100CD000809123008F7D80932300DF91CF91089531
:100CE000CF93DF93CDB7DEB78091210099279695FA
:100CF0008795929582958F7089279F70892781703B
:100D00009070DF91CF910895CF93DF93CDB7DEB789
:100D100080912200806280932200DF91CF9108951C
:100D2000CF93DF93CDB7DEB7809122008F7D809384
:100D30002200DF91CF910895CF93DF93CDB7DEB737
:100D400080912300806480932300DF91CF910895E8
:100D5000CF93DF93CDB7DEB7809123008F7B809355
:100D60002300DF91CF910895CF93DF93CDB7DEB706
:100D70008091210099270024880F991F001C880F5B
:100D8000991F001C892F902D81709070DF91CF9159
:100D90000895CF93DF93CDB7DEB7809122008064B2
:100DA00080932200DF91CF910895CF93DF93CDB749
:100DB000DEB7809122008F7B80932200DF91CF915C
:100DC0000895CF93DF93CDB7DEB78091230080687D
:100DD00080932300DF91CF910895CF93DF93CDB718
:100DE000DEB78FE790912300892380932300DF9162
:100DF000CF910895CF93DF93CDB7DEB722970FB68B
:100E0000F894DEBF0FBECDBF1A82198280912100F7
:100E1000882324F481E090E09A83898389819A81F0
:100E200022960FB6F894DEBF0FBECDBFDF91CF91F3
:100E30000895CF93DF93CDB7DEB78091220080680D
:100E400080932200DF91CF910895CF93DF93CDB7A8
:100E5000DEB78FE790912200892380932200DF91F3
:100E6000CF910895CF93DF93CDB7DEB7809138004F
:100E7000846080933800DF91CF910895CF93DF9302
:100E8000CDB7DEB7809138008B7F80933800DF913B
:100E9000CF910895CF93DF93CDB7DEB78091360021
:100EA0009927969587959695879581709070DF9193
:100EB000CF910895CF93DF93CDB7DEB78091370000
:100EC000846080933700DF91CF910895CF93DF93B3
:100ED000CDB7DEB7809137008B7F80933700DF91ED
:100EE000CF910895CF93DF93CDB7DEB780913800CF
:100EF000886080933800DF91CF910895CF93DF937E
:100F0000CDB7DEB780913800877F80933800DF91BE
:100F1000CF910895CF93DF93CDB7DEB780913600A0
:100F2000992796958795969587959695879581703B
:100F30009070DF91CF910895CF93DF93CDB7DEB757
:100F400080913700886080933700DF91CF910895BA
:100F5000CF93DF93CDB7DEB780913700877F809343
:100F60003700DF91CF910895CF93DF93CDB7DEB7F0
:100F700080913800826080933800DF91CF9108958E
:100F8000CF93DF93CDB7DEB7809138008D7F80930C
:100F90003800DF91CF910895CF93DF93CDB7DEB7BF
:100FA0008091360099279695879581709070DF9192
:100FB000CF910895CF93DF93CDB7DEB780913700FF
:100FC000826080933700DF91CF910895CF93DF93B4
:100FD000CDB7DEB7809137008D7F80933700DF91EA
:100FE000CF910895CF93DF93CDB7DEB780913500D1
:100FF000816080933500DF91CF910895CF93DF9387
:10100000CDB7DEB7809135008E7F80933500DF91BC
:10101000CF910895CF93DF93CDB7DEB780913300A2
:10102000992781709070DF91CF910895CF93DF93CE
:10103000CDB7DEB780913400816080933400DF91BA
:10104000CF910895CF93DF93CDB7DEB78091340071
:101050008E7F80933400DF91CF910895CF93DF93FB
:10106000CDB7DEB780913500826080933500DF9187
:10107000CF910895CF93DF93CDB7DEB78091350040
:101080008D7F80933500DF91CF910895CF93DF93CB
:10109000CDB7DEB7809133009927969587958170FB
:1010A0009070DF91CF910895CF93DF93CDB7DEB7E6
:1010B00080913400826080933400DF91CF91089555
:1010C000CF93DF93CDB7DEB7809134008D7F8093CF
:1010D0003400DF91CF910895CF93DF93CDB7DEB782
:1010E00080913500846080933500DF91CF91089521
:1010F000CF93DF93CDB7DEB7809135008B7F8093A0
:101100003500DF91CF910895CF93DF93CDB7DEB750
:10111000809133009927969587959695879581704C
:101120009070DF91CF910895CF93DF93CDB7DEB765
:1011300080913400846080933400DF91CF910895D2
:10114000CF93DF93CDB7DEB7809134008B7F809350
:101150003400DF91CF910895CF93DF93CDB7DEB701
:1011600080913500886080933500DF91CF9108959C
:10117000CF93DF93CDB7DEB780913500877F809323
:101180003500DF91CF910895CF93DF93CDB7DEB7D0
:101190008091330099279695879596958795969592
:1011A000879581709070DF91CF910895CF93DF93F1
:1011B000CDB7DEB780913400886080933400DF9132
:1011C000CF910895CF93DF93CDB7DEB780913400F0
:1011D000877F80933400DF91CF910895CF93DF9381
:1011E000CDB7DEB780913500806180933500DF9107
:1011F000CF910895CF93DF93CDB7DEB780913500BF
:101200008F7E80933500DF91CF910895CF93DF9348
:10121000CDB7DEB7809133009927929582958F7074
:1012200089279F70892781709070DF91CF910895F1
:10123000CF93DF93CDB7DEB7809134008061809388
:101240003400DF91CF910895CF93DF93CDB7DEB710
:10125000809134008F7E80933400DF91CF91089588
:10126000CF93DF93CDB7DEB7809135008062809356
:101270003500DF91CF910895CF93DF93CDB7DEB7DF
:10128000809135008F7D80933500DF91CF91089557
:10129000CF93DF93CDB7DEB7809133009927969532
:1012A0008795929582958F7089279F708927817085
:1012B0009070DF91CF910895CF93DF93CDB7DEB7D4
:1012C00080913400806280933400DF91CF91089543
:1012D000CF93DF93CDB7DEB7809134008F7D8093BD
:1012E0003400DF91CF910895CF93DF93CDB7DEB770
:1012F00080913500806480933500DF91CF9108950F
:10130000CF93DF93CDB7DEB7809135008F7B80938D
:101310003500DF91CF910895CF93DF93CDB7DEB73E
:101320008091330099270024880F991F001C880F93
:10133000991F001C892F902D81709070DF91CF91A3
:101340000895CF93DF93CDB7DEB7809134008064EA
:1013500080933400DF91CF910895CF93DF93CDB781
:10136000DEB7809134008F7B80933400DF91CF9182
:101370000895CF93DF93CDB7DEB7809135008068B5
:1013800080933500DF91CF910895CF93DF93CDB750
:10139000DEB78FE790913500892380933500DF9188
:1013A000CF910895CF93DF93CDB7DEB722970FB6D5
:1013B000F894DEBF0FBECDBF1A8219828091330030
:1013C000882324F481E090E09A83898389819A813B
:1013D00022960FB6F894DEBF0FBECDBFDF91CF913E
:1013E0000895CF93DF93CDB7DEB780913400806846
:1013F00080933400DF91CF910895CF93DF93CDB7E1
:10140000DEB78FE790913400892380933400DF9119
:10141000CF910895CF93DF93CDB7DEB7809132009F
:10142000816080933200DF91CF910895CF93DF9355
:10143000CDB7DEB7809132008E7F80933200DF918E
:10144000CF910895CF93DF93CDB7DEB78091300071
:10145000992781709070DF91CF910895CF93DF939A
:10146000CDB7DEB780913100816080933100DF918C
:10147000CF910895CF93DF93CDB7DEB78091310040
:101480008E7F80933100DF91CF910895CF93DF93CA
:10149000CDB7DEB780913200826080933200DF9159
:1014A000CF910895CF93DF93CDB7DEB7809132000F
:1014B0008D7F80933200DF91CF910895CF93DF939A
:1014C000CDB7DEB7809130009927969587958170CA
:1014D0009070DF91CF910895CF93DF93CDB7DEB7B2
:1014E00080913100826080933100DF91CF91089527
:1014F000CF93DF93CDB7DEB7809131008D7F80939E
:101500003100DF91CF910895CF93DF93CDB7DEB750
:1015100080912300816080932300DF91CF91089513
:10152000CF93DF93CDB7DEB7809123008E7F80937A
:101530002300DF91CF910895CF93DF93CDB7DEB72E
:1015400080912100992781709070DF91CF9108954B
:10155000CF93DF93CDB7DEB7809122008160809377
:101560002200DF91CF910895CF93DF93CDB7DEB7FF
:10157000809122008E7F80932200DF91CF91089589
:10158000CF93DF93CDB7DEB7809123008260809345
:101590002300DF91CF910895CF93DF93CDB7DEB7CE
:1015A000809123008D7F80932300DF91CF91089558
:1015B000CF93DF93CDB7DEB7809121009927969521
:1015C000879581709070DF91CF910895CF93DF93CD
:1015D000CDB7DEB780912200826080932200DF9138
:1015E000CF910895CF93DF93CDB7DEB780912200DE
:1015F0008D7F80932200DF91CF910895CF93DF9369
:10160000CDB7DEB780912300846080932300DF9103
:10161000CF910895CF93DF93CDB7DEB780912300AC
:101620008B7F80932300DF91CF910895CF93DF9339
:10163000CDB7DEB78091210099279695879596952D
:10164000879581709070DF91CF910895CF93DF934C
:10165000CDB7DEB780912200846080932200DF91B5
:10166000CF910895CF93DF93CDB7DEB7809122005D
:101670008B7F80932200DF91CF910895CF93DF93EA
:10168000CDB7DEB780912300886080932300DF917F
:10169000CF910895CF93DF93CDB7DEB7809123002C
:1016A000877F80932300DF91CF910895CF93DF93BD
:1016B000CDB7DEB7809121009927969587959695AD
:1016C00087959695879581709070DF91CF91089559
:1016D000CF93DF93CDB7DEB78091220088608093EF
:1016E0002200DF91CF910895CF93DF93CDB7DEB77E
:1016F00080912200877F80932200DF91CF9108950F
:10170000CF93DF93CDB7DEB78091320084608093B2
:101710003200DF91CF910895CF93DF93CDB7DEB73D
:10172000809132008B7F80933200DF91CF910895BA
:10173000CF93DF93CDB7DEB7809130009927969590
:1017400087959695879581709070DF91CF910895D8
:10175000CF93DF93CDB7DEB7809131008460809363
:101760003100DF91CF910895CF93DF93CDB7DEB7EE
:10177000809131008B7F80933100DF91CF9108956C
:10178000CF93DF93CDB7DEB780913200886080932E
:101790003200DF91CF910895CF93DF93CDB7DEB7BD
:1017A00080913200877F80933200DF91CF9108953E
:1017B000CF93DF93CDB7DEB7809130009927969510
:1017C0008795969587959695879581709070DF910E
:1017D000CF910895CF93DF93CDB7DEB780913100DD
:1017E000886080933100DF91CF910895CF93DF938C
:1017F000CDB7DEB780913100877F80933100DF91D4
:10180000CF910895CF93DF93CDB7DEB780913200AB
:10181000806280933200DF91CF910895CF93DF9360
:10182000CDB7DEB7809132008F7D80933200DF919B
:10183000CF910895CF93DF93CDB7DEB7809130007D
:10184000992796958795929582958F7089279F7095
:10185000892781709070DF91CF910895CF93DF93A6
:10186000CDB7DEB780913100806280933100DF9187
:10187000CF910895CF93DF93CDB7DEB7809131003C
:101880008F7D80933100DF91CF910895CF93DF93C7
:10189000CDB7DEB70E94E106DF91CF910895CF93D7
:1018A000DF93CDB7DEB70E94ED06DF91CF910895AB
:1018B000CF93DF93CDB7DEB70E94FA06992787FD55
:1018C0009095DF91CF910895CF93DF93CDB7DEB799
:1018D0000E941907DF91CF910895CF93DF93CDB781
:1018E000DEB70E942507DF91CF910895CF93DF9354
:1018F000CDB7DEB70E945806DF91CF910895CF9300
:10190000DF93CDB7DEB70E946406DF91CF910895D3
:10191000CF93DF93CDB7DEB70E947006992787FD7E
:101920009095DF91CF910895CF93DF93CDB7DEB738
:101930000E948406DF91CF910895CF93DF93CDB7B6
:10194000DEB70E949006DF91CF910895CF93DF9389
:10195000CDB7DEB70E949C06DF91CF910895CF935B
:10196000DF93CDB7DEB70E94A806DF91CF9108952F
:10197000CF93DF93CDB7DEB70E94B406992787FDDA
:101980009095DF91CF910895CF93DF93CDB7DEB7D8
:101990000E94C906DF91CF910895CF93DF93CDB711
:1019A000DEB70E94D506DF91CF910895CF93DF93E4
:1019B000CDB7DEB70E94AC08DF91CF910895CF93E9
:1019C000DF93CDB7DEB70E94B808DF91CF910895BD
:1019D000CF93DF93CDB7DEB7DF91CF910895CF934B
:1019E000DF93CDB7DEB70E946C08DF91CF910895E9
:1019F000CF93DF93CDB7DEB70E947808DF91CF9108
:101A00000895CF93DF93CDB7DEB7DF91CF910895DF
:101A1000CF93DF93CDB7DEB70E94EE08DF91CF9171
:101A20000895CF93DF93CDB7DEB70E94FA08DF9118
:101A3000CF910895CF93DF93CDB7DEB7DF91CF91EC
:101A40000895CF93DF93CDB7DEB70E943009DF91C1
:101A5000CF910895CF93DF93CDB7DEB70E943C09B5
:101A6000DF91CF910895CF93DF93CDB7DEB7DF91AC
:101A7000CF910895CF93DF93CDB7DEB70E9474095D
:101A8000DF91CF910895CF93DF93CDB7DEB70E945A
:101A90008009DF91CF910895CF93DF93CDB7DEB763
:101AA000DF91CF910895CF93DF93CDB7DEB70E943A
:101AB00012010E948C010E9450010E94F1090E94B3
:101AC000A1090E945C090E9418090E94D6080E9480
:101AD00094080E9454080E9416080E94A8070E94B9
:101AE0005A070E94DA070E94CF020E9413030E9445
:101AF0006C040E94A9030E94EE030E9430040E941D
:101B0000BC040E9402050E94DA010E94B0010E94FA
:101B100038050E94BE050E947C050E940E050E94A9
:101B2000EA000E9468010E942A01DF91CF91089586
:101B3000CF93DF93CDB7DEB724970FB6F894DEBF0F
:101B40000FBECDBF89836A838981882331F08A8162
:101B5000282F33273C832B8302C01C821B828B815E
:101B60009C8124960FB6F894DEBF0FBECDBFDF91E7
:101B7000CF910895CF93DF93CDB7DEB723970FB6FC
:101B8000F894DEBF0FBECDBF89836A834B836B8120
:101B90008A810E94980D682F89810E94980D99274B
:101BA00023960FB6F894DEBF0FBECDBFDF91CF9165
:101BB0000895CF93DF93CDB7DEB722970FB6F89491
:101BC000DEBF0FBECDBF9A838983E981FA81099573
:101BD00022960FB6F894DEBF0FBECDBFDF91CF9136
:101BE0000895CF93DF93CDB7DEB722970FB6F89461
:101BF000DEBF0FBECDBF80916701909168019A83CF
:101C0000898389819A81009721F081E090E09A830D
:101C1000898389819A8122960FB6F894DEBF0FBE20
:101C2000CDBFDF91CF91089587E691E09A838983B4
:101C300089819A81482F592F08951A8219828981A2
:101C40009A818830910504F529813A81C9018295EC
:101C50009295907F9827807F9827820F931F9C01F1
:101C600027593E4F809167019091680128173907E5
:101C700029F489819A819C838B8306C089819A810A
:101C800001969A838983DBCF8B819C81482F592FC2
:101C9000089584E993E09A83898389819A81482F02
:101CA000592F0895CF93DF93CDB7DEB721970FB6A5
:101CB000F894DEBF0FBECDBF0E948900898348E83B
:101CC00050E060E070E089E691E00E94810E1092A1
:101CD00068011092670110926601109265011092DE
:101CE000F3011092F2011092F10189810E94A20089
:101CF00021960FB6F894DEBF0FBECDBFDF91CF9116
:101D00000895CF93DF93CDB7DEB728970FB6F89439
:101D1000DEBF0FBECDBF9A8389837C836B835E83D6
:101D20004D8389819A8198878F838D819E810197C8
:101D30009E838D832FEF8F3F920769F0DE01179608
:101D40008D919C9111972B81FC0120830196119616
:101D50009C938E93EACF89819A8128960FB6F89446
:101D6000DEBF0FBECDBFDF91CF910895CF93DF933C
:101D7000CDB7DEB723970FB6F894DEBF0FBECDBF49
:101D80000E9489008B831A82198289818830B8F475
:101D90008981282F3327C90182959295907F9827B2
:101DA000807F9827820F931FFC01E559FE4F8081A9
:101DB000843009F404C089818F5F8983E6CF1A8259
:101DC0008981883011F081E08A838A818823A1F19A
:101DD00063E086EB9EE00E94E4138981282F33277D
:101DE000C90182959295907F9827807F9827820FCE
:101DF000931FFC01E559FE4F85E080838B810E9493
:101E0000A2008981282F3327C90182959295907F5E
:101E10009827807F9827820F931FFC01E259FE4F7D
:101E200080819181AA27BB279C01AD0161E0898156
:101E30000E9404151A8208C062E089E291E10E94C2
:101E4000E4138B810E94A20023960FB6F894DEBFA4
:101E50000FBECDBFDF91CF910895CF93DF93CDB764
:101E6000DEB7FF93FFB7FF930F921F922F923F921F
:101E70004F925F926F927F928F929F92AF92BF929A
:101E8000CF92DF92EF92FF920F931F932F933F9386
:101E90004F935F936F937F938F939F93AF93BF9372
:101EA000CF93DF93EF93FF938DB79EB79093660127
:101EB00080936501E0916701F091680180819181D3
:101EC0009EBF8DBFFF91EF91DF91CF91BF91AF91F9
:101ED0009F918F917F916F915F914F913F912F9142
:101EE0001F910F91FF90EF90DF90CF90BF90AF9038
:101EF0009F908F907F906F905F904F903F902F902A
:101F00001F900F90FF91FFBFFF917894DF91CF91C9
:101F10000895CF93DF93CDB7DEB7FF93FFB7FF935D
:101F20000F921F922F923F924F925F926F927F92E9
:101F30008F929F92AF92BF92CF92DF92EF92FF92D9
:101F40000F931F932F933F934F935F936F937F93C1
:101F50008F939F93AF93BF93CF93DF93EF93FF93B1
:101F60008DB79EB7E0916701F091680191838083FE
:101F70008081918180916501909166019EBF8DBFA6
:101F8000FF91EF91DF91CF91BF91AF919F918F9191
:101F90007F916F915F914F913F912F911F910F9181
:101FA000FF90EF90DF90CF90BF90AF909F908F9079
:101FB0007F906F905F904F903F902F901F900F9069
:101FC000FF91FFBFFF91DF91CF910895CF93DF93F2
:101FD000CDB7DEB721970FB6F894DEBF0FBECDBFE9
:101FE0000E9489008983E0916701F0916801128263
:101FF0000E94890F89810E94A20021960FB6F89451
:10200000DEBF0FBECDBFDF91CF910895E091670194
:10201000F0916801858196810E94D90D0E94E60F9A
:10202000CF93DF93CDB7DEB729970FB6F894DEBF15
:102030000FBECDBF8FEF9FEF9E838D838FEF9FEFFE
:102040009C838B830E9489008F831A8219828981E5
:102050009A81883091050CF043C029813A81C901E9
:1020600082959295907F9827807F9827820F931F63
:10207000FC01E559FE4F8081823061F529813A816A
:10208000C90182959295907F9827807F9827820F2B
:10209000931FFC01E359FE4F8081282F33278B814A
:1020A0009C8182179307B4F429813A81C9018295F2
:1020B0009295907F9827807F9827820F931FFC012D
:1020C000E359FE4F808199279C838B8389819A8174
:1020D0009E838D8389819A8101969A838983B7CF64
:1020E0008B819C81992314F41092F1018F810E94BD
:1020F000A2008B819C811816190654F50E94890054
:102100008F832D813E81C90182959295907F98277A
:10211000807F9827820F931FDC01A359BE4F2D812A
:102120003E81C90182959295907F9827807F98275C
:10213000820F931FFC01E359FE4F808181508C93E5
:102140008F810E94A2008D819E819987888776C0A9
:102150008B819C81009709F066C00E9489008F8363
:102160001A82198289819A8188309105ACF529817A
:102170003A81C90182959295907F9827807F982710
:10218000820F931FFC01E559FE4F80818230F1F4EC
:1021900029813A81C90182959295907F9827807F05
:1021A0009827820F931FDC01A359BE4F29813A81E2
:1021B000C90182959295907F9827807F9827820FFA
:1021C000931FFC01E459FE4F80818C9389819A8191
:1021D00001969A838983C6CF2D813E81C90182955C
:1021E0009295907F9827807F9827820F931FDC011C
:1021F000A359BE4F2D813E81C90182959295907F52
:102200009827807F9827820F931FFC01E359FE4F88
:10221000808181508C938F810E94A2008D819E814C
:10222000998788870BC08B819C8199232CF48FEF31
:102230009FEF9987888702C01986188688859985B7
:1022400029960FB6F894DEBF0FBECDBFDF91CF91B8
:102250000895CF93DF93CDB7DEB722970FB6F894EA
:10226000DEBF0FBECDBF0E9410109A838983898183
:102270009A8199230CF419C029813A81C901829568
:102280009295907F9827807F9827820F931F875978
:102290009E4F90936801809367010E942D0F1092CA
:1022A0006801109267010E94B60E22960FB6F8944C
:1022B000DEBF0FBECDBFDF91CF910895CF93DF93E7
:1022C000CDB7DEB721970FB6F894DEBF0FBECDBFF6
:1022D00089838981893051F48091F101882349F4FF
:1022E00062E089E291E10E94E41303C089810E94C7
:1022F000711221960FB6F894DEBF0FBECDBFDF91ED
:10230000CF910895CF93DF93CDB7DEB72A970FB65D
:10231000F894DEBF0FBECDBF9A8389837C836B8325
:102320004D830E94F10D882319F01A861986A4C0E6
:102330001F821E828E819F8188309105C4F42E8178
:102340003F81C90182959295907F9827807F982739
:10235000820F931FFC01E559FE4F8081882309F409
:1023600006C08E819F8101969F838E83E3CF8E81ED
:102370009F818830910519F41A8619867DC00E94C4
:10238000890088872E813F81C90182959295907F2F
:102390009827807F9827820F931F87599E4F90938D
:1023A000680180936701E0916701F09168018B817A
:1023B0009C8191838083E0916701F091680182E0C4
:1023C0008283E0916701F091680189819A81968307
:1023D0008583E0916701F09168018D818383E091AD
:1023E0006701F09168018D8184838DB79EB79093CA
:1023F000660180936501E0916701F0916801808139
:1024000091819EBF8DBF86E090E18F939F931F8245
:102410001E828E819F81843291053CF41F928E81B1
:102420009F8101969F838E83F4CF8DB79EB7E091F5
:102430006701F0916801918380838081918180910F
:102440006501909166019EBF8DBF10926801109248
:1024500067018091F101882341F462E089E291E112
:102460000E94E41381E08093F10188850E94A2001C
:1024700081E090E09A87898789859A852A960FB6A8
:10248000F894DEBF0FBECDBFDF91CF910895CF93FB
:10249000DF93CDB7DEB722970FB6F894DEBF0FBE3D
:1024A000CDBF9A8389830E94F10D882309F410C05F
:1024B000E0916701F091680184E08283E091670117
:1024C000F091680189819A81968385830E94890FA2
:1024D00022960FB6F894DEBF0FBECDBFDF91CF912D
:1024E0000895CF93DF93CDB7DEB721970FB6F89459
:1024F000DEBF0FBECDBF89838981883008F02CC034
:102500008981282F3327C90182959295907F98273A
:10251000807F9827820F931FFC01E559FE4F808131
:10252000853089F48981282F3327C90182959295B6
:10253000907F9827807F9827820F931FFC01E55991
:10254000FE4F82E080838091F101882329F462E0CC
:1025500089E291E10E94E41321960FB6F894DEBF60
:102560000FBECDBFDF91CF910895842F952F90930B
:102570000B0480930A0480910A0490910B040E943A
:10258000C112CF93DF93CDB7DEB727970FB6F8947C
:10259000DEBF0FBECDBF9A8389830E9489008B83E3
:1025A000E981FA818081882309F45DC0E981FA819B
:1025B0008181882309F454C01D821C828C819D81F5
:1025C000893091050CF04FC08C819D819F838E8353
:1025D0002E813F81C90182959295907F9827807FB7
:1025E0009827820F931FFC01E559FE4F80818330AD
:1025F00089F52E813F81C90182959295907F982718
:10260000807F9827820F931FFC01E259FE4F2081A3
:10261000318189819A8128173907E1F42E813F8120
:10262000C90182959295907F9827807F9827820F85
:10263000931FFC01E559FE4F82E080838091F101F8
:10264000882329F462E089E291E10E94E4130E9468
:10265000890F09C08C819D8101969D838C83AECFAB
:10266000E981FA8110828B810E94A20027960FB621
:10267000F894DEBF0FBECDBFDF91CF910895CF9309
:10268000DF93CDB7DEB724970FB6F894DEBF0FBE49
:10269000CDBF89836A830E9489008C831B828B81D2
:1026A000883008F057C08B81282F3327C9018295C5
:1026B0009295907F9827807F9827820F931FFC0127
:1026C000E559FE4F8081863009F040C08B81282F6C
:1026D0003327C90182959295907F9827807F98270C
:1026E000820F931FFC01E259FE4F90818981981758
:1026F00069F58B81282F3327C90182959295907FA8
:102700009827807F9827820F931FFC01E159FE4F85
:1027100090818A819817D1F48B81282F3327C901A2
:1027200082959295907F9827807F9827820F931F9C
:10273000FC01E559FE4F82E080838091F1018823FE
:1027400029F462E089E291E10E94E4138B818F5FBA
:102750008B83A5CF8C810E94A20024960FB6F8949B
:10276000DEBF0FBECDBFDF91CF910895CF93DF9332
:10277000CDB7DEB722970FB6F894DEBF0FBECDBF40
:102780001092F4011A82198289819A81803191050F
:1027900094F429813A81C901880F991F820F931FF0
:1027A000FC01EB50FE4F1182108289819A810196C3
:1027B0009A838983E9CF22960FB6F894DEBF0FBEC5
:1027C000CDBFDF91CF910895CF93DF93CDB7DEB723
:1027D00027970FB6F894DEBF0FBECDBF9A838983CB
:1027E0006B830E9489008C838091F401803131F4E5
:1027F0008C810E94A2001F821E8245C01D828D8195
:102800008031E0F58D81282F3327C901880F991F6A
:10281000820F931FFC01EB50FE4F80819181009746
:1028200049F58D81282F3327C901880F991F820F01
:10283000931FFC01EB50FE4F89819A819183808325
:102840008D81282F3327C901880F991F820F931F6D
:10285000FC01E950FE4F8B8180838091F4018F5FF2
:102860008093F4018C810E94A20081E090E09F831C
:102870008E8309C08D818F5F8D83C1CF8C810E9433
:10288000A2001F821E828E819F8127960FB6F89428
:10289000DEBF0FBECDBFDF91CF910895CF93DF9301
:1028A000CDB7DEB728970FB6F894DEBF0FBECDBF09
:1028B0000E94890089831A821E821D828091F40100
:1028C000882341F489810E94A20078948895188613
:1028D0001F8269C01B828B81803108F040C08B81D0
:1028E000282F3327C901880F991F820F931FFC01DE
:1028F000EB50FE4F80819181009769F18B81282FE9
:102900003327C901880F991F820F931FFC01E950DB
:10291000FE4F90818A818917F0F48B81282F33270D
:10292000C901880F991F820F931FFC01EB50FE4FC6
:10293000808191819E838D838B818C838B81282FD5
:102940003327C901880F991F820F931FFC01E9509B
:10295000FE4F80818A838B818F5F8B83BCCF8D817B
:102960009E81009791F08091F40181508093F40151
:102970008C81282F3327C901880F991F820F931F3D
:10298000FC01EB50FE4F1182108289810E94A2004F
:102990008D819E81009719F0ED81FE81099581E07E
:1029A00090E098878F838F81988528960FB6F8944A
:1029B000DEBF0FBECDBFDF91CF910895CF93DF93E0
:1029C000CDB7DEB71092260210922702109228028D
:1029D0001092290210922D028FEF809325028FEF23
:1029E0008093420210922A0283E080932B0286EEAB
:1029F00080932C0260912B0280912C020E94D315AF
:102A00009927DF91CF910895CF93DF93CDB7DEB7AC
:102A10002A970FB6F894DEBF0FBECDBF89836A83B5
:102A20002B833C834D835E838981803118F01A8625
:102A30001986AEC08A8182301CF01A861986A8C019
:102A40008A81882361F48B819C81AD81BE81833032
:102A50009105A105B10518F41A86198699C08981D6
:102A6000282F3327C901880F991F880F991F880FB6
:102A7000991F820F931FFC01EC5BFD4F8B819C81A2
:102A8000AD81BE8180839183A283B3838981282F06
:102A90003327C901880F991F880F991F880F991F25
:102AA000820F931FFC01ED5BFD4F8A8180830E94A2
:102AB000890088870E9421198F838F81282F3327CF
:102AC000442755278B819C81AD81BE81820F931F46
:102AD000A41FB51F8B839C83AD83BE838981282F60
:102AE0003327C901880F991F880F991F880F991FD5
:102AF000820F931FFC01E85BFD4F8B819C81AD81B0
:102B0000BE8180839183A283B3838981282F332759
:102B100081E090E0A0E0B0E004C0880F991FAA1FF8
:102B2000BB1F2A95D2F79C01AD018091260290919E
:102B30002702A0912802B0912902822B932BA42B6B
:102B4000B52B8093260290932702A0932802B0937E
:102B5000290280912C02282F3327442755278B8167
:102B60009C81AD81BE8182179307A407B50748F405
:102B70008B8180932C0280912C020E94511910921B
:102B80002D0288850E94A20081E090E09A878987C3
:102B900089859A852A960FB6F894DEBF0FBECDBF01
:102BA000DF91CF910895CF93DF93CDB7DEB7239711
:102BB0000FB6F894DEBF0FBECDBF89836A836A81EA
:102BC00089810E94AB198B838B81992723960FB63D
:102BD000F894DEBF0FBECDBFDF91CF910895CF93A4
:102BE000DF93CDB7DEB723970FB6F894DEBF0FBEE5
:102BF000CDBF86EE8A838091260290912702A09114
:102C00002802B09129020097A105B10509F471C00D
:102C100019828981803108F052C08981282F332799
:102C200081E090E0A0E0B0E004C0880F991FAA1FE7
:102C3000BB1F2A95D2F79C01AD018091260290918D
:102C40002702A0912802B091290282239323A42372
:102C5000B5230097A105B10571F18981282F33278C
:102C6000C901880F991F880F991F880F991F820F1C
:102C7000931FFC01E85BFD4F8A81282F33274427EF
:102C8000552780819181A281B38182179307A40780
:102C9000B5078CF48981282F3327C901880F991F24
:102CA000880F991F880F991F820F931FFC01E85B03
:102CB000FD4F80818A8389818F5F8983AACF0E949B
:102CC00089008B830E9421198D5F89839A81898174
:102CD000981710F489818A838A8180932C028091CD
:102CE0002C020E94511910922D028B810E94A20089
:102CF0000FC00E9489008B8386EE80932C02809106
:102D00002C020E94511910922D028B810E94A20068
:102D100023960FB6F894DEBF0FBECDBFDF91CF91E3
:102D20000895CF93DF93CDB7DEB721970FB6F89410
:102D3000DEBF0FBECDBF8983809125028F3019F48D
:102D40008FEF80932502809125028F5F809325026B
:102D500080912A028F5F80932A0280912502992711
:102D6000FC01E25DFD4F8981808321960FB6F894C6
:102D7000DEBF0FBECDBFDF91CF910895CF93DF931C
:102D8000CDB7DEB721970FB6F894DEBF0FBECDBF2B
:102D9000898381E090E021960FB6F894DEBF0FBEE4
:102DA000CDBFDF91CF910895CF93DF93CDB7DEB73D
:102DB00024970FB6F894DEBF0FBECDBF89838981FB
:102DC000282F33273C832B838B819C818330910573
:102DD00009F443C02B813C81243031057CF48B8184
:102DE0009C818130910521F12B813C81223031057C
:102DF0001CF58B819C810097B9F02BC02B813C8105
:102E00002B30310501F18B819C818C30910534F49C
:102E10002B813C812A30310599F01BC08B819C812C
:102E20008F30910599F015C080E00E945E1115C0A9
:102E300081E00E945E1111C082E00E945E110DC00F
:102E40000E94D22A0AC00E94272B07C00E94263562
:102E500004C089810E94BE168A8381E090E0249696
:102E60000FB6F894DEBF0FBECDBFDF91CF910895AE
:102E7000CF93DF93CDB7DEB722970FB6F894DEBFBE
:102E80000FBECDBF80912A02882329F480E190E013
:102E90009A8389831BC0809142028F3019F48FEF8F
:102EA00080934202809142028F5F80934202809120
:102EB0002A02815080932A02809142029927FC01C4
:102EC000E25DFD4F808199279A83898389819A8168
:102ED00022960FB6F894DEBF0FBECDBFDF91CF9123
:102EE0000895CF93DF93CDB7DEB721970FB6F8944F
:102EF000DEBF0FBECDBF0E94381789838981803124
:102F000018F489810E94D41621960FB6F894DEBF7A
:102F10000FBECDBFDF91CF910895CF93DF93CDB793
:102F2000DEB724970FB6F894DEBF0FBECDBF81E0A9
:102F300080932D020E9489008C8380913F029091A2
:102F400040029B838A831092400210923F028C8140
:102F50000E94A2008091260290912702A09128024F
:102F6000B09129020097A105B10509F411C1198298
:102F70008981803108F00CC18981282F332781E0B5
:102F800090E0A0E0B0E004C0880F991FAA1FBB1F0B
:102F90002A95D2F79C01AD018091260290912702DB
:102FA000A0912802B091290282239323A423B52360
:102FB0000097A105B10509F4E7C08981282F3327BF
:102FC000C901880F991F880F991F880F991F820FB9
:102FD000931FBC01685B7D4F8981282F3327C9016E
:102FE000880F991F880F991F880F991F820F931FB1
:102FF000FC01E85BFD4F8A819B819C01442755279A
:1030000080819181A281B381821B930BA40BB50BAC
:10301000FB0180839183A283B3838981282F332787
:10302000C901880F991F880F991F880F991F820F58
:10303000931FFC01E85BFD4F80819181A281B381E8
:1030400083309105A105B1050CF09EC067E081E7D2
:1030500097E10E94E413882309F47EC08981282F18
:103060003327C901880F991F880F991F880F991F4F
:10307000820F931FFC01ED5BFD4F8081882309F0D7
:103080003FC08981282F3327C901880F991F880FD6
:10309000991F880F991F820F931FBC01685B7D4F9A
:1030A0008981282F3327C901880F991F880F991FFD
:1030B000880F991F820F931FDC01A85BBD4F898188
:1030C000282F3327C901880F991F880F991F880F50
:1030D000991F820F931FFC01EC5BFD4F2D913D91D9
:1030E0004D915C9180819181A281B381820F931F68
:1030F000A41FB51FFB0180839183A283B38328C0E3
:103100008981282F332781E090E0A0E0B0E004C05F
:10311000880F991FAA1FBB1F2A95D2F79C01AD01EA
:1031200020953095409550958091260290912702E8
:10313000A0912802B091290282239323A423B523CE
:103140008093260290932702A0932802B09329022D
:1031500089810E94911618C08981282F3327C901BF
:10316000880F991F880F991F880F991F820F931F2F
:10317000FC01E85BFD4F80912C029927AA27BB2711
:1031800080839183A283B38389818F5F8983F0CE0B
:103190000E9489008C8380913F02909140029B8322
:1031A0008A838C810E94A2008A819B81009711F4FE
:1031B0000E94EF1524960FB6F894DEBF0FBECDBF68
:1031C000DF91CF910895CF93DF93CDB7DEB72197ED
:1031D0000FB6F894DEBF0FBECDBF0E948900898371
:1031E00080913F0290914002009729F467E08DE8BA
:1031F00097E10E94E4130E943919282F3327809108
:103200003F0290914002820F931F019690934002DB
:1032100080933F0289810E94A20081E090E0219684
:103220000FB6F894DEBF0FBECDBFDF91CF910895EA
:10323000CF93DF93CDB7DEB781E090E0DF91CF9100
:103240000895CF93DF93CDB7DEB721970FB6F894EB
:10325000DEBF0FBECDBF0E9468198983898199277F
:1032600021960FB6F894DEBF0FBECDBFDF91CF9190
:103270000895CF93DF93CDB7DEB721970FB6F894BB
:10328000DEBF0FBECDBF0E94721989838981992745
:1032900021960FB6F894DEBF0FBECDBFDF91CF9160
:1032A0000895CF93DF93CDB7DEB721970FB6F8948B
:1032B000DEBF0FBECDBF898389810E9494192196FC
:1032C0000FB6F894DEBF0FBECDBFDF91CF9108954A
:1032D000CF93DF93CDB7DEB7809152009927DF916E
:1032E000CF910895CF93DF93CDB7DEB78091510092
:1032F0009927DF91CF910895CF93DF93CDB7DEB7B4
:1033000021970FB6F894DEBF0FBECDBF0E94E31821
:1033100089838981992721960FB6F894DEBF0FBE65
:10332000CDBFDF91CF910895CF93DF93CDB7DEB7B7
:1033300021970FB6F894DEBF0FBECDBF8983898178
:103340008093510021960FB6F894DEBF0FBECDBF1B
:10335000DF91CF910895CF93DF93CDB7DEB7239759
:103360000FB6F894DEBF0FBECDBF89836A838A8112
:1033700087708A838A8188608A830E9489008B8310
:10338000809157008E7F80935700809157008D7FEA
:1033900080935700809150008860809350008A810C
:1033A0008093530010925200898180935100809144
:1033B00057008260809357008B810E94A20081E0B9
:1033C00090E023960FB6F894DEBF0FBECDBFDF911D
:1033D000CF91089578941F920F920FB60F921124F7
:1033E0002F933F934F935F936F937F938F939F930D
:1033F000AF93BF93EF93FF93CF93DF93CDB7DEB738
:103400002197F894DEBF7894CDBF0E94F10D8823F8
:1034100061F08DB79EB79093F3018093F201809194
:103420006501909166019EBF8DBF0E9489008983CE
:103430008091D302882399F08091410280933E02CB
:103440008091410288608093410280914102809383
:1034500053008091D402809351001092D30289814D
:103460000E94A2000E947C190E94F10D882371F035
:103470008DB79EB790936601809365018091F201AC
:103480009091F3019EBF8DBF0E94890F2196F89401
:10349000DEBFCDBFDF91CF91FF91EF91BF91AF9193
:1034A0009F918F917F916F915F914F913F912F915C
:1034B0000F900FBE0F901F901895CF93DF93CDB74D
:1034C000DEB721970FB6F894DEBF0FBECDBF0E94C6
:1034D000890089831092D5020E9412010E948C01FA
:1034E0000E9450010E94EA000E9468010E942A0185
:1034F00021960FB6F894DEBF0FBECDBFDF91CF91FE
:103500000895CF93DF93CDB7DEB721970FB6F89428
:10351000DEBF0FBECDBF0E94890089830E94F600E6
:103520008091D50281608093D50289810E94A2009A
:1035300021960FB6F894DEBF0FBECDBFDF91CF91BD
:103540000895CF93DF93CDB7DEB721970FB6F894E8
:10355000DEBF0FBECDBF0E94890089830E94EA00B2
:103560008091D5028E7F8093D50289810E94A2002E
:1035700021960FB6F894DEBF0FBECDBFDF91CF917D
:103580000895CF93DF93CDB7DEB721970FB6F894A8
:10359000DEBF0FBECDBF0E94890089838091D50216
:1035A000992781709070009719F00E94A11A02C0AB
:1035B0000E94811A89810E94A20021960FB6F89478
:1035C000DEBF0FBECDBFDF91CF910895CF93DF93C4
:1035D000CDB7DEB721970FB6F894DEBF0FBECDBFD3
:1035E0000E94890089830E9436018091D502826001
:1035F0008093D50289810E94A20021960FB6F8948B
:10360000DEBF0FBECDBFDF91CF910895CF93DF9383
:10361000CDB7DEB721970FB6F894DEBF0FBECDBF92
:103620000E94890089830E942A018091D5028D7FA2
:103630008093D50289810E94A20021960FB6F8944A
:10364000DEBF0FBECDBFDF91CF910895CF93DF9343
:10365000CDB7DEB721970FB6F894DEBF0FBECDBF52
:103660000E94890089838091D50299278270907089
:10367000009719F00E94061B02C00E94E61A898179
:103680000E94A20021960FB6F894DEBF0FBECDBFF8
:10369000DF91CF910895CF93DF93CDB7DEB7219718
:1036A0000FB6F894DEBF0FBECDBF0E94890089839C
:1036B0000E9474018091D50284608093D502898133
:1036C0000E94A20021960FB6F894DEBF0FBECDBFB8
:1036D000DF91CF910895CF93DF93CDB7DEB72197D8
:1036E0000FB6F894DEBF0FBECDBF0E94890089835C
:1036F0000E9468018091D5028B7F8093D5028981D9
:103700000E94A20021960FB6F894DEBF0FBECDBF77
:10371000DF91CF910895CF93DF93CDB7DEB7219797
:103720000FB6F894DEBF0FBECDBF0E94890089831B
:103730008091D502992784709070009719F00E94AB
:103740006B1B02C00E944B1B89810E94A200219624
:103750000FB6F894DEBF0FBECDBFDF91CF910895B5
:10376000CF93DF93CDB7DEB721970FB6F894DEBFC6
:103770000FBECDBF0E94FB2189831092D60210920A
:10378000DA021092D9021092D8021092D7028981DF
:10379000992721960FB6F894DEBF0FBECDBFDF91FB
:1037A000CF910895CF93DF93CDB7DEB721970FB6B2
:1037B000F894DEBF0FBECDBF0E94AA228983898103
:1037C000992721960FB6F894DEBF0FBECDBFDF91CB
:1037D000CF910895CF93DF93CDB7DEB721970FB682
:1037E000F894DEBF0FBECDBF0E94D21B898310921A
:1037F000D6028981992721960FB6F894DEBF0FBEB5
:10380000CDBFDF91CF910895CF93DF93CDB7DEB7D2
:1038100023970FB6F894DEBF0FBECDBF9A8389837E
:1038200089819A810E94E3238B838B819927239638
:103830000FB6F894DEBF0FBECDBFDF91CF910895D4
:10384000CF93DF93CDB7DEB723970FB6F894DEBFE3
:103850000FBECDBF8091DB029091DC029B838A83F7
:103860008A819B810E94041C89838981882339F481
:1038700060E08091DB029091DC020E94981D23960B
:103880000FB6F894DEBF0FBECDBFDF91CF91089584
:10389000CF93DF93CDB7DEB729970FB6F894DEBF8D
:1038A0000FBECDBF9A8389837C836B834D833F8317
:1038B0002E838091D602882391F581E08093D602F1
:1038C0008D81853628F01092D6021986188629C077
:1038D00063E080E29CE10E94E413882329F41092C3
:1038E000D602198618861DC08E819F819093DC02B6
:1038F0008093DB02EE81FF818D818083EE81FF81E9
:103900008B819C8197838683EE81FF8189819A8157
:103910009187808781E090E09987888702C0198627
:1039200018868885998529960FB6F894DEBF0FBE54
:10393000CDBFDF91CF910895CF93DF93CDB7DEB7A1
:1039400024970FB6F894DEBF0FBECDBF89837B836B
:103950006A834C8381E090E024960FB6F894DEBF32
:103960000FBECDBFDF91CF910895CF93DF93CDB739
:10397000DEB726970FB6F894DEBF0FBECDBF9A8391
:1039800089837C836B834D838E81992726960FB61E
:10399000F894DEBF0FBECDBFDF91CF910895CF93D6
:1039A000DF93CDB7DEB781E090E0DF91CF9108954E
:1039B000CF93DF93CDB7DEB721970FB6F894DEBF74
:1039C0000FBECDBF0E94CF1C898389819927219684
:1039D0000FB6F894DEBF0FBECDBFDF91CF91089533
:1039E000CF93DF93CDB7DEB723970FB6F894DEBF42
:1039F0000FBECDBF89837B836A838A819B81239697
:103A00000FB6F894DEBF0FBECDBFDF91CF91089502
:103A1000CF93DF93CDB7DEB724970FB6F894DEBF10
:103A20000FBECDBF9A8389837C836B838B819C81FE
:103A300024960FB6F894DEBF0FBECDBFDF91CF91B5
:103A40000895CF93DF93CDB7DEB7E0E0F0E00995BE
:103A5000DF91CF910895CF93DF93CDB7DEB7249751
:103A60000FB6F894DEBF0FBECDBF9A8389838091D5
:103A7000D7029091D80201969093D8028093D702F2
:103A800089819A81FC01E059FF4F8081813081F466
:103A90000E94C11A89819A810E9408399C838B8374
:103AA0008B819C81009721F08B819C819A838983F3
:103AB00089819A8124960FB6F894DEBF0FBECDBFE0
:103AC000DF91CF910895CF93DF93CDB7DEB72297E3
:103AD0000FB6F894DEBF0FBECDBF9A83898389816C
:103AE0009A810E942B1D22960FB6F894DEBF0FBE5E
:103AF000CDBFDF91CF910895CF93DF93CDB7DEB7E0
:103B000023970FB6F894DEBF0FBECDBF9A8389838B
:103B10006B836B8189819A810E94981D99272396D6
:103B20000FB6F894DEBF0FBECDBFDF91CF910895E1
:103B3000CF93DF93CDB7DEB723970FB6F894DEBFF0
:103B40000FBECDBF9A8389836B831092D60281E02A
:103B500090E023960FB6F894DEBF0FBECDBFDF9185
:103B6000CF910895CF93DF93CDB7DEB724970FB6EB
:103B7000F894DEBF0FBECDBF81E089831A821C821C
:103B80001B8289819A818130910521F481E090E046
:103B90009C838B838B819C8124960FB6F894DEBF27
:103BA0000FBECDBFDF91CF910895CF93DF93CDB7F7
:103BB000DEB724970FB6F894DEBF0FBECDBF9A8351
:103BC00089830E94B21D009729F48A818B83998191
:103BD0009C8304C089819A819C838B838B819C8187
:103BE00024960FB6F894DEBF0FBECDBFDF91CF9104
:103BF0000895CF93DF93CDB7DEB724970FB6F8942F
:103C0000DEBF0FBECDBF9A8389830E94B21D00978D
:103C100029F48A818B8399819C8304C089819A814C
:103C20009C838B838B819C8124960FB6F894DEBF96
:103C30000FBECDBFDF91CF910895CF93DF93CDB766
:103C4000DEB70E94F30288E592E00E94C20081E0A4
:103C500090E0DF91CF910895CF93DF93CDB7DEB79A
:103C600024970FB6F894DEBF0FBECDBF19820E9415
:103C700089008A838091DD02882329F481E0809382
:103C8000DD0281E089831092DD028BE08093FB02EC
:103C90008FE18093FA028A810E94A20089818823A1
:103CA00019F41C821B826CC00E94C92180E098EF2D
:103CB0009093DF028093DE0282EE92E09093E10225
:103CC0008093E00280E095E09093E3028093E2022B
:103CD00080E890EE9093E5028093E4028FE097EA0B
:103CE0009093E7028093E6028091FA029927806E12
:103CF00090669093E9028093E80285EE92E19093BA
:103D0000EB028093EA0286E59AE09093ED028093BD
:103D1000EC029091FB0285E0989FC0011124825D26
:103D20009E4F90649093EF028093EE0284EC91E0BA
:103D30009093F1028093F0021092F3021092F2023B
:103D40001092F5021092F4028FE792E09093F7023E
:103D50008093F6021092F9021092F8020E948900F4
:103D60008A8382E08093DD028A810E94A20065E05E
:103D70008CE09FE10E94E41381E090E09C838B83C0
:103D80008B819C8124960FB6F894DEBF0FBECDBF09
:103D9000DF91CF910895CF93DF93CDB7DEB7229710
:103DA0000FB6F894DEBF0FBECDBF898389810E9414
:103DB000642B8A838A81992722960FB6F894DEBFF6
:103DC0000FBECDBFDF91CF910895CF93DF93CDB7D5
:103DD000DEB70E94E70288E592E00E94C20081E01F
:103DE00090E0DF91CF910895CF93DF93CDB7DEB709
:103DF00021970FB6F894DEBF0FBECDBF0E94F12110
:103E000089838981992721960FB6F894DEBF0FBE6A
:103E1000CDBFDF91CF910895CF93DF93CDB7DEB7BC
:103E20000E94F41EDF91CF910895CF93DF93CDB719
:103E3000DEB722970FB6F894DEBF0FBECDBF8983E1
:103E400089810E94C72D8A838A81992722960FB67D
:103E5000F894DEBF0FBECDBFDF91CF910895CF9311
:103E6000DF93CDB7DEB724970FB6F894DEBF0FBE51
:103E7000CDBF89837B836A836A817B8189810E942C
:103E80007F2D8C838C81992724960FB6F894DEBF02
:103E90000FBECDBFDF91CF910895CF93DF93CDB704
:103EA000DEB723970FB6F894DEBF0FBECDBF1A82E0
:103EB000198268E170E08DE10E942F1F81E00E946D
:103EC000CB1E81E00E94151F8B8381E090E023963A
:103ED0000FB6F894DEBF0FBECDBFDF91CF9108952E
:103EE000CF93DF93CDB7DEB721970FB6F894DEBF3F
:103EF0000FBECDBF0E94672E8983898199272196A5
:103F00000FB6F894DEBF0FBECDBFDF91CF910895FD
:103F1000CF93DF93CDB7DEB725970FB6F894DEBF0A
:103F20000FBECDBF1A820E9489008B838091DD0273
:103F3000823029F483E08093DD0281E08A838B81E3
:103F40000E94A2008A81882319F41D821C8213C05A
:103F50000E94701F0E94E51E0E94AE020E94650032
:103F60000E94A2020E9465000E944D1F89838981E0
:103F700099279D838C838C819D8125960FB6F8941B
:103F8000DEBF0FBECDBFDF91CF910895CF93DF93FA
:103F9000CDB7DEB783E00E94151F81E090E0DF918E
:103FA000CF910895CF93DF93CDB7DEB721970FB6AA
:103FB000F894DEBF0FBECDBF0E949D248983898106
:103FC000992721960FB6F894DEBF0FBECDBFDF91C3
:103FD000CF910895CF93DF93CDB7DEB725970FB676
:103FE000F894DEBF0FBECDBF9A83898389819A8101
:103FF000805098409C838B838091EE029091EF02D9
:104000009C0120703C7F8B819C81822B932B909311
:10401000EF028093EE026091EE027091EF0288E170
:104020000E942F1F8D838D81992780749070009737
:1040300019F083E00E94151F81E090E025960FB6ED
:10404000F894DEBF0FBECDBFDF91CF910895CF931F
:10405000DF93CDB7DEB722970FB6F894DEBF0FBE61
:10406000CDBF89838091E8029091E9029C01207E76
:10407000898199278F719070822B932B9093E902FD
:104080008093E8026091EE027091EF0285E10E9458
:104090002F1F8A838A81992780749070009719F066
:1040A00083E00E94151F81E090E022960FB6F894FD
:1040B000DEBF0FBECDBFDF91CF910895CF93DF93C9
:1040C000CDB7DEB723970FB6F894DEBF0FBECDBFD6
:1040D0008983998185E0989FC0011124825D964F64
:1040E0009B838A838A819B810E94EA1F81E090E002
:1040F00023960FB6F894DEBF0FBECDBFDF91CF91F0
:104100000895CF93DF93CDB7DEB725970FB6F89418
:10411000DEBF0FBECDBF9A8389836B835D834C83E3
:1041200081E090E025960FB6F894DEBF0FBECDBFBC
:10413000DF91CF910895CF93DF93CDB7DEB7269768
:104140000FB6F894DEBF0FBECDBF9A8389836B8311
:104150005D834C834C815D816B8189819A810E9452
:10416000FE2C8E838E81992726960FB6F894DEBF9B
:104170000FBECDBFDF91CF910895CF93DF93CDB721
:10418000DEB722970FB6F894DEBF0FBECDBF9A837D
:10419000898389819A810E94D51D9A838983AE0182
:1041A0004F5F5F4F62E08AE691E00E949B20992773
:1041B00022960FB6F894DEBF0FBECDBFDF91CF9130
:1041C0000895CF93DF93CDB7DEB723970FB6F8945A
:1041D000DEBF0FBECDBF898389810E94F22D9B83F4
:1041E0008A838A819B8123960FB6F894DEBF0FBE27
:1041F000CDBFDF91CF910895CF93DF93CDB7DEB7D9
:1042000024970FB6F894DEBF0FBECDBF6091DE02DB
:104210007091DF0280E10E942F1F6091E002709197
:10422000E10281E10E942F1F81E10E94E1209A8337
:1042300089832091E0023091E10289819A812817D7
:10424000390719F01C821B8257C06091E2027091FD
:10425000E30282E10E942F1F6091E4027091E50267
:1042600083E10E942F1F6091E6027091E70284E1D2
:104270000E942F1F6091E8027091E90285E10E947F
:104280002F1F6091EA027091EB0286E10E942F1FBE
:104290006091EC027091ED0287E10E942F1F609106
:1042A000EE027091EF0288E10E942F1F6091F002F0
:1042B0007091F10289E10E942F1F6091F2027091CA
:1042C000F3028AE10E942F1F6091F6027091F702BB
:1042D0008CE10E942F1F6091F8027091F9028DE12C
:1042E0000E942F1F89E00E94151F88E00E94151F61
:1042F00081E090E09C838B838B819C8124960FB618
:10430000F894DEBF0FBECDBFDF91CF910895CF935C
:10431000DF93CDB7DEB721970FB6F894DEBF0FBE9F
:10432000CDBF0E94FC2080916301909164010E94A6
:10433000BD208091EE029091EF0291708050984FD5
:104340000E94EA1F0E948900898384E08093DD0235
:1043500089810E94A2000E94D21F21960FB6F89474
:10436000DEBF0FBECDBFDF91CF910895CF93DF9316
:10437000CDB7DEB760E070E08DE10E942F1F65E0F1
:1043800087E891E20E94E41380E090E0DF91CF9112
:104390000895CF93DF93CDB7DEB721970FB6F8948A
:1043A000DEBF0FBECDBF0E946E2C89830E94432EBC
:1043B000682F89810E94980D898389819927219688
:1043C0000FB6F894DEBF0FBECDBFDF91CF91089539
:1043D000CF93DF93CDB7DEB781E090E0DF91CF914F
:1043E0000895CF93DF93CDB7DEB70E942E2899278B
:1043F000DF91CF910895CF93DF93CDB7DEB72197AB
:104400000FB6F894DEBF0FBECDBF0E94890089832E
:1044100010920403109201031092FF021092FC020A
:1044200088E093E09093FE028093FD02E091FD020C
:10443000F091FE02108289810E94A20080916301A6
:104440009091640190930603809305030E942C1EB3
:10445000992721960FB6F894DEBF0FBECDBFDF912E
:10446000CF910895CF93DF93CDB7DEB721970FB6E5
:10447000F894DEBF0FBECDBF0E94881F898389815B
:10448000992721960FB6F894DEBF0FBECDBFDF91FE
:10449000CF910895CF93DF93CDB7DEB724970FB6B2
:1044A000F894DEBF0FBECDBF0E9489008A83809141
:1044B000040389838A810E94A20089818823B1F440
:1044C0000E9489008A838AE080930403109200038B
:1044D000E091FD02F091FE0210828A810E94A2000A
:1044E0000E94322299279C838B8302C01C821B82EC
:1044F0008B819C8124960FB6F894DEBF0FBECDBF92
:10450000DF91CF910895CF93DF93CDB7DEB7229798
:104510000FB6F894DEBF0FBECDBF19820E9489008E
:104520008A8380910403813021F41092040381E096
:1045300089838A810E94A2008981813011F40E94BE
:104540004A2222960FB6F894DEBF0FBECDBFDF9190
:10455000CF910895CF93DF93CDB7DEB722970FB6F3
:10456000F894DEBF0FBECDBF19820E9489008A83F6
:1045700080910403882361F465E083E892E20E945D
:10458000E413882329F081E0898381E08093040388
:104590008A810E94A2008981992722960FB6F894F9
:1045A000DEBF0FBECDBFDF91CF910895CF93DF93D4
:1045B000CDB7DEB781E090E0DF91CF910895CF9342
:1045C000DF93CDB7DEB721970FB6F894DEBF0FBEED
:1045D000CDBF0E94D62289838981992721960FB663
:1045E000F894DEBF0FBECDBFDF91CF910895CF937A
:1045F000DF93CDB7DEB722970FB6F894DEBF0FBEBC
:10460000CDBF898389810E94E22B8A838A81992781
:1046100022960FB6F894DEBF0FBECDBFDF91CF91CB
:104620000895CF93DF93CDB7DEB722970FB6F894F6
:10463000DEBF0FBECDBF898389810E94C72D8A83CB
:104640008A81992722960FB6F894DEBF0FBECDBFA0
:10465000DF91CF910895CF93DF93CDB7DEB7219748
:104660000FB6F894DEBF0FBECDBF85E00E941123C8
:1046700080E00E941123898389818695869586959D
:10468000992781709070009721F081E00E94F722B5
:1046900002C00E947E2721960FB6F894DEBF0FBE9F
:1046A000CDBFDF91CF910895CF93DF93CDB7DEB724
:1046B00022970FB6F894DEBF0FBECDBF0E948900CF
:1046C0008A838091040389838A810E94A200898160
:1046D0008530D1F40E949104009731F40E94430385
:1046E000009711F40E94AC270E94E104009771F03A
:1046F0000E9489008A8383E0809304038A810E9458
:10470000A2000E942B2302C00E94AC2722960FB663
:10471000F894DEBF0FBECDBFDF91CF910895CF9348
:10472000DF93CDB7DEB723970FB6F894DEBF0FBE89
:10473000CDBF89837B836A830E94542381E090E00C
:1047400023960FB6F894DEBF0FBECDBFDF91CF9199
:104750000895CF93DF93CDB7DEB724970FB6F894C3
:10476000DEBF0FBECDBF89837B836A836A817B8175
:1047700089810E948D288C838C81992724960FB67D
:10478000F894DEBF0FBECDBFDF91CF910895CF93D8
:10479000DF93CDB7DEB789E00E941123882319F497
:1047A0000E947E270DC0809107038F5F60910203F6
:1047B000709103030E94A923882311F40E947E278D
:1047C000DF91CF9108950F931F93CF93DF93CDB7D0
:1047D000DEB726970FB6F894DEBF0FBECDBF9A8323
:1047E00089830E9489008C83809104038B838C8150
:1047F0000E94A2008B81823009F05EC0E981FA81BB
:1048000088E082838091FF02882329F0E981FA8180
:1048100081E2818304C0E981FA8181E08183E981B9
:10482000FA818FEF9FEF9583848309811A81E98153
:10483000FA81868197810E94D51DF801978386832E
:10484000A981BA81E981FA818081855F8C93E981B0
:10485000FA81809101038F5F8093010383838981B3
:104860009A81FC01EE58FF4F11821082E981FA8192
:10487000808182508093070389819A8190930303FA
:104880008093020388E0809300030E9489008C8358
:1048900085E0809304038C810E94A20065E087EC90
:1048A00093E20E94E413882311F40E947E2781E0A2
:1048B00090E09E838D8302C01E821D828D819E8129
:1048C00026960FB6F894DEBF0FBECDBFDF91CF9115
:1048D0001F910F910895CF93DF93CDB7DEB7229745
:1048E0000FB6F894DEBF0FBECDBF898389810E94C9
:1048F000442A8A838A81992722960FB6F894DEBFCC
:104900000FBECDBFDF91CF910895CF93DF93CDB789
:10491000DEB721970FB6F894DEBF0FBECDBF0E9461
:10492000C61F89838981992721960FB6F894DEBF27
:104930000FBECDBFDF91CF910895CF93DF93CDB759
:10494000DEB722970FB6F894DEBF0FBECDBF0E9430
:1049500089008A838091040389838A810E94A2004E
:1049600089818A3089F40E94852480E00E946B242A
:1049700081E00E94F7220E9489008A8382E080936E
:1049800004038A810E94A2000E94DF2281E090E05D
:1049900022960FB6F894DEBF0FBECDBFDF91CF9148
:1049A0000895CF93DF93CDB7DEB723970FB6F89472
:1049B000DEBF0FBECDBF898389810E94F22D9B830C
:1049C0008A838A819B8123960FB6F894DEBF0FBE3F
:1049D000CDBFDF91CF910895CF93DF93CDB7DEB7F1
:1049E00021970FB6F894DEBF0FBECDBF0E94682A94
:1049F00089838981992721960FB6F894DEBF0FBE6F
:104A0000CDBFDF91CF910895CF93DF93CDB7DEB7C0
:104A10000E94D527DF91CF910895CF93DF93CDB733
:104A2000DEB723970FB6F894DEBF0FBECDBF0E944E
:104A30009104009739F40E94AC2781E090E09B83B9
:104A40008A8316C00E948900898365E084E095E22C
:104A50000E94E413882319F00E94EC2402C00E94F3
:104A6000AC2789810E94A20081E090E09B838A8329
:104A70008A819B8123960FB6F894DEBF0FBECDBF0F
:104A8000DF91CF910895CF93DF93CDB7DEB7249711
:104A90000FB6F894DEBF0FBECDBF9A83898389819C
:104AA0009A810E94631D9C838B838B819C812496B9
:104AB0000FB6F894DEBF0FBECDBFDF91CF91089542
:104AC000CF93DF93CDB7DEB723970FB6F894DEBF51
:104AD0000FBECDBF0E9489008B838091FD02909113
:104AE000FE029A8389838B810E94A20089819A8128
:104AF0000E9443259A8389830E9489008B83898140
:104B00009A81009731F089819A819093FE02809377
:104B1000FD02E091FD02F091FE0210821092FC0273
:104B20008B810E94A20023960FB6F894DEBF0FBEC1
:104B3000CDBFDF91CF9108950F931F93CF93DF9354
:104B4000CDB7DEB727970FB6F894DEBF0FBECDBF47
:104B500089837B836A830E9489008D83809104030B
:104B60008C838D810E94A2000E949104009729F4F9
:104B70000E944303009709F407C08981882321F02C
:104B80008981813708F40FC00E94AC270E948900F8
:104B90008D831092FC028D810E94A20081E090E042
:104BA0009F838E83C6C08A819B819093FE028093EF
:104BB000FD02E091FD02F091FE028181992787704C
:104BC00090708130910541F4E091FD02F091FE0278
:104BD0008281883009F40FC00E94AC270E948900AE
:104BE0008D831092FC028D810E94A200E1E0F0E032
:104BF000FF83EE839EC0A091FD02B091FE02E09182
:104C0000FD02F091FE0280818B508C93E091FD02B9
:104C1000F091FE028081853678F00E94AC270E94D8
:104C200089008D831092FC028D810E94A20081E098
:104C300090E09F838E837DC00091FD021091FE0263
:104C4000E091FD02F091FE02868197810E94F91D9C
:104C5000F801978386838091FD029091FE02DC012A
:104C6000A059BF4F8981282F33278A819B81820FCA
:104C7000931FFC0131978081881F8827881F8C93A0
:104C80008091FD029091FE02DC01A259BF4F898103
:104C9000282F33278A819B81820F931FFC01329733
:104CA00080818C938091FD029091FE02DC01A159DC
:104CB000BF4F8981282F33278A819B81820F931FC1
:104CC000FC01319780818F778C930E9489008D83BE
:104CD00065E080E695E20E94E413882311F41092C7
:104CE000FC028D810E94A2000E949104009759F459
:104CF0000E944303009739F40E94AC2781E090E0C2
:104D00009F838E8316C00E944303009761F465E081
:104D100084E095E20E94E413882329F0E1E0F0E0CA
:104D2000FF83EE8306C00E94AC2781E090E09F8362
:104D30008E838E819F8127960FB6F894DEBF0FBEBB
:104D4000CDBFDF91CF911F910F910895CF93DF9346
:104D5000CDB7DEB724970FB6F894DEBF0FBECDBF38
:104D600089837B836A836A817B8189810E945C2934
:104D70008C838C81992724960FB6F894DEBF0FBEE2
:104D8000CDBFDF91CF910895CF93DF93CDB7DEB73D
:104D900024970FB6F894DEBF0FBECDBF9A838983E8
:104DA0006B836B8189819A810E947C1D8C838C81AD
:104DB000992724960FB6F894DEBF0FBECDBFDF91C2
:104DC000CF910895CF93DF93CDB7DEB723970FB67A
:104DD000F894DEBF0FBECDBF0E9489008B8382E0B6
:104DE0008093040380910203909103039A83898343
:104DF000A981BA81E981FA8180818B508C938B8162
:104E00000E94A20061E089819A810E94C4262396B3
:104E10000FB6F894DEBF0FBECDBFDF91CF910895DE
:104E2000CF93DF93CDB7DEB721970FB6F894DEBFEF
:104E30000FBECDBF0E94072C8983898199272196B7
:104E40000FB6F894DEBF0FBECDBFDF91CF910895AE
:104E5000CF93DF93CDB7DEB724970FB6F894DEBFBC
:104E60000FBECDBF9A83898380910403282F3327F7
:104E70003C832B838B819C818330910531F02B8186
:104E80003C8124303105F1F02EC080E00E94F722F1
:104E90000E941204009719F40E94102703C084E0B6
:104EA000809304038091020390910303FC01EE5868
:104EB000FF4F89819A81918380838091040384309C
:104EC00009F411C086E0809304030E94102781E05A
:104ED0000E94F72265E082EE96E20E94E4138823A6
:104EE00011F40E947E2781E090E024960FB6F8949A
:104EF000DEBF0FBECDBFDF91CF910895CF93DF937B
:104F0000CDB7DEB721970FB6F894DEBF0FBECDBF89
:104F10000E948900898382E08093040389810E9432
:104F2000A200A0910203B0910303E0910203F0916B
:104F3000030380818B508C9360E0809102039091F9
:104F400003030E94C42621960FB6F894DEBF0FBE5D
:104F5000CDBFDF91CF910895CF93DF93CDB7DEB76B
:104F600021970FB6F894DEBF0FBECDBF0E94EC2490
:104F70008FE30E94D12488E00E94112388E00E94E0
:104F800011230E94890089831092FC0289810E946A
:104F9000A20080E00E946B2421960FB6F894DEBF39
:104FA0000FBECDBFDF91CF910895CF93DF93CDB7E3
:104FB000DEB723970FB6F894DEBF0FBECDBF80E7F4
:104FC00089830E949104009739F40E94430300975B
:104FD00019F40E94AC2739C00E9489008B8380910C
:104FE000FC028A838A81882351F065E084E095E29F
:104FF0000E94E413882331F40E94AC2703C081E0AF
:105000008093FC028B810E94A2008A818823D9F4BC
:105010006091FD027091FE0289810E94A62688237C
:1050200091F40E9489008B831092FC028B810E9474
:10503000A20065E084E095E20E94E413882329F44D
:105040000E94AC2702C00E94AC2723960FB6F894AA
:10505000DEBF0FBECDBFDF91CF910895CF93DF9319
:10506000CDB7DEB721970FB6F894DEBF0FBECDBF28
:105070000E94E82189838981992721960FB6F894A7
:10508000DEBF0FBECDBFDF91CF910895CF93DF93E9
:10509000CDB7DEB724970FB6F894DEBF0FBECDBFF5
:1050A00089837B836A836A817B8189810E948F23C4
:1050B0008C838C81992724960FB6F894DEBF0FBE9F
:1050C000CDBFDF91CF910895CF93DF93CDB7DEB7FA
:1050D00024970FB6F894DEBF0FBECDBF0E948900A3
:1050E0008C838091810389838091820390918303D3
:1050F0009B838A83109280038C810E94A2006A8124
:105100007B8189810E94462824960FB6F894DEBFE1
:105110000FBECDBFDF91CF910895CF93DF93CDB771
:10512000DEB729970FB6F894DEBF0FBECDBF8983D7
:105130007B836A831C821E820E9489008F838091F8
:105140008003882319F081E08E8303C081E080937F
:1051500080038F810E94A2008E81882319F0198616
:10516000188658C00E9489008F8310928403898119
:10517000809381038A819B81909383038093820330
:105180000E9448048EE380932F0080912E00882394
:105190000CF0FBCF80912F008D831C829C8180912D
:1051A00081039817C8F4E0918203F0918303808112
:1051B00080932F00809182039091830301969093B6
:1051C00083038093820380912E0088230CF0FBCF11
:1051D0008C818F5F8C83E2CF81E0809384038F8109
:1051E0000E94A2000E943C0465E084E698E20E94CE
:1051F000E413882359F40E9489008F83109280035E
:105200008F810E94A2001986188604C08D8199277B
:10521000998788878885998529960FB6F894DEBF87
:105220000FBECDBFDF91CF910895CF93DF93CDB760
:10523000DEB724970FB6F894DEBF0FBECDBF8983CB
:105240007B836A836A817B8189810E949C258C8310
:105250008C81992724960FB6F894DEBF0FBECDBF80
:10526000DF91CF910895CF93DF93CDB7DEB7249729
:105270000FB6F894DEBF0FBECDBF0E9489008C83AD
:1052800080917D03898380917E0390917F039B832E
:105290008A8310927C038C810E94A2006A817B81A8
:1052A00089810E94152924960FB6F894DEBF0FBE9F
:1052B000CDBFDF91CF910895CF93DF93CDB7DEB708
:1052C00029970FB6F894DEBF0FBECDBF89837B83CD
:1052D0006A831E820E9489008F8380917C038823C9
:1052E00019F081E08E8303C081E080937C038F817D
:1052F0000E94A2008E81882319F01986188678C032
:105300000E9489008F83109284038A819B819093ED
:105310007F0380937E030E9448048FE780932F00D1
:1053200080912E0088230CF0FBCF80912F008C837E
:1053300010922F0080912E0088230CF0FBCF8091DB
:105340002F0080937D0380917D03882399F1E09164
:105350007E03F0917F0380917D03808380917D03A4
:105360008F5F80937D0390917D038981891718F465
:10537000898180937D0381E08D839D8180917D0370
:105380009817C0F410922F0080912E0088230CF003
:10539000FBCF8D81282F332780917E0390917F034F
:1053A000F901E80FF91F80912F0080838D818F5FB5
:1053B0008D83E3CF81E0809384038F810E94A200DC
:1053C0000E943C0465E083E399E20E94E413882391
:1053D00059F40E9489008F8310927C038F810E9470
:1053E000A2001986188604C081E090E0998788871A
:1053F0008885998529960FB6F894DEBF0FBECDBF7C
:10540000DF91CF9108951F920F920FB60F92112442
:105410002F933F934F935F936F937F938F939F93BC
:10542000AF93BF93EF93FF93CF93DF93CDB7DEB7E7
:105430002197DEBFCDBF81E089830E94762A8983D0
:105440008981882351F4809159008F7B8093590082
:10545000809158008064809358002196F894DEBFB4
:10546000CDBFDF91CF91FF91EF91BF91AF919F9110
:105470008F917F916F915F914F913F912F910F90FD
:105480000FBE0F901F901895CF93DF93CDB7DEB767
:1054900022970FB6F894DEBF0FBECDBF89830E945E
:1054A00089008A8389810E947B02809159008064EF
:1054B000809359008A810E94A20081E090E02296A8
:1054C0000FB6F894DEBF0FBECDBFDF91CF91089528
:1054D000CF93DF93CDB7DEB7809159008F7B809358
:1054E000590081E090E0DF91CF910895CF93DF9351
:1054F000CDB7DEB721970FB6F894DEBF0FBECDBF94
:105500000E940D2589838981992721960FB6F894E9
:10551000DEBF0FBECDBFDF91CF910895CF93DF9354
:10552000CDB7DEB726970FB6F894DEBF0FBECDBF5E
:1055300089834A835B836C837D832A813B814C8191
:105540005D8169818AE00E9404158E838E8199278E
:1055500026960FB6F894DEBF0FBECDBFDF91CF9178
:105560000895CF93DF93CDB7DEB780E090E0DF9171
:10557000CF910895CF93DF93CDB7DEB721970FB6C4
:10558000F894DEBF0FBECDBF0E94B12A8983898106
:10559000992721960FB6F894DEBF0FBECDBFDF91DD
:1055A000CF910895CF93DF93CDB7DEB724970FB691
:1055B000F894DEBF0FBECDBF81E08A830E949104C4
:1055C00089839091860380918503981781F0998152
:1055D00080918503981759F40E94BA2A8A838A8198
:1055E000882329F481E090E09C838B830DC089811E
:1055F0008093860341E050E060E070E081E00E942B
:105600008E2A99279C838B838B819C8124960FB64D
:10561000F894DEBF0FBECDBFDF91CF910895CF9339
:10562000DF93CDB7DEB721970FB6F894DEBF0FBE7C
:10563000CDBF0E94B62189838981992721960FB613
:10564000F894DEBF0FBECDBFDF91CF910895CF9309
:10565000DF93CDB7DEB724970FB6F894DEBF0FBE49
:10566000CDBF81E08A830E94CD0389839091880316
:1056700080918703981781F099818091870398170B
:1056800059F40E940F2B8A838A81882329F481E0B0
:1056900090E09C838B830DC089818093880341E0D7
:1056A00050E060E070E081E00E948D2B99279C83A0
:1056B0008B838B819C8124960FB6F894DEBF0FBE3E
:1056C000CDBFDF91CF910895CF93DF93CDB7DEB7F4
:1056D00022970FB6F894DEBF0FBECDBF89830E941C
:1056E00089008A838981809387038A810E94A2002E
:1056F0000E94CD038093880341E050E060E070E0B9
:1057000081E00E948D2B992722960FB6F894DEBF78
:105710000FBECDBFDF91CF910895CF93DF93CDB76B
:10572000DEB726970FB6F894DEBF0FBECDBF8983D4
:105730004A835B836C837D832A813B814C815D81BD
:1057400069818BE00E9404158E838E8199272696AD
:105750000FB6F894DEBF0FBECDBFDF91CF91089595
:10576000CF93DF93CDB7DEB70E94FD2EDF91CF91AF
:105770000895CF93DF93CDB7DEB70E94132FDF914B
:10578000CF910895CF93DF93CDB7DEB721970FB6B2
:10579000F894DEBF0FBECDBF898389810E94C32FDD
:1057A00021960FB6F894DEBF0FBECDBFDF91CF912B
:1057B0000895CF93DF93CDB7DEB70E941F2FDF91FF
:1057C000CF910895CF93DF93CDB7DEB722970FB671
:1057D000F894DEBF0FBECDBF89830E9489008A8303
:1057E0000E94D92B89810E94C22B0E94B92B0E9452
:1057F000B02B8A810E94A20081E090E022960FB631
:10580000F894DEBF0FBECDBFDF91CF910895CF9347
:10581000DF93CDB7DEB70E94D92B81E090E0DF9116
:10582000CF910895CF93DF93CDB7DEB723970FB60F
:10583000F894DEBF0FBECDBF9A83898389819A8198
:105840000E9428278B838B81992723960FB6F89483
:10585000DEBF0FBECDBFDF91CF910895CF93DF9311
:10586000CDB7DEB721970FB6F894DEBF0FBECDBF20
:105870000E94B72F89838981992721960FB6F894C2
:10588000DEBF0FBECDBFDF91CF910895CF93DF93E1
:10589000CDB7DEB723970FB6F894DEBF0FBECDBFEE
:1058A0009A83898381E08B8389819A810E94122C5B
:1058B0008B838B81882319F40E94D92B06C00E9408
:1058C0002E2C882311F00E94B92B23960FB6F89442
:1058D000DEBF0FBECDBFDF91CF910895CF93DF9391
:1058E000CDB7DEB721970FB6F894DEBF0FBECDBFA0
:1058F00081E080938C030E94A8070E945A070E94AF
:10590000DA070E94CF020E9413030E9460040E94E3
:10591000A9030E94EE030E9430040E94BC040E946E
:10592000890089830E94DA070E94A8070E945A070B
:1059300080912E00816080932E0080912D008061E7
:1059400080932D0080912D00877F80932D00809182
:105950002D008B7F80932D0080912D008D7F809373
:105960002D0080912D008E7F80932D0080912D0041
:10597000806480932D0089810E94A20081E090E0E4
:1059800021960FB6F894DEBF0FBECDBFDF91CF9149
:105990000895CF93DF93CDB7DEB726970FB6F8946F
:1059A000DEBF0FBECDBF9A8389836B835D834C833B
:1059B0004C815D816B8189819A810E9481208E83D7
:1059C0008E81992726960FB6F894DEBF0FBECDBF05
:1059D000DF91CF910895CF93DF93CDB7DEB740919C
:1059E0008A0350918B036091890380918D0390917C
:1059F0008E030E94C92CDF91CF910895CF93DF933E
:105A0000CDB7DEB72A970FB6F894DEBF0FBECDBF75
:105A10009A8389836B835D834C831E8280918C0380
:105A2000882319F41A8619865FC00E948900888726
:105A300010928C0389819A8190938E0380938D03B9
:105A40008B81809389038C819D8190938B038093BC
:105A50008A030E94480480918D038F778068809329
:105A60002F0080912E0088230CF0FBCF80912F0017
:105A70008F8380918D0390918E0396958795807C7E
:105A800080932F0080912E0088230CF0FBCF809113
:105A90002F008F831E829E81809189039817B0F416
:105AA0008E81282F332780918A0390918B03F901EF
:105AB000E80FF91F808180932F0080912E008823AA
:105AC0000CF0FBCF8E818F5F8E83E5CF88850E949F
:105AD000A20081E080938C0365E08BEE9CE20E9443
