:100000000C9446000C9465000C9465000C946500FB
:100010000C9465000C9465000C9465000C94FA1027
:100020000C9465000C9465000C9465000C94C4134A
:100030000C942C140C9465000C9465000C94EA311B
:100040000C9465000C9465000C94B6080C94650043
:100050000C9465000C942F190C9465000C946500A9
:100060000C9465000C9465000C9457320C94650058
:100070000C9465000C9465000C9465000C9465006C
:100080000C9465000C9465000C94650011241FBE4F
:10009000CFEFD0E1DEBFCDBF11E0A0E0B1E0E4E101
:1000A000FDE900E00BBF02C007900D92AE35B1072D
:1000B000D9F71CE0AEE5B1E001C01D92A634B1074E
:1000C000E1F70E9415030C94884E0C94000078947C
:1000D0001092030525C00E944B4C60930405709359
:1000E000050580930605909307050E94990080E01E
:1000F00091E00E94A24A60910405709105058091EB
:100100000605909107050E940A4B0E943B4B88EE22
:1001100093E00E948B4C809103058F5F80930305D1
:10012000809103058436B8F20895E8E8FCEE09955D
:100130000895E0E8FCEE09950895E4E8FCEE0995E1
:100140000895ECE8FCEE09950895E0E9FCEE0995C8
:100150000895ECE9FCEE09950895E0EAFCEE0995B6
:100160000895E4E9FCEE09950895E8E9FCEE0995A7
:1001700008950E945819E0912E09F0912F09968F49
:10018000858F08950E946319E0912E09F0912F093F
:10019000968F858F08950E946E19E0912E09F09137
:1001A0002F09968F858F08950E947719E0912E0967
:1001B000F0912F09968F858F08950E948019E09104
:1001C0002E09F0912F09968F858F08950E94891925
:1001D000E0912E09F0912F09968F858F08958EE575
:1001E00091E0089560916001709161014091620118
:1001F0005091630180915E0190915F010E94B51A58
:100200000895609160017091610140916201509187
:10021000630180915E0190915F010E94B81A089578
:1002200060912C0570912D0540911105509112059A
:1002300080910A0590910B050E94311F87E064E0D0
:100240000E94EE18089560912C0570912D05409143
:1002500011055091120580910A0590910B050E949D
:10026000481E87E063E00E94EE18089580910A0519
:1002700090910B050E946C1D87E062E00E94EE18D1
:10028000089585E195E06CE075E00E94071DE0911E
:100290001305F091140592A381A387E061E00E9409
:1002A000EE18089585E195E008958CE095E00895B5
:1002B00080912E0990912F09909314058093130536
:1002C00081E491E065E00E94AB140895E0912E096D
:1002D000F0912F0981A192A190930B0580930A05BB
:1002E00086E391E065E00E94AB140895E0912E0949
:1002F000F0912F0981A192A190930B0580930A059B
:1003000083A194A190932D0580932C0585A196A19E
:10031000909312058093110583E291E065E00E94BD
:10032000AB140895E0912E09F0912F0981A192A1BB
:1003300090930B0580930A0583A194A190932D05BA
:1003400080932C0585A196A19093120580931105A9
:1003500080E191E065E00E94AB140895A0912E0920
:10036000B0912F099196ED91FC919297E0930A0537
:10037000F0930B0593964D915C91949750932B05B8
:1003800040932A0595962D913C91969730930905B7
:1003900020930805662757FD6095762FCF010E94B0
:1003A000721D0895DF93CF9300D0CDB7DEB7842FB1
:1003B000952F9A83898389819A810E94A40B0F903B
:1003C0000F90CF91DF910895DF93CF9300D0CDB7F9
:1003D000DEB7842F952F9A83898389819A810E9421
:1003E000BD0B0F900F90CF91DF910895DF93CF93C6
:1003F00000D0CDB7DEB7842F952F9A83898389816A
:100400009A810E94C70B0F900F90CF91DF910895B2
:100410008BE392E069E00E94AB1484E190E00E94DB
:10042000E9170E943F0A08958AE395E008958EE255
:1004300095E00895EF92FF920F931F93409131053D
:1004400050913205209133053091340500913505E6
:1004500010913605E0903805F090390580912E0511
:1004600090912F05609130050E94650A1F910F91B0
:10047000FF90EF90089580913E05882341F480918C
:100480003F05909140050E94F73680933E056091AC
:100490003F05709140058BE495E040913E050E9438
:1004A000673660913C0570913D0521E435E06115AA
:1004B000710549F080913A0590913B0540913E05C8
:1004C0000E94B809089580913E0580934105F90185
:1004D0001782168280913A0590913B05918780871B
:1004E0001092AF051092B005B9010E94B50A0895A7
:1004F00090933B0580933A0570933D0560933C05CE
:1005000040933E053093400520933F058BE392E0F6
:1005100069E00E94AB1484E190E00E94E9170E9418
:100520003F0A08958EE299E0089580E399E00895E6
:1005300080936401609365011092B6051092B50531
:100540005093B8054093B7058EE061E028EE33E0A4
:1005500040E050E00E94C43208952091B7053091E8
:10056000B80540E050E08FE060E00E94C43208959A
:100570001F93CF93DF93EC01162F0E948133DC0190
:10058000CB012091B605E22FF0E033E0EE0FFF1F24
:100590003A95E1F7E754FA4F1283138284839583E7
:1005A000A683B783D183C083822F8F5F8093B605E4
:1005B000803411F41092B605DF91CF911F91089508
:1005C0002091B5058091B605281771F130E043E020
:1005D000220F331F4A95E1F727543A4F8AE090E003
:1005E0006FEF7FEF40E450E00E94B8096091B505DD
:1005F000862F90E07091B605AC01495F5F4F272FC1
:1006000030E04217530744F0761750F488339105D1
:100610001CF01092B5050895685F6093B5050895C4
:10062000671710F47093B5050895AF92BF92CF92FB
:10063000DF92EF92FF920F930E946B060E943B198C
:100640000E9499140E9430150E9447070E94921937
:100650000E94DB190E94201A0E94651A8CEC97E018
:1006600063E171E048E00E94673689EB97E06CE156
:1006700071E047E00E94673688E090E09093CB07F6
:100680008093CA078091CA079091CB079093670126
:10069000809366016AE070E00E948C4D605D60931B
:1006A000BD07805D8093BE070E94322E0E947E1A95
:1006B00080E29CE060E170E04CEC57E00E94B81AE8
:1006C00085E39CE060E170E049EB57E00E94B81AD6
:1006D00080916601909167010E94BD030E94DB1921
:1006E0000E94201A0E94651A8091CA079091CB0738
:1006F0000E94434E0E94A1320E9484330E94A309AB
:100700000E94B3090E945A0A0E94114085E10E948A
:10071000BD0B8FE10E94C70B85E190E063E170E0C3
:1007200040EA5FE00E94980285EE90E46AE97AE090
:1007300048E95BE020E030E00FE0F4E2EF2EF1E08A
:10074000FF2ECC24DD24AA24BB240E945F1587E65B
:1007500090E069E074E041E055E020E030E0EDE257
:10076000EE2EE1E0FE2E0E945F150E94DD030E9446
:10077000E314FDCF89EB97E00895BC018EE49CE083
:100780000E94D61A08958EE49CE00E94C41A08952F
:10079000682F84E59CE00E94D01A089584E59CE0CF
:1007A0000E94BE1A0895000000000895789488956C
:1007B0000E94D30308958895089578940895F89435
:1007C00008958FB7F89408958FBF0895E0E0F0E0A2
:1007D0000995089500000000089509C00000000078
:1007E0000000000000000000000000000197181643
:1007F0001906A4F30895DA9A0895DA98089521E085
:1008000030E0CA9902C020E030E0C9010895D29AD0
:100810000895D2980895D99A0895D998089521E015
:1008200030E0C99902C020E030E0C9010895D19AB2
:100830000895D1980895D89A0895D898089529B31D
:1008400030E021703070C9010895D09A0895D09891
:100850000895DC9A0895DC98089521E030E0CC9961
:1008600002C020E030E0C9010895D49A0895D498D8
:100870000895DD9A0895DD98089521E030E0CD993E
:1008800002C020E030E0C9010895D59A0895D598B6
:100890000895DF9A0895DF98089589B3992787FD11
:1008A0009095892F881F8827881F90E00895D79AF0
:1008B0000895D7980895DB9A0895DB98089521E06C
:1008C00030E0CB9902C020E030E0C9010895D39A0E
:1008D0000895D3980895959A08959598089521E0DC
:1008E00030E0859902C020E030E0C90108958D9A7A
:1008F00008958D980895939A08959398089521E006
:1009000030E0839902C020E030E0C90108958B9A5D
:1009100008958B980895929A08959298089521E0E9
:1009200030E0829902C020E030E0C90108958A9A3F
:1009300008958A9808951C9A08951C98089521E0B6
:1009400030E00C9902C020E030E0C9010895149A0B
:100950000895149808951D9A08951D98089521E00A
:1009600030E00D9902C020E030E0C9010895159AE9
:100970000895159808951E9A08951E98089521E0E7
:1009800030E00E9902C020E030E0C9010895169AC7
:100990000895169808951F9A08951F98089581B193
:1009A000992787FD9095892F881F8827881F90E0B9
:1009B0000895179A089517980895C29A0895C298AD
:1009C000089521E030E0B29902C020E030E0C90192
:1009D0000895BA9A0895BA980895C39A0895C39845
:1009E000089521E030E0B39902C020E030E0C90171
:1009F0000895BB9A0895BB980895C19A0895C19827
:100A0000089521E030E0B19902C020E030E0C90152
:100A10000895B99A0895B9980895A89A0895A8983C
:100A2000089523B330E021703070C9010895A09A71
:100A30000895A0980895A99A0895A998089521E085
:100A400030E0999902C020E030E0C9010895A19AF0
:100A50000895A1980895AA9A0895AA98089521E062
:100A600030E09A9902C020E030E0C9010895A29ACE
:100A70000895A2980895AB9A0895AB98089521E03F
:100A800030E09B9902C020E030E0C9010895A39AAC
:100A90000895A3980895AC9A0895AC98089521E01C
:100AA00030E09C9902C020E030E0C9010895A49A8A
:100AB0000895A4980895AD9A0895AD98089521E0F9
:100AC00030E09D9902C020E030E0C9010895A59A68
:100AD0000895A5980895AE9A0895AE98089521E0D6
:100AE00030E09E9902C020E030E0C9010895A69A46
:100AF0000895A6980895AF9A0895AF98089583B37E
:100B0000992787FD9095892F881F8827881F90E057
:100B10000895A79A0895A7980895909A089590988F
:100B2000089520B330E021703070C9010895889A8B
:100B3000089588980895919A08959198089521E0CC
:100B400030E0819902C020E030E0C9010895899A1F
:100B5000089589980895189A08951898089521B1CC
:100B600030E021703070C9010895109A08951098EE
:100B70000895199A08951998089521E030E0099987
:100B800002C020E030E0C9010895119A089511983B
:100B900008951A9A08951A98089521E030E00A9964
:100BA00002C020E030E0C9010895129A0895129819
:100BB00008951B9A08951B98089521E030E00B9941
:100BC00002C020E030E0C9010895139A08951398F7
:100BD0000895929A08959298089521E030E08299BC
:100BE00002C020E030E0C90108958A9A08958A98E9
:100BF0000895939A08959398089521E030E0839999
:100C000002C020E030E0C90108958B9A08958B98C6
:100C10000895959A08959598089521E030E0859972
:100C200002C020E030E0C90108958D9A08958D98A2
:100C300008950E94CB0408950E94CD04089581B1C7
:100C4000881F8827881F08950E94D90408950E944C
:100C5000DB0408950E94AB0408950E94AD0408953A
:100C60000E94AF0408950E94B70408950E94B90439
:100C700008950E94BB0408950E94BD0408950E9437
:100C8000BF0408950E94C70408950E94C9040895EE
:100C90000E943B0508950E943D05089508950E9415
:100CA0002B0508950E942D05089508950E944B0577
:100CB00008950E944D05089508950E945B050895CA
:100CC0000E945D05089508950E946B0508950E9495
:100CD0006D05089508950E9407040E9425040E944E
:100CE00017040E9489050E9477050E9467050E94EB
:100CF00057050E9447050E9437050E9427050E945C
:100D000017050E9437040E942B040E9467040E946A
:100D100087040E9477040E945B040E94FB030E94E8
:100D20001B040E940B0408959AB790629ABF88230F
:100D300019F08AB7806102C08AB78F7E8ABF089592
:100D4000DE9A0895DE98089521E030E0CE9902C041
:100D500020E030E0C9010895D69A0895D698089504
:100D6000DD9A0895DD98089521E030E0CD9902C024
:100D700020E030E0C9010895D59A0895D5980895E6
:100D80001E9A08951E98089521E030E00E9902C041
:100D900020E030E0C9010895169A08951698089544
:100DA0001E9A08951E98089521E030E00E9902C021
:100DB00020E030E0C9010895169A08951698089524
:100DC000969A08959698089521E030E0869902C099
:100DD00020E030E0C90108958E9A08958E98089514
:100DE000949A08959498089521E030E0849902C07F
:100DF00020E030E0C90108958C9A08958C980895F8
:100E0000C09A0895C098089526B330E021703070DC
:100E1000C9010895B89A0895B8980895C79A089591
:100E2000C798089586B3992787FD9095892F881FC5
:100E30008827881F90E00895BF9A0895BF98089565
:100E4000969A08959698089521E030E0869902C018
:100E500020E030E0C90108958E9A08958E98089593
:100E60000E94FB040E94E9040E9409050E94AC064E
:100E70000E94BC060E940C070E94DE060E94EE063D
:100E80000E94FE060E941E070E942E0708951092DF
:100E900090008FE089B9599AE5E9F0E08081866099
:100EA00080838AB188698AB981E080938D0310922A
:100EB0008E0310928F030895DF93CF930F92CDB7D7
:100EC000DEB790918D03992321F489830E9447070F
:100ED00089815D9BFECF8CB90F90CF91DF910895F2
:100EE000DF93CF930F92CDB7DEB790918D03992307
:100EF00021F489830E94470789815D9BFECF8CB9CD
:100F00000F90CF91DF910895EF92FF920F931F936F
:100F1000DF93CF930F92CDB7DEB7182F8CEF998365
:100F20000E945C079981612F792F8B0102C00E947A
:100F30005C07F80181918F018823C9F78CEF0E942B
:100F40005C070F90CF91DF911F910F91FF90EF9071
:100F50000895EF92FF920F931F93DF93CF930F9219
:100F6000CDB7DEB7182F062F8CEF99830E945C0750
:100F70009981612F792F7B0105C0F70181917F0154
:100F80000E945C078E2D811B8017B8F38CEF0E94A6
:100F90005C070F90CF91DF911F910F91FF90EF9021
:100FA0000895EF92FF921F93DF93CF930F92CDB7E7
:100FB000DEB7182FE12FF92F7F0107C0F7018191CC
:100FC0007F0169830E94700769818E2D811B8617BE
:100FD000A8F30F90CF91DF911F91FF90EF900895AC
:100FE0008A3010F0895A01C0805D0E945C07089524
:100FF000DF93CF9300D000D0CDB7DEB769837A837B
:101000008B839C838C810E945C078B810E945C0790
:101010008A810E945C0789810E945C070F900F9073
:101020000F900F90CF91DF9108951F93182F829505
:101030008F700E94F007812F8F700E94F0071F9120
:101040000895EF92FF920F931F937B018C018DEF18
:101050000E945C07C801B7010E94F8078DEF0E944B
:101060005C071F910F91FF90EF900895EF92FF9210
:101070000F931F937B018C018EEF0E945C07C801C8
:10108000B7010E94F8078EEF0E945C071F910F9135
:10109000FF90EF9008958CEF0E945C078DE60E9410
:1010A0005C078DE60E945C078DE60E945C078CEF72
:1010B0000E945C070895DF93CF9300D000D0CDB796
:1010C000DEB769837A838B839C8380E30E945C070D
:1010D00088E70E945C078C810E9415088B810E9422
:1010E00015088A810E94150889810E9415080F90B1
:1010F0000F900F900F90CF91DF9108952F923F9214
:101100004F925F926F927F928F929F92AF92BF9217
:10111000CF92DF92EF92FF920F931F931B012C014E
:1011200039014A0181E00E945C07C201B1010E94BD
:101130005B08C401B3010E945B08C801B7010E94AB
:101140005B08C601B5010E945B081F910F91FF90DB
:10115000EF90DF90CF90BF90AF909F908F907F9057
:101160006F905F904F903F902F9008951F920F9235
:101170000FB60F920BB60F921124FF920F931F938D
:101180002F933F934F935F936F937F938F939F938F
:10119000AF93BF93EF93FF930CB10E944837F82EA3
:1011A0000E94F4190E94391A0E945315882371F085
:1011B0002DB73EB73093AD092093AC092091280993
:1011C000309129093EBF2DBF11E001C010E08F2DE5
:1011D0000E944B370136B9F40E9448375F9BFECF1F
:1011E0009CB15F9BFECF2CB1ECE6F3E0205330E0E6
:1011F0002E0F3F1F04C05F9BFECF9CB19193E2175F
:10120000F307C9F70EC00A3771F40E944837ECE6BD
:10121000F3E05F9BFECF9CB1919393E0ED38F9072B
:10122000C1F70E944B370E944837113061F42DB747
:101230003EB730932909209328092091AC093091B9
:10124000AD093EBF2DBF0E944B37FF91EF91BF917B
:10125000AF919F918F917F916F915F914F913F914E
:101260002F911F910F91FF900F900BBE0F900FBE0B
:101270000F901F9018951F93CF93DF93EC010E945E
:101280004837182F0E94BA030E9484078AE491E02D
:101290000E948407CE010E948407812F0E944B3751
:1012A000DF91CF911F910895DF93CF930F92CDB728
:1012B000DEB70E94483789830E944B0889810E94CB
:1012C0004B370F90CF91DF910895DF92EF92FF920D
:1012D0000F931F937B018C010E944837D82E0E94E8
:1012E000BA030E9484078AE491E00E948407C8013F
:1012F000B7010E9421088D2D0E944B371F910F913D
:10130000FF90EF90DF900895DF92EF92FF920F939E
:101310001F937B018C010E944837D82E0E94BA038C
:101320000E9484078AE491E00E948407C801B70103
:101330000E9436088D2D0E944B371F910F91FF9010
:10134000EF90DF9008950E94600D1092DD071092DB
:10135000E3071092E2071092DF071092DE0708956C
:101360000E94B30D08950E94B30D1092DD070895F9
:10137000CF92DF92EF92FF920F931F93DF93CF9361
:101380000F92CDB7DEB77C016B0189018091DD073B
:10139000882301F581E08093DD07453618F010922F
:1013A000DD0718C08FE49AE064E149830E94AB1422
:1013B0004981882319F41092DD070DC01093E507C9
:1013C0000093E407F8014083D782C682F186E08665
:1013D00081E001C080E00F90CF91DF911F910F91CC
:1013E000FF90EF90DF90CF90089581E0089580E026
:1013F000089581E0089581E00895CB010895CB011F
:101400000895EF92FF92CF93DF93EC012091CA07EA
:101410003091CB079093E1078093E0078091DE073E
:101420009091DF0701969093DF078093DE07FE011E
:10143000E059FF4F8081813089F48E819F814FEF89
:101440008F3F940719F08217930741F48885998597
:10145000BE010E94B50A009709F0EC01CE01DF91B0
:10146000CF91FF90EF9008950E94010A0895109285
:10147000DD0781E008951092DD0781E00895109264
:10148000DD070E94EF0F0895CF93DF93EC010E94D8
:101490003F0ACE010E945B0EDF91CF9108958091AB
:1014A000E4079091E5070E94440A882311F4109202
:1014B000DD0708951092F1071092FD0710920908B8
:1014C00010921508109221080895EF92FF920F9341
:1014D0001F93E1EFF7E0A0E0B0E070817723C9F45B
:1014E000FD01EE0FFF1FEA0FFB1FEE0FFF1FEE0FB8
:1014F000FF1FE851F84F91838083628354834383B5
:101500003683258310870783F386E28681E081870F
:1015100005C011963C96A530B105F9F61F910F91C3
:10152000FF90EF900895E8EEF7E020E030E041858D
:101530004130A1F4408151814817590779F4F901EC
:10154000EE0FFF1FE20FF31FEE0FFF1FEE0FFF1F47
:10155000E851F84F11861182108208952F5F3F4F96
:101560003C962530310519F70895FF920F931F938C
:10157000CF93DF938B017093E7076093E607E8EE64
:10158000F7E0C0E0D0E0208131812817390709F069
:101590005EC02185213009F05AC0FE01EE0FFF1F09
:1015A000EC0FFD1FEE0FFF1FEE0FFF1FE851F84F6E
:1015B00025813681D8018C91F2808F1508F4F82EA0
:1015C000F8013A9680E005C09191D9019D939D0163
:1015D0008F5F8F15C9F7FE01EE0FFF1FEC0FFD1F88
:1015E000EE0FFF1FEE0FFF1FE851F84F0780F08549
:1015F000E02D309751F0D801A259BF4F8C918083D4
:10160000D801A159BF4F8C918183FE01EE0FFF1FBE
:10161000EC0FFD1FEE0FFF1FEE0FFF1FE851F84FFD
:1016200082859385009719F066E00E94AB14FE0155
:10163000EE0FFF1FEC0FFD1FEE0FFF1FEE0FFF1F42
:10164000E851F84F0380F481E02DF08206C0219626
:101650003C96C530D10509F096CFC801DF91CF91F6
:101660001F910F91FF900895E8EEF7E0218521305A
:1016700059F4238134816217730730F02817390732
:1016800018F01186118210823C9628E0E432F207AD
:1016900069F708950E945E0D08950E94A1110895B2
:1016A0000E94B00688E592E00E94ED0381E0089573
:1016B0000E94B20688E592E00E94ED0381E0089561
:1016C0000E945E0D08950E94DD1208950E94AC12E2
:1016D00008958DE168E170E00E94AC1281E00E9403
:1016E000A11181E00E94DD1281E008950E947B1328
:1016F00008951F930E94483790912408923029F44E
:1017000093E09093240811E001C010E00E944B3751
:10171000112379F00E947B130E94500B0E94A206B5
:101720000E94D3030E94A0060E94D3030E94690B6B
:1017300001C080E01F91089583E00E94DD1281E0E6
:1017400008950E94E30D0895BC0160507840809197
:1017500036089091370880709C7F682B792B7093A6
:1017600037086093360888E10E94AC1286FF03C0F8
:1017700083E00E94DD1281E0089595E0899FC00119
:101780001124825D964F0E94A40B81E0089590E0A1
:101790008F7190702091300830913108207E822B1B
:1017A000932B9093310880933008609136087091A4
:1017B000370885E10E94AC1286FF03C083E00E94D7
:1017C000DD1281E0089581E008950E94511208958C
:1017D000DF93CF9300D0CDB7DEB79A8389830E9481
:1017E00031369A8389838AE691E062E0AE014F5FE9
:1017F0005F4F0E9451120F900F90CF91DF9108958B
:101800000E94F8120895609126087091270880E1DF
:101810000E94AC12609128087091290881E10E9411
:10182000AC1281E10E94F812209128083091290819
:101830008217930709F055C060912A0870912B0810
:1018400082E10E94AC1260912C0870912D0883E116
:101850000E94AC1260912E0870912F0884E10E94C2
:10186000AC12609130087091310885E10E94AC1291
:10187000609132087091330886E10E94AC12609149
:1018800034087091350887E10E94AC1260913608E7
:101890007091370888E10E94AC126091380870910D
:1018A000390889E10E94AC1260913A0870913B08B6
:1018B0008AE10E94AC1260913E0870913F088CE171
:1018C0000E94AC1260914008709141088DE10E9425
:1018D000AC1289E00E94DD1288E00E94DD1281E0F6
:1018E000089580E008950E94030C8091CA079091AA
:1018F000CB070E94E80B80913608909137089170D1
:101900008050984F0E94A40B0E94483794E0909317
:1019100024080E944B370E94E30D08958DE160E09A
:1019200070E00E94AC1283E79CE065E00E94AB147B
:1019300080E008951F930E941A12182F0E943113FD
:10194000682F812F0E942E371F9108951F930E94A8
:10195000483710912408109224089BE09093420885
:101960009FE1909325080E944B37112309F068C02E
:101970000E949A0C80E098EF9093270880932608A5
:1019800082EE92E0909329088093280880E095E009
:1019900090932B0880932A0880E890EE90932D086E
:1019A00080932C088FE097EA90932F0880932E085D
:1019B0008091250890E0806E906690933108809326
:1019C000300885EE92E1909333088093320886E5E3
:1019D0009AE090933508809334089091420885E00E
:1019E000989FC0011124825D9E4F906490933708A8
:1019F0008093360884EC91E09093390880933808FE
:101A000010923B0810923A0810923D0810923C0840
:101A10008FE792E090933F0880933E081092410830
:101A2000109240080E94483792E0909324080E9448
:101A30004B378AE49BE065E00E94AB1481E001C073
:101A400080E01F910895CF93DF930E94483792E082
:101A50009093C108C091BF08D091C00898819B5055
:101A600098830E944B37CE0161E00E94370ADF91D4
:101A7000CF910895CF93DF930E944837C0914308D8
:101A8000D09144080E944B37CE010E94340AEC01E9
:101A90000E944837209721F0D0934408C093430810
:101AA000E0914308F09144081082109246080E9489
:101AB0004B37DF91CF91089581E0089581E008953B
:101AC0000E9448371092C108109245081092BB0836
:101AD0001092460827E438E03093440820934308E6
:101AE000109247080E944B378091CA079091CB070C
:101AF0009093BE088093BD080E94A60C08950E9492
:101B0000790B08951F930E9448371091C1080E94D5
:101B10004B37112389F40E9448379AE09093C1080B
:101B20001092BC08E0914308F091440810820E9492
:101B30004B370E94790B01C080E01F9108951F93DD
:101B40000E9448379091C108913021F41092C10849
:101B500011E001C010E00E944B37113011F40E94D7
:101B6000820D1F9108950F931F930E944837182FDD
:101B70008091C108882361F48FE99DE065E00E94AF
:101B8000AB14882329F081E08093C10801E001C0F3
:101B900000E0812F0E944B37802F1F910F910895F5
:101BA00081E0089581E008950E94DF1108950E9468
:101BB000DD1208950E94241008950E94591108957D
:101BC0000E949C0B08951F930E9448371091C108F2
:101BD0000E944B371A3079F40E949C0B80E00E94DF
:101BE000591181E00E94DF110E94483792E09093E2
:101BF000C1080E944B3781E01F9108950E94F8129E
:101C000008950E946C1108950E94340A08950E945C
:101C1000861008950E94370A08950E94F5110895CC
:101C20000E94483792E09093C1080E944B37809100
:101C3000BF089091C008FC0120812B50208360E0F8
:101C40000E94370A0895CF93DF93EC018091C10879
:101C5000833019F0843059F519C080E00E94DF11FB
:101C60000E94F406009719F40E94F51103C084E065
:101C70008093C108E091BF08F091C008EE58FF4F73
:101C8000D183C0838091C108843089F086E080933D
:101C9000C1080E94F51181E00E94DF1183E29DE0FE
:101CA00065E00E94AB14882311F40E94100E81E0BD
:101CB000DF91CF9108951F93CF93DF93EC010E94A2
:101CC00048371091C1080E944B371230F1F588E077
:101CD0008A838091BB08882311F081E201C081E0F2
:101CE00089838FEF9FEF9D838C838E819F810E94DC
:101CF00031369F838E838881855F888380914508F4
:101D00008F5F809345088B83FE01EE58FF4F118251
:101D10001082888182508093C208D093C008C093FB
:101D2000BF0888E08093BC080E94483795E09093F4
:101D3000C1080E944B378CEA9EE065E00E94AB141C
:101D4000882329F40E94100E02C080E001C081E0C7
:101D5000DF91CF911F91089589E00E94DD128823C1
:101D600019F40E94100E08958091C2086091BF0876
:101D70007091C0088F5F0E942410882311F40E9484
:101D8000100E089585E00E94DD1280E00E94DD12B1
:101D900086958695869580FF04C081E00E94DF11BC
:101DA00008950E94100E08950E946C118FE30E9406
:101DB000F81288E00E94DD1288E00E94DD120E9485
:101DC0004837109246080E944B3780E00E94591114
:101DD00008951F93CF93DF93182FEB010E9448378C
:101DE0000E944B370E941207009721F40E94C406FC
:101DF0000097A1F0112391F0113780F4D09344089B
:101E0000C093430889818770813041F48A8188308A
:101E100029F488818B508883853648F00E94D40E3F
:101E20000E944837109246080E944B374AC08E8164
:101E30009F810E9443369F838E8320914308309177
:101E40004408812F90E0FC013197EC0FFD1FD90170
:101E5000A059BF4F4081441F4427441F4C93D901D0
:101E6000A259BF4FC80FD91F229788818C9321593F
:101E70003F4F80818F77F90180830E944837182F68
:101E80008AE39DE065E00E94AB14882311F4109270
:101E90004608812F0E944B370E941207009721F4B9
:101EA0000E94C406009759F00E94C406009739F4B6
:101EB0008AEE9FE065E00E94AB14882311F40E9433
:101EC000D40E81E0DF91CF911F9108951F930E945E
:101ED0001207009719F40E94D40E12C00E944837CE
:101EE000182F8AEE9FE065E00E94AB14882319F05A
:101EF0000E946C1102C00E94D40E812F0E944B37A9
:101F000081E01F9108951F930E9448371091C108E6
:101F10000E944B371530C1F40E941207009731F42C
:101F20000E94C406009711F40E94D40E0E94240758
:101F3000009761F00E94483793E09093C1080E9497
:101F40004B370E94C20E02C00E94D40E1F9108950A
:101F50000E94830F81E008950F931F930E94120740
:101F6000009721F40E94C406009779F10E94483737
:101F7000082F10914608112351F08AEE9FE065E08A
:101F80000E94AB14882331F40E94D40E03C081E078
:101F900080934608802F0E944B371123B1F4609143
:101FA00043087091440880E70E948610882369F4F2
:101FB0000E944837109246080E944B378AEE9FE0F5
:101FC00065E00E94AB14882311F40E94D40E1F9187
:101FD0000F9108950E94AC0F089581E0089582E06A
:101FE0008093C10808951F93CF93DF930E944837D1
:101FF0001091CB08C091C508D091C6081092CA08AC
:102000000E944B37812FBE010E94E90EDF91CF91D4
:102010001F9108951F93CF93DF930E94483710912B
:10202000C308C091C808D091C9081092C7080E947F
:102030004B37812FBE010E94A80FDF91CF911F91D6
:1020400008950E94A80F0895EF92FF920F931F9397
:10205000DF93CF930F92CDB7DEB7182F7B010E948D
:1020600048379091C708992329F491E09093C708C5
:1020700000E001C001E00E944B370023D1F50E942F
:1020800048371092C4081093C308F092C908E09230
:10209000C80889830E9402079EE39FB98981779BC4
:1020A000FECF1FB190E00DC0E091C808F091C908C3
:1020B00021912FB9F093C908E093C808779BFECF10
:1020C0009F5F2091C308921778F391E09093C40822
:1020D0000E944B370E9400078AE090E165E00E9471
:1020E000AB14882339F40E9448371092C7080E9425
:1020F0004B3710E0812F0F90CF91DF911F910F91FF
:10210000FF90EF9008950E94E90E0895EF92FF92DC
:102110000F931F93DF93CF930F92CDB7DEB7182F96
:102120007B010E9448379091CA08992329F491E0D5
:102130009093CA0800E001C001E00E944B370023E1
:1021400009F04DC00E9448371092C408F092C608AA
:10215000E092C50889830E9402079FE79FB98981A1
:10216000779BFECF9FB11FB8779BFECF9FB1909317
:10217000CB08992301F1E091C508F091C60890833E
:102180009091CB089F5F9093CB08191710F4109390
:10219000CB0891E00CC01FB8779BFECF2FB1E09128
:1021A000C508F091C608E90FF11D20839F5F2091BB
:1021B000CB08921780F391E09093C4080E944B37AC
:1021C0000E94000783EF9FE065E00E94AB14882324
:1021D00041F40E9448371092CA080E944B3780E0B1
:1021E00001C081E00F90CF91DF911F910F91FF907F
:1021F000EF9008951F920F920FB60F920BB60F92A9
:1022000011240F931F932F933F934F935F936F93DB
:102210007F938F939F93AF93BF93EF93FF930E940E
:102220004837082F0E945315882371F02DB73EB709
:102230003093AD092093AC092091280930912909E8
:102240003EBF2DBF11E001C010E0802F0E944B3730
:102250000E94660F882331F489B78F7B89BF88B7C6
:10226000806488BF0E944837113061F42DB73EB7B3
:1022700030932909209328092091AC093091AD09A8
:102280003EBF2DBF0E944B37FF91EF91BF91AF91A1
:102290009F918F917F916F915F914F913F912F917E
:1022A0001F910F910F900BBE0F900FBE0F901F90BC
:1022B00018950F931F93082F0E944837182F802FCF
:1022C0000E94940689B7806489BF812F0E944B3792
:1022D00081E01F910F91089589B78F7B89BF81E0BD
:1022E00008950E94660F0895982F9A01AB018AE025
:1022F000692F0E94C432089580E0089580E0089517
:102300000E9412079091CC082091D308291711F050
:10231000891751F08093D30881E041E050E060E0FC
:1023200070E00E947411089581E008950E948E0C5F
:102330000895982F9A01AB018BE0692F0E94C43257
:1023400008951F93182F0E9448371093D5080E94B4
:102350004B370E94E4068093D40881E041E050E0CE
:1023600060E070E00E9499111F9108951F930E94F0
:10237000E406182F8091D5089091D408981731F071
:10238000181721F40E948E0C882351F01093D40862
:1023900081E041E050E060E070E00E94991101C0EE
:1023A00081E01F9108950E94981308950E94A2133E
:1023B00008950E94201408950E94A61308950F9373
:1023C0001F93082F0E944837182F0E94A613802FB2
:1023D0000E9420140E94A2130E949813812F0E9431
:1023E0004B3781E01F910F9108950E94A61381E061
:1023F00008950E94230E08950E941D1408950E94BE
:10240000230E882319F40E94A61308950E941D1418
:10241000882311F00E94A21308954091DD08509185
:10242000DE088091E0089091E1086091DC080E944C
:10243000E30B0895DF93CF930F92CDB7DEB781E022
:102440008093DF080E94FB040E94E9040E940905B2
:102450000E94AC060E94BC060E940A070E94DE068B
:102460000E94EE060E94FE060E941E070E94483748
:1024700089830E9409050E94FB040E94E904709A66
:102480006C9A6B986A98699868986E9A89810E948C
:102490004B3781E00F90CF91DF9108950E94E30BBD
:1024A0000895EF92FF920F931F93DF93CF930F92B4
:1024B000CDB7DEB77C018A018091DF08882309F45B
:1024C00042C069830E9448371092DF08F092E10809
:1024D000E092E00869816093DC081093DE080093C5
:1024E000DD0889830E9402079091E00890689FB9F7
:1024F0008981779BFECF9FB12091E0083091E10860
:1025000036952795207C2FB9779BFECF9FB190E021
:102510000BC0E091DD08F091DE08E90FF11D20818C
:102520002FB9779BFECF9F5F2091DC08921788F32D
:102530000E944B3781E08093DF088DE092E165E0F7
:102540000E94AB1401C080E00F90CF91DF911F91EA
:102550000F91FF90EF9008950F931F93DF93CF9308
:1025600000D00F92CDB7DEB7182F6A837B830E940D
:1025700048371092DF0889830E9402071FB98981BA
:102580007B816A81779BFECF0FB11F3030F07FB91E
:10259000779BFECF6FB9779BFECF91E09093DF08DA
:1025A0000E944B370E940007802F0F900F900F90D2
:1025B000CF91DF911F910F9108951F93DF93CF93D8
:1025C0000F92CDB7DEB7182F0E94483789830E943B
:1025D00002071FB98981779BFECF1FB10E944B373D
:1025E0000E940007812F0F90CF91DF911F910895D6
:1025F000CF92DF92EF92FF921F93DF93CF930F92D0
:10260000CDB7DEB7182F0E9448371092DF088983B4
:102610000E94020710641FB98981779BFECF9FB18A
:102620001FB8779BFECF9FB11FB8779BFECFD92EE7
:10263000CC241FB189830E94000791E09093DF08AA
:1026400089810E944B37212F30E02C293D29C90177
:102650000F90CF91DF911F91FF90EF90DF90CF907F
:1026600008950E94483794E09093F2082FEF30E0ED
:102670003093F1082093F0080E944B3781E00895D1
:102680000F931F93DF93CF930F92CDB7DEB78C01DB
:10269000677069830E9448371FBC97B79F7E97BFBA
:1026A00097B79B7F97BF97B79F7D97BF1DBC1CBCFB
:1026B0001BBD0ABD96B7906196BF698168606EBD0B
:1026C0000E944B3781E00F90CF91DF911F910F91C6
:1026D0000895CF93DF930E944837C091F008D091BE
:1026E000F1080E944B37CE0160E00E94401381E068
:1026F000DF91CF9108950F931F93DF93CF930F92A4
:10270000CDB7DEB70E9448370091F0081091F1086C
:102710006091F20869830E944B37C80169810E9469
:10272000401381E00F90CF91DF911F910F91089599
:102730008EB58F7E8EBD8EB5877F8EBD87B780624A
:1027400087BF089586B7846086BF089587B78F7D59
:1027500087BF86B7806286BF089581E0089581E0D3
:102760000895EF92FF92CF93DF930E944837C6B54A
:10277000D7B50E944B37CE01DF91CF91FF90EF90FC
:1027800008950E94FF1108951F920F920FB60F92A5
:102790000BB60F9211240F931F932F933F934F93D8
:1027A0005F936F937F938F939F93AF93BF93EF93B9
:1027B000FF930E944837082F0E945315882371F019
:1027C0002DB73EB73093AD092093AC09209128096D
:1027D000309129093EBF2DBF11E001C010E0802FCC
:1027E0000E944B370E94B1130E94FF110E9448378C
:1027F000113061F42DB73EB7309329092093280991
:102800002091AC093091AD093EBF2DBF0E944B37DE
:10281000FF91EF91BF91AF919F918F917F916F91B8
:102820005F914F913F912F911F910F910F900BBE90
:102830000F900FBE0F901F90189586B78270089565
:10284000882319F08EB5806402C08EB58F7B8EBD53
:1028500086B7806286BF08951F920F920FB60F92BF
:102860000BB60F9211240F931F932F933F934F9307
:102870005F936F937F938F939F93AF93BF93EF93E8
:10288000FF930E944837082F0E945315882371F048
:102890002DB73EB73093AD092093AC09209128099C
:1028A000309129093EBF2DBF11E001C010E0802FFB
:1028B0000E944B370E9448379091EA08992381F093
:1028C0009091EF089093F20898609093EF089EBD66
:1028D0002091F0083091F1083BBD2ABD1092EA0822
:1028E0000E944B370E944837113061F42DB73EB734
:1028F00030932909209328092091AC093091AD0922
:102900003EBF2DBF0E944B37FF91EF91BF91AF911A
:102910009F918F917F916F915F914F913F912F91F7
:102920001F910F910F900BBE0F900FBE0F901F9035
:1029300018951092230980E090E0FC01EE0FFF1F34
:10294000E80FF91FED50F74F118210820196803188
:10295000910599F708950F931F93DF93CF930F92EB
:10296000CDB7DEB78C0169830E9448379091230967
:1029700069819031F9F020E030E0F901EE0FFF1F9E
:10298000E20FF31FED50F74F408151814115510582
:1029900061F4118300836283909123099F5F909378
:1029A00023090E944B3781E008C02F5F3F4F203141
:1029B000310519F70E944B3780E00F90CF91DF91DE
:1029C0001F910F910895CF93DF930E944837909104
:1029D0002309992341F40E944B370E94DD030E9492
:1029E000DB0380E037C020E030E0C0E0D0E060E012
:1029F00090E0F901EE0FFF1FE20FF31FED50F74FCC
:102A0000408151814115510539F04281941720F4DC
:102A1000C081D1819281622F2F5F3F4F20313105DC
:102A200041F7209781F090912309915090932309C9
:102A3000262F30E0F901EE0FFF1FE20FF31FED50DC
:102A4000F74F118210820E944B37209711F0FE0140
:102A5000099581E0DF91CF910895FC0109950895D2
:102A60001F930E944837182F80E399E060E070E0E0
:102A700045E750E00E944E3710922F0910922E0920
:102A800010922909109228091092AD091092AC09F0
:102A90001092A9091092AF091092AE09812F0E94DD
:102AA0004B371F9108952DB73EB781E04091AE0995
:102AB0005091AF094217530708F480E008952F9210
:102AC0003F924F925F926F927F928F929F92AF92BE
:102AD000BF92CF92DF92EF92FF920F931F93CF930B
:102AE000DF931C012B01EA01390146010E945315B5
:102AF000882309F096C08091AE099091AF098C1798
:102B00009D0720F4D093AF09C093AE09809132099C
:102B1000882369F080915909882361F080918009A8
:102B2000882309F07EC092E0C92ED12C06C0CC24A7
:102B3000DD2403C081E0C82ED12C0E944837182F15
:102B400087E290E0C89EF001C99EF00DD89EF00D7E
:102B50001124E05DF64FF0932F09E0932E09D18305
:102B6000C08382E08283368E258E03830483528A5B
:102B7000418AD48BC38B148E138E768A658A908E8D
:102B8000878AB28EA18EC7010E94F73620912E0946
:102B900030912F09482F4F5FC9010596B7010E9458
:102BA0006736F201E60DF71D8FEF9EEE918380836D
:102BB000938382838DB79EB79093290980932809C8
:102BC000E0912E09F0912F09808191819EBF8DBFE8
:102BD0008FED97E18F939F9382E290E01F92019790
:102BE000E9F78DB79EB791838083809128099091F2
:102BF00029099EBF8DBF10922F0910922E09809136
:102C0000A909882341F48BE996E162E00E94AB14A4
:102C100081E08093A909812F0E944B3721E030E0A9
:102C200002C020E030E0C901DF91CF911F910F91E8
:102C3000FF90EF90DF90CF90BF90AF909F908F90DC
:102C40007F906F905F904F903F902F90089590E00D
:102C500027E230E0829FF001839FF00D929FF00DFC
:102C60001124E05DF64F748F638F08950E947E33C8
:102C70009093AB098093AA090E94813360932A093B
:102C800070932B0980932C0990932D09FF93FFB724
:102C9000FF930F921F922F923F924F925F926F92EB
:102CA0007F928F929F92AF92BF92CF92DF92EF92DC
:102CB000FF920F931F932F933F934F935F936F93C5
:102CC0007F938F939F93AF93BF93CF93DF93EF93B4
:102CD000FF938DB79EB79093290980932809E091BF
:102CE0002E09F0912F09808191819EBF8DBFFF91A8
:102CF000EF91DF91CF91BF91AF919F918F917F9194
:102D00006F915F914F913F912F911F910F91FF9084
:102D1000EF90DF90CF90BF90AF909F908F907F907B
:102D20006F905F904F903F902F901F900F90FF916A
:102D3000FFBFFF910895AF92BF92CF92DF92EF92C3
:102D4000FF920F931F93CF93DF930E944837E82E93
:102D500080913209843061F080915909843059F0B2
:102D600080918009843009F094C0C2E0D0E005C0B1
:102D7000C0E0D0E002C0C1E0D0E08BE996E163E0C2
:102D80000E94AB1427E230E0C29F8001C39F100D68
:102D9000D29F100D1124005D164F85E0F80182834B
:102DA0008E2D0E944B37F801258D368D40E050E086
:102DB0008C2F61E00E94C43274C08BE996E163E01D
:102DC0000E94AB14CE010E948B1897FD6AC047E2A7
:102DD00050E0849F9001859F300D949F300D112409
:102DE000205D364F30932F0920932E090E9436160E
:102DF0000E947E339093B1098093B0090E94813381
:102E00007B018C016093A5097093A6098093A709A3
:102E10009093A8098091B0099091B1096091AA0995
:102E20007091AB09A0902A09B0902B09C0902C0991
:102E3000D0902D098617970769F4EA18FB080C094A
:102E40001D09E0922409F0922509009326091093A8
:102E500027091AC0681B790B80E090E020E039EF69
:102E600042E055E90E946D4D6A197B098C099D0964
:102E70006E0D7F1D801F911F60932409709325099B
:102E8000809326099093270910922F0910922E09FA
:102E900008C08E2D0E944B370E94FC4CEC0197FF1E
:102EA0008CCFDF91CF911F910F91FF90EF90DF902A
:102EB000CF90BF90AF900895FF93FFB7FF930F920D
:102EC0001F922F923F924F925F926F927F928F92BA
:102ED0009F92AF92BF92CF92DF92EF92FF920F93A9
:102EE0001F932F933F934F935F936F937F938F9392
:102EF0009F93AF93BF93CF93DF93EF93FF93E091B3
:102F00002E09F0912F098DB79EB791838083809110
:102F10002809909129099EBF8DBFFF91EF91DF9104
:102F2000CF91BF91AF919F918F917F916F915F9161
:102F30004F913F912F911F910F91FF90EF90DF9054
:102F4000CF90BF90AF909F908F907F906F905F9049
:102F50004F903F902F901F900F90FF91FFBFFF91D8
:102F600008951F93CF93DF930E944837182FE09165
:102F70002E09F0912F0912828189928963897489BF
:102F80000E94340B0E94D01827E230E0829FE001BB
:102F9000839FD00D929FD00D1124C05DD64FEB8D35
:102FA000FC8D309719F009951C8E1B8E0E945C17C2
:102FB000812F0E944B37DF91CF911F910895E091AF
:102FC0002E09F0912F09858D968D0E942D150E9456
:102FD000B117CF93DF93EC010E945315882351F072
:102FE000E0912E09F0912F0984E08283D68FC58F5E
:102FF0000E945C17DF91CF9108958330E8F490E050
:1030000027E230E0829FF001839FF00D929FF00D48
:103010001124E05DF64F8281853011F482E08283D5
:103020008091A909882341F48BE996E162E00E942E
:10303000AB1481E08093A90908958091A9098823A0
:1030400041F48BE996E162E00E94AB1481E0809349
:10305000A90908958F929F92AF92BF92CF92DF926B
:10306000EF92FF920F931F93CF93DF938C017A011E
:1030700076956795680F791FE1E4F9E080E090E0CC
:1030800047E2842E912C889DD001899DB00D989D9A
:10309000B00D1124A05DB64F12964C9112974423A7
:1030A00029F1468157814115510501F1A080B18078
:1030B000C280D380DA011296C085D185D695C79596
:1030C000AC0FBD1FA017B10728F042505040641745
:1030D000750798F40894C11CD11CCE14DF0430F09D
:1030E0000894A108B1082A153B0538F40196B79653
:1030F0008330910541F680E001C081E0DF91CF91FE
:103100001F910F91FF90EF90DF90CF90BF90AF9005
:103110009F908F9008959C0187E290E0289FD001B6
:10312000299FB00D389FB00D1124A05DB64F519668
:10313000ED91FC91529755968D919C915697E80F81
:10314000F91F808191814EEE8F3F940731F4828187
:1031500093814EEE8F3F940779F087E290E0289FAD
:10316000F001299FF00D389FF00D1124E05DF64F1E
:1031700089E082832FEF3FEFC9010895893051F430
:103180008091A909882341F48BE996E162E00E94CD
:10319000AB1408950E94FD17089588E299E0089500
:1031A0004F935F9380912E0990912F0929E08033EE
:1031B000920771F029E08735920739F029E08E37C0
:1031C000920731F422E030E005C021E030E002C097
:1031D00020E030E05F914F91C9010895AF92BF9216
:1031E000DF92EF92FF920F931F93DF93CF930F9293
:1031F000CDB7DEB7F82EE62E0E944837AA24BB24AE
:1032000007E210E062E0D62EA09EF001A19EF00D34
:10321000B09EF00D1124E05DF64F9281963059F486
:10322000958D9F1541F4968D9E1529F4D282898340
:103230000E941D1889810894A11CB11C93E0A91655
:10324000B10411F70E944B370F90CF91DF911F917E
:103250000F91FF90EF90DF90BF90AF9008951F9275
:103260000F920FB60F921124349A37980F900FBE19
:103270000F901F90189517B88EE086B9089517B86B
:1032800097B18F71892B87B93398349A86B1806C46
:1032900086B93699FECF84B190E025B1379830E0F9
:1032A00023703070322F2227282B392BC901089523
:1032B0001E9816981D9A159A81E090E00E943F1979
:1032C0001D98159808951D9815981E9A169A81E0D4
:1032D00090E00E943F191E9816980895A59AAD9AFD
:1032E00085E090E00E943F19A598AD980895A59AB1
:1032F000AD9A86E090E00E943F19A598AD98089598
:10330000A49AAC9A83E090E00E943F19A498AC98EC
:103310000895A49AAC9A84E090E00E943F19A49882
:10332000AC980895DF93CF930F92CDB7DEB70E948C
:1033300048371092900389830E9407040E94250455
:103340000E9417040E94FB030E941B040E940B04AE
:1033500089810E944B370F90CF91DF910895DF93C1
:10336000CF930F92CDB7DEB70E94483789830E9472
:10337000FD039091900391609093900389810E9446
:103380004B370F90CF91DF910895DF93CF930F923A
:10339000CDB7DEB70E94483789830E94FB03909126
:1033A00090039E7F9093900389810E944B370F90EA
:1033B000CF91DF910895DF93CF930F92CDB7DEB712
:1033C0000E9448379091900390FF04C089830E9427
:1033D000C51903C089830E94AF1989810E944B37A8
:1033E0000F90CF91DF910895DF93CF930F92CDB7D8
:1033F000DEB70E94483789830E940D0490919003A4
:1034000092609093900389810E944B370F90CF91E7
:10341000DF910895DF93CF930F92CDB7DEB70E946F
:10342000483789830E940B04909190039D7F90936D
:10343000900389810E944B370F90CF91DF910895BF
:10344000DF93CF930F92CDB7DEB70E9448379091AC
:10345000900391FF04C089830E940A1A03C08983E4
:103460000E94F41989810E944B370F90CF91DF9110
:103470000895DF93CF930F92CDB7DEB70E94483700
:1034800089830E941D04909190039460909390030F
:1034900089810E944B370F90CF91DF910895DF9380
:1034A000CF930F92CDB7DEB70E94483789830E9431
:1034B0001B04909190039B7F9093900389810E94BD
:1034C0004B370F90CF91DF910895DF93CF930F92F9
:1034D000CDB7DEB70E9448379091900392FF04C0A9
:1034E00089830E944F1A03C089830E94391A8981F7
:1034F0000E944B370F90CF91DF910895DF93CF93C8
:103500000F92CDB7DEB70E94483789830E943705F6
:1035100089810E944B370F90CF91DF910895DF93FF
:10352000CF930F92CDB7DEB70E94483789830E94B0
:1035300037050E942B0589810E944B370F90CF9150
:10354000DF910895DF93CF930F92CDB7DEB70E943E
:10355000483789830E9437050E942D0589810E9482
:103560004B370F90CF91DF9108950E94E21A089592
:103570000E94EC1A08950E948E1C08950E94F61A6B
:1035800008950E940D1B08950E94241B08950E9417
:10359000451B08950E94D21B08950E94001C0895A7
:1035A0000E94661B08950E94831B08950E94A01B21
:1035B00008950E94B91B08950E942E1C08950E9430
:1035C000581C0895FC019B01CA01E199FECFBF017F
:1035D000A9010E944E4E0895FC019B01CA01E19988
:1035E000FECFBF01A9010E946C4E08950F931F9357
:1035F000CF93DF93EC010E944837182FE199FECF5B
:10360000CE010E945E4E082F812F0E944B37802FE3
:10361000DF91CF911F910F9108950F931F93CF9337
:10362000DF93EC010E944837182FE199FECFCE01BD
:103630000E945E4E082F812F0E944B37802FDF9112
:10364000CF911F910F910895EF92FF920F931F93C7
:10365000DF93CF930F92CDB7DEB77C010E9448373E
:10366000082FE199FECFC7010E94664E182F802FC8
:1036700099830E944B37812F99810F90CF91DF91D1
:103680001F910F91FF90EF900895EF92FF920F938B
:103690001F93DF93CF930F92CDB7DEB77C010E94CB
:1036A0004837082FE199FECFC7010E94664E182FB8
:1036B000802F99830E944B37812F99810F90CF9152
:1036C000DF911F910F91FF90EF900895EF92FF927D
:1036D0001F93DF93CF930F92CDB7DEB77C01698341
:1036E0000E944837182F6981E199FECFC7010E94D7
:1036F000764E812F0E944B370F90CF91DF911F9113
:10370000FF90EF900895EF92FF921F93DF93CF9376
:103710000F92CDB7DEB77C0169830E944837182F1E
:103720006981E199FECFC7010E94764E812F0E94E8
:103730004B370F90CF91DF911F91FF90EF9008953D
:10374000FF920F931F93CF93DF93EC018B010E94A5
:103750004837F82EE199FECFCE01B8010E94834E82
:103760008F2D0E944B37DF91CF911F910F91FF90CA
:103770000895FF920F931F93CF93DF93EC018B017A
:103780000E944837F82EE199FECFCE01B8010E9481
:10379000834E8F2D0E944B37DF91CF911F910F9158
:1037A000FF900895FF920F931F93CF93DF938C01A7
:1037B0000E944837F82EE199FECFC8010E94664E5C
:1037C000EC01E199FECFC80102960E94664E8C0181
:1037D0008F2D0E944B37980140E050E0A90133271C
:1037E0002227CE01A0E0B0E0280F391F4A1F5B1F3F
:1037F000B901CA01DF91CF911F910F91FF900895F8
:10380000FF920F931F93CF93DF938C010E94483751
:10381000F82EE199FECFC8010E94664EEC01E199B5
:10382000FECFC80102960E94664E8C018F2D0E9429
:103830004B37980140E050E0A90133272227CE0101
:10384000A0E0B0E0280F391F4A1F5B1FB901CA0171
:10385000DF91CF911F910F91FF900895BF92CF926A
:10386000DF92EF92FF920F931F93CF93DF93EC01C0
:103870007A018B010E944837B82E6801B701E1999F
:10388000FECFCE010E94834ECE010296E199FECF7B
:10389000B6010E94834E8B2D0E944B37DF91CF9152
:1038A0001F910F91FF90EF90DF90CF90BF90089500
:1038B000CF92DF92FF920F931F93DF93CF9300D0AD
:1038C00000D0CDB7DEB76C0149835A836B837C830C
:1038D0000E944837F82E49815A816B817C81062FDE
:1038E000172F642F752FE199FECFC6010E94834EDA
:1038F000C6010296E199FECFB8010E94834E8F2D3A
:103900000E944B370F900F900F900F90CF91DF9147
:103910001F910F91FF90DF90CF900895CF92DF928B
:10392000EF92FF920F931F93CF93DF93EC017B01F4
:10393000C42E0E944837D82E00E010E008C0C8010D
:103940008C0F9D1F6C2D0E94661B0F5F1F4F0E1565
:103950001F05ACF38D2D0E944B37DF91CF911F9146
:103960000F91FF90EF90DF90CF90089580E090E06E
:103970000E94B62321E030E08130910511F020E073
:1039800030E0C90108951092B2091092BC0908955F
:103990008091B209882339F08091BC09882331F4E1
:1039A00061E070E005C060E070E002C062E070E0DD
:1039B000FB01EE0FFF1FCB0123E0880F991F2A9513
:1039C000E1F7E80FF91FEE54F64F81E08083618341
:1039D000138212822FEF3FEFA9012683378340879E
:1039E0005187CB0108959C01FC01EE0FFF1F43E0BE
:1039F000220F331F4A95E1F7E20FF31FEE54F64F03
:103A0000108208951092B2091092BC090895CF92C5
:103A1000DF92EF92FF920F931F93DF93CF9300D02B
:103A2000CDB7DEB76C018B01BE016F5F7F4F0E9487
:103A3000FC277C01C8010E948A238C010097F1F1C8
:103A40008FEFE8168FEFF806C9F189819A81009708
:103A5000C9F40230110591F5C6010E947323B70124
:103A60000E94CD27D82E0E94C81CE82E092F8D2D2C
:103A700090E06E2D702F42E050E00E94BA284E2D4B
:103A8000502F0FC082309105C9F40E94C81CD82E57
:103A9000C92EC7016D2D7C2DA8010E94BA284D2D7D
:103AA0005C2D9A01220F331F83E0440F551F8A9526
:103AB000E1F7240F351F2E54364F02C020E030E0CE
:103AC000C9010F900F90CF91DF911F910F91FF903F
:103AD000EF90DF90CF900895FC01818190E00E94EB
:103AE000F31C0895EF92FF920F931F93CF93DF93F0
:103AF000FC012115310579F484819581A0E0B0E0C5
:103B000084179507A607B7070CF443C0468357836D
:103B10006087718741C086819781A085B185EC015E
:103B20002130310541F4840F951FA61FB71F8683EE
:103B30009783A087B187E680F7800085118517FD00
:103B40001FC084819581A0E0B0E08E159F05A0077D
:103B5000B107B4F02230310541F4480F591F6A1FF4
:103B60007B1F468357836087718726813781408515
:103B7000518557FD05C082179307A407B50764F464
:103B8000CE01AA2797FDA095BA2F86839783A08799
:103B9000B1872FEF3FEF02C020E030E0C901DF9195
:103BA000CF911F910F91FF90EF900895DF93CF93E6
:103BB00000D0CDB7DEB7BE016F5F7F4F0E94FC27FC
:103BC0009C018FEF2F3F380731F089819A81009750
:103BD00011F42FEF3FEFC9010F900F90CF91DF91BC
:103BE0000895EF92FF920F931F93DF93CF9300D02E
:103BF000CDB7DEB78C01BE016F5F7F4F0E94FC27FF
:103C00007C018FEFE8168FEFF80669F089819A81C1
:103C1000009749F4C8010E947323B7010E94A927A5
:103C200020E030E002C02FEF3FEFC9010F900F906E
:103C3000CF91DF911F910F91FF90EF9008950E9417
:103C4000D61D2FEF8F3F920729F00E94DA2420E043
:103C500030E002C02FEF3FEFC90108950E94492BC9
:103C600008950E947F2A0895CF93DF93C0E0D0E0AB
:103C7000CE010E94B623181619061CF4CE010E942C
:103C80005D242196C136D10599F7DF91CF91089532
:103C90002F923F924F925F926F927F928F929F925C
:103CA000AF92BF92CF92DF92EF92FF920F931F934A
:103CB000DF93CF93CDB7DEB72C970FB6F894DEBF66
:103CC0000FBECDBF9C878B872B011A01FC0166813B
:103CD0007781808591859101442737FD4095542F48
:103CE00029833A834B835C8359016A01A60EB71E70
:103CF000C81ED91E2481358140E050E02A153B05BD
:103D00004C055D050CF491C0612C58E0752E812C9A
:103D1000912CA40193010E94D54D6F8378878987E8
:103D20009A877901C601B50161507040804090408A
:103D3000A40193010E94D54D3E832D83E216F30624
:103D4000F1F48F81988560E071E00E94A04D8B01B5
:103D5000C82EEB85FC8582816E2D0E943529282F87
:103D600030E02150304043E0220F331F4A95E1F705
:103D7000C901800F911F6C2DA201910151C08F814B
:103D8000988500E011E0B8010E94A04D5B016C0134
:103D9000EB85FC8582816E2D0E9435297801EC1817
:103DA000FD0890E0019733E0880F991F3A95E1F7FD
:103DB0008A0D9B1D6C2DA20197010E942631EB8577
:103DC000FC85668177818085918561507040804057
:103DD000904029813A814B815C81620F731F841F5F
:103DE000951FA40193010E94D54DCB01B8010E94FB
:103DF000A04D8B01EB85FC8582816D810E94352968
:103E000090E0019723E0880F991F2A95E1F7A2011E
:103E10004E0D5F1D91012E193F09800F911F60E02B
:103E20000E94263120E030E002C02FEF3FEFC901B1
:103E30002C960FB6F894DEBF0FBECDBFCF91DF91A9
:103E40001F910F91FF90EF90DF90CF90BF90AF90B8
:103E50009F908F907F906F905F904F903F902F90AA
:103E600008952F923F924F925F926F927F928F921E
:103E70009F92AF92BF92CF92DF92EF92FF920F93F9
:103E80001F93DF93CF93CDB7DEB72C970FB6F8947F
:103E9000DEBF0FBECDBF9C878B8778876F835E8325
:103EA0004D839A01442737FD4095542F29833A8347
:103EB0004B835C83FC0186819781A085B185820F4D
:103EC000931FA41FB51F648175819B0140E050E0E2
:103ED000281739074A075B07D4F5372F387F20E0CA
:103EE00077706115710511F02050384F40E050E0B7
:103EF000281739074A075B073CF4AB85BC85129647
:103F00008C9190E00E944D29EB85FC85468157817C
:103F10006085718509811A812B813C81040F151FF1
:103F2000261F371F84819581A0E0B0E0801791079C
:103F3000A207B30764F42D813E81420F531F5583BE
:103F40004483828190E06DE170E00E94FE22AB85A7
:103F5000BC8514968D919C911597BAEF81309B0783
:103F600008F0A6C0EB85FC85E680F780008511850A
:103F7000612CF8E07F2E812C912CC801B701A4019F
:103F800093010E94D54D1B012C015901C801B701B5
:103F9000615070408040904029813A814B815C8122
:103FA000620F731F841F951FA40193010E94D54DBA
:103FB0003A872987A216B30601F5C10160E071E0D6
:103FC0000E94A04D8B01E82EAB85BC8512968C918A
:103FD0006A2D0E943529282F30E021503040E3E03F
:103FE000220F331FEA95E1F7C901800F911F6E2D53
:103FF0004F8158852D813E8156C0C10100E011E0FE
:10400000B8010E94A04D2B016C01EB85FC858281DB
:104010006A2D0E9435297801EC18FD0890E001977F
:1040200073E0880F991F7A95E1F7840D951D6C2D2B
:104030004F81588597010E942931AB85BC85169622
:104040006D917D918D919C91199761507040804048
:10405000904029813A814B815C81620F731F841FDC
:10406000951FA40193010E94D54DCB01B8010E9478
:10407000A04D8B01AB85BC8512968C9169850E9401
:10408000352990E0019763E0880F991F6A95E1F761
:104090004F8158854E0D5F1D2D813E812E193F09A0
:1040A000800F911F60E00E94293120E030E002C0C3
:1040B00022E030E0C9012C960FB6F894DEBF0FBEA7
:1040C000CDBFCF91DF911F910F91FF90EF90DF90C7
:1040D000CF90BF90AF909F908F907F906F905F90A8
:1040E0004F903F902F900895AF92BF92DF92EF9242
:1040F000FF920F931F93DF93CF9300D000D000D097
:10410000CDB7DEB77C018B01CB010E9473239C01EC
:10411000C8012D833E830E94F7365C01C701BE01B2
:104120006F5F7F4F0E94FC27F82EE92E6FE170E051
:104130000E94AC226F2D0E94B929C801BE016D5F9B
:104140007F4F0E94FC27D82E8F2D9E2D6FE170E0AF
:104150004D2D0E94E8220A0D1B1D2D81021B8F2D63
:104160009E2D60E070E0402F50E03E810E943D2394
:104170008F2D9E2D602F70E040E00E94E8228D2D53
:104180006F2D0E948B2980E090E026960FB6F89460
:10419000DEBF0FBECDBFCF91DF911F910F91FF907A
:1041A000EF90DF90BF90AF9008958F929F92AF9263
:1041B000BF92DF92EF92FF920F931F93DF93CF9303
:1041C00000D000D000D0CDB7DEB77C018B01CB0191
:1041D0000E9473239C01C8012D833E830E94F73601
:1041E0004C01C701BE016F5F7F4F0E94FC275C013D
:1041F000C801BE016D5F7F4F0E94FC27D82E0E9430
:10420000F42AF82EE92EC5016F2D7E2D0E94D625A9
:10421000080D191D2D81021B8F2D9E2D60E070E071
:10422000402F50E03E810E943D238F2D9E2D602F18
:1042300070E040E00E94E8228F2D9E2D6FE170E03B
:104240004D2D0E94E8228D2D6F2D0E948B290EE0AE
:1042500010E0C501B8010E94AC22882E882379F0B5
:104260000E94182AD82E8F2D9E2DB8014D2D0E9408
:10427000E822882D90E06D2D70E00E94F4250F5FFC
:104280001F4F0631110529F780E090E026960FB602
:10429000F894DEBF0FBECDBFCF91DF911F910F917C
:1042A000FF90EF90DF90BF90AF909F908F90089518
:1042B000DF93CF9300D0CDB7DEB7BE016F5F7F4FE6
:1042C0000E94FC270E9488270F900F90CF91DF91CA
:1042D00008955F926F927F928F929F92AF92BF925A
:1042E000CF92DF92EF92FF920F931F93DF93CF93C2
:1042F000CDB7DEB72D970FB6F894DEBF0FBECDBF9A
:104300003C017B010894E108F108E80EF91EF70171
:10431000108267010894C108D1080E9483275C01BC
:104320004E010894811C911CAFE25A2EC401B501C4
:104330000E94C926C4010E94F736482F082F192F62
:10434000C601801B910BB4010E946736F6015082B2
:1043500000951095C00ED11EC5016FE170E00E945E
:10436000AC22A82EBB24A114B10401F7F60150829F
:10437000EC18FD08D601F30180E090E003C02D9118
:10438000219301968E159F05D4F3319710822D96B7
:104390000FB6F894DEBF0FBECDBFCF91DF911F9156
:1043A0000F91FF90EF90DF90CF90BF90AF909F90D4
:1043B0008F907F906F905F9008950F931F93CF938E
:1043C000DF938C01EB01CB0160E070E04CE050E04A
:1043D00098010E943023CE016CE070E00E94AC2274
:1043E000F8018487CE016DE170E00E94AC22F801F3
:1043F0008587CE016EE170E00E94AC22F8018687CD
:10440000DF91CF911F910F910895CF92DF92EF929C
:10441000FF920F931F93DF93CF930F92CDB7DEB729
:104420008C016B017A01FB01108221E0822FB70120
:1044300029830E94202629818130910551F4F601BB
:104440008081F801E80FF11D2083F60180818F5FE4
:1044500080832F5F213651F70F90CF91DF911F910D
:104460000F91FF90EF90DF90CF9008950E94BE24AF
:1044700008955F926F927F928F929F92AF92BF92B8
:10448000CF92DF92EF92FF920F931F93DF93CF9320
:10449000CDB7DEB72D970FB6F894DEBF0FBECDBFF8
:1044A0003C016B010894C108D108C80ED91EF60161
:1044B000108276010894E108F108A42EB52E4E0171
:1044C0000894811C911CBFE25B2EC401B5010E94BF
:1044D000C926C4010E94F736482F082F192FC7019B
:1044E000801B910BB4010E946736F7015082009542
:1044F0001095E00EF11EC5016FE170E00E94AC2244
:10450000A82EBB24A114B10401F7F7015082CE18E4
:10451000DF08D701F30180E090E003C02D912193E3
:1045200001968C159D05D4F3319710822D960FB608
:10453000F894DEBF0FBECDBFCF91DF911F910F91D9
:10454000FF90EF90DF90CF90BF90AF909F908F90B3
:104550007F906F905F90089525E0880F991F2A95AE
:10456000E1F7860F971F0E94BE1A089535E0880F65
:10457000991F3A95E1F7860F971F0E94C11A089577
:1045800045E0880F991F4A95E1F7860F971F0E9413
:10459000C41A089555E0880F991F5A95E1F7860FC0
:1045A000971F0E94C71A0895E5E0880F991FEA95A2
:1045B000E1F7860F971F0E94CA1A0895F5E0880F49
:1045C000991FFA95E1F7860F971F0E94CD1A08955B
:1045D000A5E0880F991FAA95E1F7860F971F642F12
:1045E0000E94D01A0895B5E0880F991FBA95E1F797
:1045F000860F971F642F0E94D31A08959B01BA015A
:1046000045E0880F991F4A95E1F7820F931F0E949A
:10461000D61A08959B01BA0155E0880F991F5A9543
:10462000E1F7820F931F0E94D91A0895FB01BA0186
:10463000A901A5E0880F991FAA95E1F78E0F9F1F8A
:104640000E94DC1A0895FB01BA01A901B5E0880FA8
:10465000991FBA95E1F78E0F9F1F0E94DC1A0895EB
:10466000FB01BA0145E0880F991F4A95E1F78E0FCB
:104670009F1FA9010E94B51A0895FB01BA0155E0D8
:10468000880F991F5A95E1F78E0F9F1FA9010E946D
:10469000B81A0895FB01BA01A5E0880F991FAA95E1
:1046A000E1F78E0F9F1F422F0E94BB1A0895FC0155
:1046B00020812F3209F40196FC01A62FB72F01C0EB
:1046C0002D93CF012191322F31563A31C8F3305E0C
:1046D0003A31B0F32F35A1F32E3291F33F5E3A30E9
:1046E00078F31C920895CF93DF93EC010E94F73684
:1046F000FC013197EC0FFD1F01C0319780818F3293
:1047000021F0EC17FD07C9F701C03196CF01DF9109
:10471000CF910895CF93DF93EC010E94F73681305B
:10472000910561F48881823791F0873799F081365D
:10473000A1F08437A9F424E030E014C0CE010E9437
:10474000F7368230910561F425E030E00BC021E0BE
:1047500030E008C022E030E005C023E030E002C0D5
:1047600020E030E0C901DF91CF9108951F93CF93EE
:10477000DF93EC016DE070E00E94AC22182FCE01B7
:104780006CE070E00E94AC22112319F0282F30E079
:1047900002C020E030E0C901DF91CF911F91089560
:1047A000DF92EF92FF920F931F93CF93DF93EC0171
:1047B0007B01142FD22ECB010E94F736482F8C306C
:1047C00008F44F5F013061F4CE0160E070E050E02A
:1047D00097010E943D23CE016CE070E041E029C0CA
:1047E000023061F4CE0160E070E050E097010E9479
:1047F0003D23CE016CE070E042E01BC0033061F469
:10480000CE0160E070E050E097010E943D23CE01B0
:104810006CE070E043E00DC0043071F5CE0160E063
:1048200070E050E097010E943D23CE016CE070E003
:1048300044E00E94E822CE016DE070E041E00E9479
:10484000E822CE016EE070E04EE050E020E00E94F1
:104850004A23CE016CE170E0412F0E94E822CE0194
:104860006DE170E040E050E00E94FE22CE016FE179
:1048700070E04D2D0E94E822209711F4DD20A9F070
:104880000EE010E08D2D90E0B8010E94AC2288234C
:1048900039F48D2D90E0B8014C2F0E94E82205C01C
:1048A0000F5F1F4F0831110569F7DF91CF911F91FD
:1048B0000F91FF90EF90DF900895EF92FF920F938A
:1048C0001F93DF93CF93CDB7DEB72E970FB6F89433
:1048D000DEBF0FBECDBF8C011D8660E070E04CE0F6
:1048E00050E09E012F5F3F4F0E943023C8016CE0D3
:1048F00070E00E94AC22282FC8016DE070E02E8786
:104900000E94AC222E858823F9F02130A1F59EE08B
:10491000E92EF12CC801B7010E94AC220894E11CD9
:10492000F11C88E1E816F104A9F70EC08EE0E82E2C
:10493000F12CC801B7010E94AC220894E11CF11CC3
:1049400086E1E816F104A9F7C8016CE170E00E9465
:10495000AC22C8016FE170E00E94AC222E960FB627
:10496000F894DEBF0FBECDBFCF91DF911F910F91A5
:10497000FF90EF9008952230C9F2E6CFCF93DF93F6
:10498000C0E0D0E0CE0160E070E040E250E020E026
:104990000E944A232196C132D105A1F70E94102A14
:1049A0000E94EC2ADF91CF9108950E94102A0E9464
:1049B000EC2A0895CF92DF92FF920F931F93DF931B
:1049C000CF930F92CDB7DEB76C016CE070E00E9420
:1049D000AC22082FC6016FE170E00E94AC22F82ED5
:1049E0000130A1F50EE010E0C601B8010E94AC2232
:1049F000882319F090E00E94DA240F5F1F4F0831DE
:104A0000110591F7C6016DE070E040E00E94E822D8
:104A1000C114D10419F4FF2009F4B0C020E0022F22
:104A200010E0025F1F4F8F2D90E0B80129830E9494
:104A3000AC2290E029818C159D0521F48F2D90E00A
:104A4000B80193C02F5F2A3051F798C0023009F0A7
:104A500053C0C6016DE070E040E00E94E822C1143E
:104A6000D10411F4FF2089F00EE010E08F2D90E0CA
:104A7000B8010E94AC2290E08C159D0549F48F2D61
:104A800090E0B80140E00E94E8220EE010E006C08D
:104A90000F5F1F4F0831110549F7F7CFC601B80165
:104AA0000E94AC22882341F090E00E94792A0F5F97
:104AB0001F4F0631110591F7FC2C8F2D90E068E116
:104AC00070E00E94AC22F82E882309F457C090E0D1
:104AD0000E943F2B0EE010E08F2D90E0B8010E9465
:104AE000AC22882351F390E00E94792A0F5F1F4F78
:104AF0000631110589F7E1CF0330E1F4C6016DE01D
:104B000070E040E00E94E822C114D10411F4FF20BB
:104B1000A9F10EE010E08F2D90E0B8010E94AC22C8
:104B200090E08C159D05F1F00F5F1F4F08311105C6
:104B300091F724C0043011F5C6016DE070E040E04B
:104B40000E94E822C114D10411F4FF20B9F00EE054
:104B500010E08F2D90E0B8010E94AC2290E08C15FF
:104B60009D0539F48F2D90E0B80140E00E94E822C5
:104B700005C00F5F1F4F0831110559F7C6010E948C
:104B80003F2B0F90CF91DF911F910F91FF90DF90FE
:104B9000CF9008950F9380E090E06DE471E040E0E5
:104BA00020E001E00E94D0230F910895EF92FF9240
:104BB0000F931F93CF93DF938C017B01C0E0D0E074
:104BC000C801BE010E94AC22482FC701BE010E944D
:104BD000E8222196C032D10599F7DF91CF911F913C
:104BE0000F91FF90EF900895EF92FF920F931F9314
:104BF000CF93DF938B017C010894E108F10833E047
:104C0000EE0CFF1C3A95E1F70150104023E0000F35
:104C1000111F2A95E1F7C0E0D0E0BE01600F711FBF
:104C2000CE018E0D9F1D0E942C312196C830D105DA
:104C3000A1F7DF91CF911F910F91FF90EF90089511
:104C4000BF92CF92DF92EF92FF920F931F93DF9369
:104C5000CF93CDB7DEB72D970FB6F894DEBF0FBE5A
:104C6000CDBF082F6B0190E06DE070E00E94AC2298
:104C7000882309F1802F90E060E070E04CE050E084
:104C80007E010894E11CF11C97010E9430231D86CF
:104C9000C7010E94F736B82E00E010E00AC0C70135
:104CA000800F911FB6010E94CA360F5F1F4F0097F9
:104CB00029F00B15A0F320E030E002C021E030E045
:104CC000C9012D960FB6F894DEBF0FBECDBFCF91B0
:104CD000DF911F910F91FF90EF90DF90CF90BF90E9
:104CE0000895BF92CF92DF92EF92FF920F931F939E
:104CF000CF93DF93C82E092F7B010E94F7368D30AA
:104D00009105F4F4C7010E94B6230097C9F0E601AB
:104D10006E01D02EE60100E010E06E01B880C70100
:104D2000B8010E94AC22B81659F42196F601808190
:104D3000882349F00F5F1F4F0C30110571F703C036
:104D400021E030E002C020E030E0C901DF91CF91E6
:104D50001F910F91FF90EF90DF90CF90BF9008953B
:104D60000F931F93CF93DF938C01CEE0D0E0C80167
:104D7000BE010E94AC22882331F02196C831D105B2
:104D8000B1F781E001C080E0DF91CF911F910F91D9
:104D90000895CF92DF92EF92FF920F931F93CF93DC
:104DA000DF936B01E82EE7017E01F92EE70100E0B9
:104DB00010E07E01C601B8010E94AC2289938823CD
:104DC00031F07E010F5F1F4F0C30110591F7F70195
:104DD0001082DF91CF911F910F91FF90EF90DF90A4
:104DE000CF900895CF92DF92EF92FF920F931F938F
:104DF000CF93DF937C016B01CEE0D0E0C601BE0112
:104E00000E94AC22082F10E0C701B8010E94712651
:104E1000009731F02196C831D10581F70FEF1FEFD0
:104E2000C801DF91CF911F910F91FF90EF90DF901C
:104E3000CF9008956FE170E00E94AC2290E0089559
:104E4000DF92EF92FF920F931F93CF93DF938C012A
:104E50007B01CEE0D0E0C701BE010E94AC22D82E7B
:104E6000C8016D2D70E00E947126009759F48D2DB8
:104E700090E00E94B623882329F0DD2019F0282F26
:104E800030E006C02196C831D10529F720E030E096
:104E9000C901DF91CF911F910F91FF90EF90DF90AB
:104EA0000895BF92CF92DF92EF92FF920F931F93DC
:104EB000CF93DF937C016B01CEE0D0E0C601BE0151
:104EC0000E94AC22B82E082F10E0C701B8010E9442
:104ED0007126009739F4C8010E94B623882311F087
:104EE000BB2031F42196C831D10541F700E010E034
:104EF000C801DF91CF911F910F91FF90EF90DF904C
:104F0000CF90BF900895809191039091920308955E
:104F1000909392038093910308950F931F93CF93DF
:104F2000DF938C01CEE0D0E0C801BE010E94AC222C
:104F3000882339F42196C831D105B1F720E030E05B
:104F400002C021E030E0C901DF91CF911F910F91A4
:104F500008950F931F93CF93DF93EC018B010E9471
:104F600051271816190684F0C8010E94B026813016
:104F700069F00E94F42A182F90E0BE0140E0202F33
:104F800001E00E94D02303C010E001C01FEF812F79
:104F9000DF91CF911F910F9108950F931F93CF939E
:104FA000DF93EC018B010E9451271816190684F03B
:104FB000C8010E94B026813069F00E94F42A182F9F
:104FC00090E0BE0140E0202F02E00E94D02303C009
:104FD00010E001C01FEF812FDF91CF911F910F9142
:104FE00008950E94B62321E030E08130910511F050
:104FF00020E030E0C9010895AF92BF92CF92DF92D6
:10500000EF92FF920F931F93DF93CF93CDB7DEB74D
:105010002D970FB6F894DEBF0FBECDBF6C015B01BC
:10502000FC0181917F01F601918100919103109122
:1050300092038E3279F49E3251F4C8010E941A27ED
:105040008C0182E0E82EF12CEC0CFD1C34C09F3268
:1050500019F431C08F3251F1982F91569A3118F0CE
:1050600081548A3138F5C6016E010894C11CD11CE7
:10507000B6010E9457237C01009761F4C601B80174
:105080000E942027009779F1F50191838083C60162
:10509000B80132C0C601B8010E9420270097E9F18B
:1050A000C601B8010E94F2268C0105C0760100E01D
:1050B00010E001C076016E010894C11CD11CC8012A
:1050C0000E94F127009749F1C701B6010E945723BA
:1050D0007C01FC0180818823A1F4C601B8010E94F3
:1050E0002027009721F4F5011182108218C0F501E4
:1050F00091838083C601B8010E94F226082F192FE0
:105100000EC0C601B8010E942027009731F0C601E9
:10511000B8010E94F2268C01D2CF0FEF1FEFC80119
:105120002D960FB6F894DEBF0FBECDBFCF91DF91A5
:105130001F910F91FF90EF90DF90CF90BF90AF90B5
:1051400008950F931F93CF93DF938C01CEE0D0E0AF
:10515000C801BE010E94AC22882339F090E00E9471
:10516000792A2196C631D10599F7DF91CF911F9108
:105170000F910895EF92FF920F931F93CF93DF93B8
:10518000F82EE92E8B01EA01CB01FB01EE0FFF1F88
:1051900023E0880F991F2A95E1F7E80FF91FEE54D5
:1051A000F64FF282CB01FB01EE0FFF1FA3E0880F49
:1051B000991FAA95E1F7E80FF91FEE54F64F4383C4
:1051C0008F2D9E2D6DE170E00E94C0229801F801A4
:1051D000EE0FFF1F63E0220F331F6A95E1F7E20F26
:1051E000F31FEE54F64F95838483C130D10529F126
:1051F000C230D10511F1C330D105A1F49801F801F5
:10520000EE0FFF1F43E0220F331F4A95E1F7E20F35
:10521000F31FEE54F64FA0E0B0E086839783A0879B
:10522000B1871CC0C430D10529F48F2D9E2D0E945A
:10523000A12803C0C530D10589F4C801F801EE0FDB
:10524000FF1F23E0880F991F2A95E1F7E80FF91F48
:10525000EE54F64F1682178210861186DF91CF9199
:105260001F910F91FF90EF9008950F931F93062FBA
:10527000162F06C090E068E170E00E94AC22185042
:105280001830C0F70770602F70E0625F7F4F90E0CA
:105290000E94AC221F910F910895EF92FF920F93FD
:1052A0001F93CF93DF93082FCEE0D0E0802F90E0C4
:1052B000BE010E94AC22882369F02196C631D10537
:1052C000A9F7802F90E068E170E00E94AC2288236B
:1052D00051F707C00E94182A482F802F90E0BE0186
:1052E00011C00E94F42A182F802F90E068E170E02E
:1052F000412F0E94E8220E94182A482F812F90E017
:105300006EE070E00E94E822DF91CF911F910F9133
:10531000FF90EF900895CF92DF92EF92FF921F934C
:10532000DF93CF930F92CDB7DEB7182F462F5EE0F5
:10533000C52ED12C812F90E0B60149830E94AC226A
:105340004981882331F4812F90E0B6010E94E82240
:1053500007C00894C11CD11C28E1C216D10451F722
:105360000F90CF91DF911F91FF90EF90DF90CF9042
:105370000895EF92FF920F931F93CF93DF93182F0F
:10538000062FCEE0D0E0812F90E0BE010E94AC223B
:10539000801739F4812F90E0BE0140E00E94E8229E
:1053A00004C02196C831D10571F7DF91CF911F91CB
:1053B0000F91FF90EF9008959B0168E070E00E94CC
:1053C000A04DFB01ED56FC4F2115310559F021E0B0
:1053D00030E002C0220F331F8A95E2F78081822BD2
:1053E0008083089521E030E002C0220F331F8A95A8
:1053F000E2F7209580812823208308958CE69CE0A5
:1054000060E270E043E953E00E94B81A08958CE628
:105410009CE060E270E043E953E00E94B51A089511
:10542000E3E9F3E0119283E0E33BF807D9F708954D
:10543000EF92FF92CF93DF9380E090E0FC0123E0B6
:10544000F595E7952A95E1F7ED56FC4F2081332736
:1054500027FD3095AC014770507002C035952795F7
:105460004A95E2F7EC01219620FD05C061E070E06D
:105470000E94DC2907C0CE0121E0C030D207F1F63E
:10548000CFEFDFEFCE01DF91CF91FF90EF90089546
:105490000F931F93CF93DF93C0E0D0E02196CE010E
:1054A0006DE070E00E94AC22082FCE016CE070E04D
:1054B0000E94AC220130A9F4823099F40EE010E091
:1054C000CE01B8010E94AC22882331F090E0019710
:1054D00061E070E00E94DC290F5F1F4F063111056B
:1054E00079F7C036D105D1F6DF91CF911F910F9199
:1054F0000895019760E070E00E94DC29089520E0A3
:1055000030E080E090E0F90143E0F595E7954A95B9
:10551000E1F7ED56FC4F4081552747FD5095B90105
:105520006770707002C0559547956A95E2F740FD27
:1055300001962F5F3F4F41E02030340721F7281BB1
:10554000390BC9010895089580E69CE06CE070E095
:1055500046EC59E00E94B51A089580E69CE06CE0A4
:1055600070E046EC59E00E94B81A0895FC01CB01A6
:1055700068E070E00E94A04DE60FF71F20813327FE
:1055800027FD309502C0359527958A95E2F7217061
:105590003070C9010895FC01CB019A0168E070E008
:1055A0000E94A04DE60FF71F90812115310549F0AB
:1055B00021E030E002C0220F331F8A95E2F7292B49
:1055C00009C021E030E002C0220F331F8A95E2F7C4
:1055D0002095292320830895E6ECF9E0119289E0D3
:1055E000E23DF807D9F708950F931F93CF93DF9308
:1055F000C0E0D0E086EC99E0BE010E94B62A8E01A0
:105600000F5F1F4F009741F486EC99E0BE0141E027
:1056100050E00E94CB2A06C0E8010036110551F780
:105620000FEF1FEFC801DF91CF911F910F910895E8
:105630000F931F93CF93DF93C0E0D0E001C0E80148
:105640008E010F5F1F4FC8016DE070E00E94AC2219
:10565000882331F486EC99E0BE0140E050E005C0BB
:1056600086EC99E0BE0141E050E00E94CB2A003672
:10567000110529F7DF91CF911F910F910895BC017A
:105680006150704086EC99E040E050E00E94CB2AE7
:105690000895EF92FF920F931F93CF93DF9300E053
:1056A00010E0C0E0D0E086EC99E0BE010E94B62A8E
:1056B0008130910511F40F5F1F4F2196C036D1053F
:1056C00091F7C01BD10BCE01DF91CF911F910F91AC
:1056D000FF90EF9008958FB7F8949598DB988FBF5F
:1056E0000895DB9A08952FB7F89492B3977D92BBF3
:1056F00080E0959A8299806892BB959A829980649D
:1057000092BB959A8299806292BB959A82998061A8
:1057100092BB959A8299886092BB959A829984608F
:1057200092BB959A8299826092BB959A8299816088
:105730002FBF0895282F3FB7F89492B3977D92BB5F
:1057400080E027FD939A959A92BB26FD939A959AAD
:1057500092BB25FD939A959A92BB24FD939A959AB4
:1057600092BB23FD939A959A92BB22FD939A959AA8
:1057700092BB21FD939A959A92BB20FD939A959A9C
:105780003FBF0895AF92BF92CF92DF92EF92FF9208
:105790000F931F93DF93CF9300D000D0CDB7DEB728
:1057A000B42EA52E7901813011F484E801C087E878
:1057B00089831A827B836C830E946B2B8E010F5F1F
:1057C0001F4F85E0C82ED12CCC0EDD1EF801819133
:1057D0008F010E949A2B0C151D05C1F7C501C92E1A
:1057E000DA2C00E010E007C0F60181916F010E9401
:1057F0009A2B0F5F1F4F0E151F05B0F30E94712BE0
:1058000081E00F900F900F900F90CF91DF911F913B
:105810000F91FF90EF90DF90CF90BF90AF900895E1
:10582000EF92FF920F931F93DF93CF9300D000D09E
:10583000CDB7DEB7813011F483E801C086E88983F3
:10584000CB01880F892F881F990B91958A83660F4A
:105850006B831C820E946B2B8E010F5F1F4F95E0A4
:10586000E92EF12CEC0EFD1EF80181918F010E94B2
:105870009A2B0E151F05C1F70E94712B81E00F9026
:105880000F900F900F90CF91DF911F910F91FF908C
:10589000EF9008950F931F930E944837082F0E949E
:1058A0006B2B87ED0E949A2B0E94732B182F0E945E
:1058B000712B802F0E944B37812F8095881F88275E
:1058C000881F1F910F910895EF92FF920F931F93DE
:1058D000DF93CF9300D000D0CDB7DEB7E82E8B0199
:1058E0000E944A2C8823E1F76091B8037091B903B4
:1058F0008091BA030E94102C0E944A2C8823E1F761
:105900008E2D813011F483E501C085E58983C801BE
:10591000880F892F881F990B91958A83000F0B831D
:105920001C820E946B2B8E010F5F1F4F35E0E32E10
:10593000F12CEC0EFD1EF80181918F010E949A2B33
:105940000E151F05C1F70E94712B81E00F900F907B
:105950000F900F90CF91DF911F910F91FF90EF90DB
:1059600008952F923F924F925F926F927F928F9203
:105970009F92AF92BF92CF92DF92EF92FF920F93DE
:105980001F93DF93CF93CDB7DEB728970FB6F89468
:10599000DEBF0FBECDBF6B018D839E836091B303CD
:1059A0007091B4038091B5039091B60328E031E083
:1059B00040E050E00E94B34D89014B010E944A2C07
:1059C0008823E1F76624772468E0462E61E0562EAE
:1059D0001E010894211C311CCE01059698878F83E7
:1059E0008DC0C4018C0D9D1DE1E089309E0720F023
:1059F0007201E818F90801C076018091B80390910E
:105A0000B9030817190709F44DC08091B70388231B
:105A100071F00E944A2C8823E1F76091B8037091DD
:105A2000B9038091BA030E94102C1092B7038091A1
:105A3000BA03813011F482E001C081E08093BA039F
:105A40001093B9030093B803F8E0EF16F1E0FF06F6
:105A500048F40E944A2C8823E1F78091BA03B801E8
:105A60000E94642C0E944A2C8823E1F721E82983B4
:105A7000C801880F892F881F990B91958A83802FE1
:105A8000880F8B831C820E946B2B5101F501819141
:105A90005F010E949A2B8F819885A816B906B1F7ED
:105AA0000E94712B4D815E81460D571D8091BA0376
:105AB000B40197010E94C22B91E09093B7036E0C42
:105AC0007F1C970140E050E08091B3039091B403B4
:105AD000A091B503B091B603820F931FA41FB51F09
