:100000000C9446000C9465000C9465000C946500FB
:100010000C9465000C9465000C9465000C94D7104A
:100020000C9465000C9465000C9465000C94A1136D
:100030000C9409140C9465000C9465000C94C73161
:100040000C9465000C9465000C9493080C94650066
:100050000C9465000C940C190C9465000C946500CC
:100060000C9465000C9465000C9434320C9465007B
:100070000C9465000C9465000C9465000C9465006C
:100080000C9465000C9465000C94650011241FBE4F
:10009000CFEFD0E1DEBFCDBF11E0A0E0B1E0EAEAF2
:1000A000F3E900E00BBF02C007900D92AA35B1073B
:1000B000D9F71CE0AAE5B1E001C01D92AD33B1074C
:1000C000E1F70E94FA020C94D3490C9400001F93AC
:1000D0001BE088EE93E00E94D647812F0E941F44C8
:1000E00080E091E00E9480440E9482001F5F1931ED
:1000F00080F3EECFE8E8FCEE09950895E0E8FCEE29
:1001000009950895E4E8FCEE09950895ECE8FCEE05
:1001100009950895E0E9FCEE09950895ECE9FCEEF7
:1001200009950895E0EAFCEE09950895E4E9FCEEEE
:1001300009950895E8E9FCEE099508950E9435199E
:10014000E0912509F0912609968F858F08950E94E8
:100150004019E0912509F0912609968F858F089521
:100160000E944B19E0912509F0912609968F858F01
:1001700008950E945419E0912509F0912609968F5F
:10018000858F08950E945D19E0912509F091260957
:10019000968F858F08950E946619E0912509F09148
:1001A0002609968F858F08958AE591E008956091DC
:1001B0005C0170915D0140915E0150915F01809101
:1001C0005A0190915B010E94921A089560915C011E
:1001D00070915D0140915E0150915F0180915A01E3
:1001E00090915B010E94951A08956091230570918A
:1001F00024054091080550910905809101059091D1
:1002000002050E940E1F87E064E00E94CB1808954B
:1002100060912305709124054091080550910905CE
:1002200080910105909102050E94251E87E063E000
:100230000E94CB18089580910105909102050E94BB
:10024000491D87E062E00E94CB1808958CE095E09C
:1002500063E075E00E94E41CE0910A05F0910B0553
:1002600092A381A387E061E00E94CB1808958CE0FF
:1002700095E0089583E095E0089580912509909197
:10028000260990930B0580930A0586E291E065E0CC
:100290000E9488140895E0912509F091260981A112
:1002A00092A190930205809301058BE191E065E0B6
:1002B0000E9488140895E0912509F091260981A1F2
:1002C00092A1909302058093010583A194A190933C
:1002D00024058093230585A196A190930905809319
:1002E000080588E091E065E00E9488140895E09197
:1002F0002509F091260981A192A19093020580938E
:10030000010583A194A1909324058093230585A1E1
:1003100096A1909309058093080585EF90E065E02C
:100320000E9488140895A0912509B09126099196FC
:10033000ED91FC919297E0930105F093020593965D
:100340004D915C9194975093220540932105959689
:100350002D913C919697309300052093FF046627DA
:1003600057FD6095762FCF010E944F1D0895DF93B2
:10037000CF9300D0CDB7DEB7842F952F9A83898392
:1003800089819A810E94810B0F900F90CF91DF910C
:100390000895DF93CF9300D0CDB7DEB7842F952F8C
:1003A0009A83898389819A810E949A0B0F900F907A
:1003B000CF91DF910895DF93CF9300D0CDB7DEB713
:1003C000842F952F9A83898389819A810E94A40B17
:1003D0000F900F90CF91DF91089580E292E069E055
:1003E0000E94881484E190E00E94C6170E941C0AB3
:1003F000089581E395E0089585E295E00895EF92F0
:10040000FF920F931F934091280550912905209149
:100410002A0530912B0500912C0510912D05E090B7
:100420002F05F0903005809125059091260560916B
:1004300027050E94420A1F910F91FF90EF900895A7
:1004400080913505882341F48091360590913705D8
:100450000E94D4368093350560913605709137053A
:1004600082E495E0409135050E9444366091330561
:100470007091340528E335E06115710549F08091EC
:10048000310590913205409135050E9495090895F6
:100490008091350580933805F90117821682809185
:1004A000310590913205918780871092A6051092B0
:1004B000A705B9010E94920A08959093320580938E
:1004C00031057093340560933305409335053093BF
:1004D00037052093360580E292E069E00E94881497
:1004E00084E190E00E94C6170E941C0A089585E2EC
:1004F00099E0089587E299E0089580936001609300
:1005000061011092AD051092AC055093AF05409378
:10051000AE058EE061E028EE33E040E050E00E945E
:10052000A13208952091AE053091AF0540E050E032
:100530008FE060E00E94A13208951F93CF93DF9374
:10054000EC01162F0E945E33DC01CB012091AD053A
:10055000E22FF0E033E0EE0FFF1F3A95E1F7E055B0
:10056000FA4F1283138284839583A683B783D18342
:10057000C083822F8F5F8093AD05803411F4109279
:10058000AD05DF91CF911F9108952091AC05809129
:10059000AD05281771F130E043E0220F331F4A9573
:1005A000E1F720553A4F8AE090E06FEF7FEF40E4AB
:1005B00050E00E9495096091AC05862F90E0709103
:1005C000AD05AC01495F5F4F272F30E0421753075D
:1005D00044F0761750F4883391051CF01092AC0566
:1005E0000895685F6093AC050895671710F47093E1
:1005F000AC050895AF92BF92CF92DF92EF92FF9237
:100600000F930E9448060E9418190E9476140E94B7
:100610000D150E9424070E946F190E94B8190E94AC
:10062000FD190E94421A83EC97E06FE071E048E008
:100630000E94443680EB97E068E171E047E00E9459
:10064000443688E090E09093C2078093C107809180
:10065000C1079091C20790936301809362016AE0A1
:1006600070E00E94D748605D6093B407805D80931E
:10067000B5070E940F2E0E945B1A80E29CE060E1A9
:1006800070E043EC57E00E94951A85E39CE060E13E
:1006900070E040EB57E00E94951A809162019091C2
:1006A00063010E949A030E94B8190E94FD190E94DA
:1006B000421A8091C1079091C2070E948E490E9400
:1006C0007E320E9461330E9480090E9490090E943C
:1006D000370A0E94EE3F85E10E949A0B8FE10E944B
:1006E000A40B82EC90E461E97AE04FE85BE020E063
:1006F00030E00FE0F0E2EF2EF1E0FF2ECC24DD241D
:10070000AA24BB240E943C1587E690E065E074E0D3
:100710004DEF54E020E030E0E9E2EE2EE1E0FE2E85
:100720000E943C150E94BA030E94C014FDCF80EBCA
:1007300097E00895BC018EE49CE00E94B31A0895EE
:100740008EE49CE00E94A11A0895682F84E59CE045
:100750000E94AD1A089584E59CE00E949B1A0895BA
:10076000000000000895789488950E94B0030895D1
:100770008895089578940895F89408958FB7F8941B
:1007800008958FBF0895E0E0F0E009950895000016
:100790000000089509C000000000000000000000F3
:1007A000000000000000019718161906A4F3089530
:1007B000DA9A0895DA98089521E030E0CA9902C0E3
:1007C00020E030E0C9010895D29A0895D2980895A2
:1007D000D99A0895D998089521E030E0C99902C0C6
:1007E00020E030E0C9010895D19A0895D198089584
:1007F000D89A0895D898089529B330E021703070C0
:10080000C9010895D09A0895D0980895DC9A089562
:10081000DC98089521E030E0CC9902C020E030E07F
:10082000C9010895D49A0895D4980895DD9A089539
:10083000DD98089521E030E0CD9902C020E030E05D
:10084000C9010895D59A0895D5980895DF9A089515
:10085000DF98089589B3992787FD9095892F881F80
:100860008827881F90E00895D79A0895D79808950B
:10087000DB9A0895DB98089521E030E0CB9902C01F
:1008800020E030E0C9010895D39A0895D3980895DF
:10089000959A08959598089521E030E0859902C0D1
:1008A00020E030E0C90108958D9A08958D9808954B
:1008B000939A08959398089521E030E0839902C0B7
:1008C00020E030E0C90108958B9A08958B9808952F
:1008D000929A08959298089521E030E0829902C09A
:1008E00020E030E0C90108958A9A08958A98089511
:1008F0001C9A08951C98089521E030E00C9902C0DC
:1009000020E030E0C9010895149A089514980895DC
:100910001D9A08951D98089521E030E00D9902C0B8
:1009200020E030E0C9010895159A089515980895BA
:100930001E9A08951E98089521E030E00E9902C095
:1009400020E030E0C9010895169A08951698089598
:100950001F9A08951F98089581B1992787FD909552
:10096000892F881F8827881F90E00895179A089577
:1009700017980895C29A0895C298089521E030E02A
:10098000B29902C020E030E0C9010895BA9A0895F2
:10099000BA980895C39A0895C398089521E030E065
:1009A000B39902C020E030E0C9010895BB9A0895D0
:1009B000BB980895C19A0895C198089521E030E048
:1009C000B19902C020E030E0C9010895B99A0895B4
:1009D000B9980895A89A0895A898089523B330E087
:1009E00021703070C9010895A09A0895A0980895C3
:1009F000A99A0895A998089521E030E0999902C034
:100A000020E030E0C9010895A19A0895A1980895C1
:100A1000AA9A0895AA98089521E030E09A9902C010
:100A200020E030E0C9010895A29A0895A29808959F
:100A3000AB9A0895AB98089521E030E09B9902C0ED
:100A400020E030E0C9010895A39A0895A39808957D
:100A5000AC9A0895AC98089521E030E09C9902C0CA
:100A600020E030E0C9010895A49A0895A49808955B
:100A7000AD9A0895AD98089521E030E09D9902C0A7
:100A800020E030E0C9010895A59A0895A598089539
:100A9000AE9A0895AE98089521E030E09E9902C084
:100AA00020E030E0C9010895A69A0895A698089517
:100AB000AF9A0895AF98089583B3992787FD9095CD
:100AC000892F881F8827881F90E00895A79A089586
:100AD000A7980895909A08959098089520B330E0CB
:100AE00021703070C9010895889A089588980895F2
:100AF000919A08959198089521E030E0819902C07B
:100B000020E030E0C9010895899A089589980895F0
:100B1000189A08951898089521B130E02170307026
:100B2000C9010895109A089510980895199A089582
:100B30001998089521E030E0099902C020E030E0E2
:100B4000C9010895119A0895119808951A9A08955F
:100B50001A98089521E030E00A9902C020E030E0C0
:100B6000C9010895129A0895129808951B9A08953C
:100B70001B98089521E030E00B9902C020E030E09E
:100B8000C9010895139A089513980895929A0895A3
:100B90009298089521E030E0829902C020E030E090
:100BA000C90108958A9A08958A980895939A089594
:100BB0009398089521E030E0839902C020E030E06E
:100BC000C90108958B9A08958B980895959A089570
:100BD0009598089521E030E0859902C020E030E04A
:100BE000C90108958D9A08958D9808950E94A804CA
:100BF00008950E94AA04089581B1881F8827881F3C
:100C000008950E94B60408950E94B80408950E94B1
:100C1000880408950E948A0408950E948C0408950F
:100C20000E94940408950E94960408950E949804D6
:100C300008950E949A0408950E949C0408950E94B9
:100C4000A40408950E94A60408950E94180508951A
:100C50000E941A05089508950E94080508950E94AB
:100C60000A05089508950E94280508950E942A05FE
:100C7000089508950E94380508950E943A05089540
:100C800008950E94480508950E944A050895089510
:100C90000E94E4030E9402040E94F4030E9466057D
:100CA0000E9454050E9444050E9434050E942405B8
:100CB0000E9414050E9404050E94F4040E9414047A
:100CC0000E9408040E9444040E9464040E94540488
:100CD0000E9438040E94D8030E94F8030E94E8038F
:100CE00008959AB790629ABF882319F08AB78061F5
:100CF00002C08AB78F7E8ABF0895DE9A0895DE9873
:100D0000089521E030E0CE9902C020E030E0C90132
:100D10000895D69A0895D6980895DD9A0895DD9895
:100D2000089521E030E0CD9902C020E030E0C90113
:100D30000895D59A0895D59808951E9A08951E98F5
:100D4000089521E030E00E9902C020E030E0C901B2
:100D50000895169A0895169808951E9A08951E9853
:100D6000089521E030E00E9902C020E030E0C90192
:100D70000895169A089516980895969A0895969843
:100D8000089521E030E0869902C020E030E0C901FA
:100D900008958E9A08958E980895949A0895949837
:100DA000089521E030E0849902C020E030E0C901DC
:100DB00008958C9A08958C980895C09A0895C098C3
:100DC000089526B330E021703070C9010895B89AB3
:100DD0000895B8980895C79A0895C798089586B356
:100DE000992787FD9095892F881F8827881F90E075
:100DF0000895BF9A0895BF980895969A0895969871
:100E0000089521E030E0869902C020E030E0C90179
:100E100008958E9A08958E9808950E94D8040E948D
:100E2000C6040E94E6040E9489060E9499060E9458
:100E3000E9060E94BB060E94CB060E94DB060E94C8
:100E4000FB060E940B070895109290008FE089B96D
:100E5000599AE5E9F0E08081866080838AB18869EB
:100E60008AB981E08093890310928A0310928B03E0
:100E70000895DF93CF930F92CDB7DEB7909189039A
:100E8000992321F489830E94240789815D9BFECFE9
:100E90008CB90F90CF91DF910895DF93CF930F928C
:100EA000CDB7DEB790918903992321F489830E94FD
:100EB000240789815D9BFECF8CB90F90CF91DF9184
:100EC0000895EF92FF920F931F93DF93CF930F92AA
:100ED000CDB7DEB7182F8CEF99830E94390799811F
:100EE000612F792F8B0102C00E943907F80181918F
:100EF0008F018823C9F78CEF0E9439070F90CF919B
:100F0000DF911F910F91FF90EF900895EF92FF9264
:100F10000F931F93DF93CF930F92CDB7DEB7182FA8
:100F2000062F8CEF99830E9439079981612F792FC1
:100F30007B0105C0F70181917F010E9439078E2D49
:100F4000811B8017B8F38CEF0E9439070F90CF9167
:100F5000DF911F910F91FF90EF900895EF92FF9214
:100F60001F93DF93CF930F92CDB7DEB7182FE12FEA
:100F7000F92F7F0107C0F70181917F0169830E94EA
:100F80004D0769818E2D811B8617A8F30F90CF9195
:100F9000DF911F91FF90EF9008958A3010F0895AE9
:100FA00001C0805D0E9439070895DF93CF9300D080
:100FB00000D0CDB7DEB769837A838B839C838C8125
:100FC0000E9439078B810E9439078A810E94390764
:100FD00089810E9439070F900F900F900F90CF9149
:100FE000DF9108951F93182F82958F700E94CD076F
:100FF000812F8F700E94CD071F910895EF92FF926D
:101000000F931F937B018C018DEF0E943907C8015C
:10101000B7010E94D5078DEF0E9439071F910F91EC
:10102000FF90EF900895EF92FF920F931F937B0133
:101030008C018EEF0E943907C801B7010E94D507C5
:101040008EEF0E9439071F910F91FF90EF90089546
:101050008CEF0E9439078DE60E9439078DE60E94C9
:1010600039078DE60E9439078CEF0E9439070895F1
:10107000DF93CF9300D000D0CDB7DEB769837A83FA
:101080008B839C8380E30E94390788E70E9439079D
:101090008C810E94F2078B810E94F2078A810E9454
:1010A000F20789810E94F2070F900F900F900F9026
:1010B000CF91DF9108952F923F924F925F926F925E
:1010C0007F928F929F92AF92BF92CF92DF92EF92D8
:1010D000FF920F931F931B012C0139014A0181E0FC
:1010E0000E943907C201B1010E943808C401B3014E
:1010F0000E943808C801B7010E943808C601B5012E
:101100000E9438081F910F91FF90EF90DF90CF90D1
:10111000BF90AF909F908F907F906F905F904F9017
:101120003F902F9008951F920F920FB60F920BB61B
:101130000F921124FF920F931F932F933F934F937E
:101140005F936F937F938F939F93AF93BF93EF932F
:10115000FF930CB10E942537F82E0E94D1190E94EE
:10116000161A0E943015882371F02DB73EB73093C0
:10117000A4092093A30920911F09309120093EBFA3
:101180002DBF11E001C010E08F2D0E9428370136DD
:10119000B9F40E9425375F9BFECF9CB15F9BFECFC9
:1011A0002CB1E8E6F3E0205330E02E0F3F1F04C0DF
:1011B0005F9BFECF9CB19193E217F307C9F70EC076
:1011C0000A3771F40E942537E8E6F3E05F9BFECF13
:1011D0009CB1919393E0E938F907C1F70E94283751
:1011E0000E942537113061F42DB73EB730932009A6
:1011F00020931F092091A3093091A4093EBF2DBF60
:101200000E942837FF91EF91BF91AF919F918F91ED
:101210007F916F915F914F913F912F911F910F910E
:10122000FF900F900BBE0F900FBE0F901F90189560
:101230001F93CF93DF93EC010E942537182F0E9454
:1012400097030E94610786E491E00E946107CE0146
:101250000E946107812F0E942837DF91CF911F9153
:101260000895DF93CF930F92CDB7DEB70E94253755
:1012700089830E94280889810E9428370F90CF9186
:10128000DF910895DF92EF92FF920F931F937B01FE
:101290008C010E942537D82E0E9497030E94610777
:1012A00086E491E00E946107C801B7010E94FE0731
:1012B0008D2D0E9428371F910F91FF90EF90DF90A6
:1012C0000895DF92EF92FF920F931F937B018C01A1
:1012D0000E942537D82E0E9497030E94610786E45A
:1012E00091E00E946107C801B7010E9413088D2D8B
:1012F0000E9428371F910F91FF90EF90DF90089583
:101300000E943D0D1092D4071092DA071092D9076F
:101310001092D6071092D50708950E94900D089557
:101320000E94900D1092D4070895CF92DF92EF9211
:10133000FF920F931F93DF93CF930F92CDB7DEB73A
:101340007C016B0189018091D407882301F581E03C
:101350008093D407453618F01092D40718C08CE259
:101360009AE064E149830E9488144981882319F432
:101370001092D4070DC01093DC070093DB07F8012F
:101380004083D782C682F186E08681E001C080E09A
:101390000F90CF91DF911F910F91FF90EF90DF9011
:1013A000CF90089581E0089580E0089581E0089548
:1013B00081E00895CB010895CB010895EF92FF924B
:1013C000CF93DF93EC012091C1073091C207909336
:1013D000D8078093D7078091D5079091D6070196BB
:1013E0009093D6078093D507FE01E059FF4F808187
:1013F000813089F48E819F814FEF8F3F940719F0E0
:101400008217930741F488859985BE010E94920A4C
:10141000009709F0EC01CE01DF91CF91FF90EF90A2
:1014200008950E94DE0908951092D40781E008957E
:101430001092D40781E008951092D4070E94CC0F37
:101440000895CF93DF93EC010E941C0ACE010E9405
:10145000380EDF91CF9108958091DB079091DC07E2
:101460000E94210A882311F41092D4070895109243
:10147000E8071092F4071092000810920C081092DE
:1014800018080895EF92FF920F931F93E8EEF7E08C
:10149000A0E0B0E070817723C9F4FD01EE0FFF1FDB
:1014A000EA0FFB1FEE0FFF1FEE0FFF1FE152F84F79
:1014B000918380836283548343833683258310879B
:1014C0000783F386E28681E0818705C011963C960A
:1014D000A530B105F9F61F910F91FF90EF90089597
:1014E000EFEDF7E020E030E041854130A1F44081AC
:1014F00051814817590779F4F901EE0FFF1FE20FE8
:10150000F31FEE0FFF1FEE0FFF1FE152F84F118682
:101510001182108208952F5F3F4F3C962530310590
:1015200019F70895FF920F931F93CF93DF938B01C9
:101530007093DE076093DD07EFEDF7E0C0E0D0E0E9
:10154000208131812817390709F05EC021852130BB
:1015500009F05AC0FE01EE0FFF1FEC0FFD1FEE0F4A
:10156000FF1FEE0FFF1FE152F84F25813681D80192
:101570008C91F2808F1508F4F82EF8013A9680E0ED
:1015800005C09191D9019D939D018F5F8F15C9F77A
:10159000FE01EE0FFF1FEC0FFD1FEE0FFF1FEE0F02
:1015A000FF1FE152F84F0780F085E02D309751F092
:1015B000D801A259BF4F8C918083D801A159BF4F48
:1015C0008C918183FE01EE0FFF1FEC0FFD1FEE0FCC
:1015D000FF1FEE0FFF1FE152F84F828593850097A2
:1015E00019F066E00E948814FE01EE0FFF1FEC0F59
:1015F000FD1FEE0FFF1FEE0FFF1FE152F84F03809C
:10160000F481E02DF08206C021963C96C530D105CC
:1016100009F096CFC801DF91CF911F910F91FF90F4
:101620000895EFEDF7E02185213059F423813481CD
:101630006217730730F02817390718F011861182E6
:1016400010823C9628E0EB31F20769F708950E947A
:101650003B0D08950E947E1108950E948D0688E535
:1016600092E00E94CA0381E008950E948F0688E5F7
:1016700092E00E94CA0381E008950E943B0D089504
:101680000E94BA1208950E94891208958DE168E1BE
:1016900070E00E94891281E00E947E1181E00E9428
:1016A000BA1281E008950E94581308951F930E9472
:1016B000253790911B08923029F493E090931B08F2
:1016C00011E001C010E00E942837112379F00E9438
:1016D00058130E942D0B0E947F060E94B0030E94A7
:1016E0007D060E94B0030E94460B01C080E01F915E
:1016F000089583E00E94BA1281E008950E94C00D0F
:101700000895BC016050784080912D0890912E087A
:1017100080709C7F682B792B70932E0860932D0826
:1017200088E10E94891286FF03C083E00E94BA12FA
:1017300081E0089595E0899FC0011124825D964F54
:101740000E94810B81E0089590E08F71907020914C
:10175000270830912808207E822B932B909328080D
:101760008093270860912D0870912E0885E10E94D2
:10177000891286FF03C083E00E94BA1281E00895B7
:1017800081E008950E942E120895DF93CF9300D038
:10179000CDB7DEB79A8389830E940E369A838983F8
:1017A0008AE691E062E0AE014F5F5F4F0E942E1229
:1017B0000F900F90CF91DF9108950E94D512089558
:1017C00060911D0870911E0880E10E94891260914D
:1017D0001F087091200881E10E94891281E10E9416
:1017E000D51220911F08309120088217930709F025
:1017F00055C0609121087091220882E10E948912EF
:10180000609123087091240883E10E9489126091FD
:1018100025087091260884E10E94891260912708AA
:101820007091280885E10E948912609129087091C1
:101830002A0886E10E94891260912B0870912C0879
:1018400087E10E94891260912D0870912E0888E12D
:101850000E94891260912F087091300889E10E94DE
:10186000891260913108709132088AE10E948912D0
:1018700060913508709136088CE10E948912609160
:101880003708709138088DE10E94891289E00E9422
:10189000BA1288E00E94BA1281E0089580E00895AB
:1018A0000E94E00B8091C1079091C2070E94C50B76
:1018B00080912D0890912E0891708050984F0E9431
:1018C000810B0E94253794E090931B080E942837D3
:1018D0000E94C00D08958DE160E070E00E948912C1
:1018E00080E59CE065E00E94881480E008951F93E5
:1018F0000E94F711182F0E940E13682F812F0E944B
:101900000B371F9108951F930E94253710911B08D4
:1019100010921B089BE0909339089FE190931C085C
:101920000E942837112309F068C00E94770C80E0DC
:1019300098EF90931E0880931D0882EE92E090939A
:10194000200880931F0880E095E090932208809300
:10195000210880E890EE90932408809323088FE07C
:1019600097EA909326088093250880911C0890E0C0
:10197000806E9066909328088093270885EE92E108
:1019800090932A088093290886E59AE090932C0882
:1019900080932B089091390885E0989FC00111240D
:1019A000825D9E4F906490932E0880932D0884EC66
:1019B00091E09093300880932F0810923208109293
:1019C000310810923408109233088FE792E0909318
:1019D00036088093350810923808109237080E9414
:1019E000253792E090931B080E94283787E29BE0FE
:1019F00065E00E94881481E001C080E01F91089595
:101A0000CF93DF930E94253792E09093B808C0915E
:101A1000B608D091B70898819B5098830E942837C8
:101A2000CE0161E00E94140ADF91CF910895CF9317
:101A3000DF930E942537C0913A08D0913B080E945D
:101A40002837CE010E94110AEC010E942537209709
:101A500021F0D0933B08C0933A08E0913A08F09106
:101A60003B08108210923D080E942837DF91CF91E9
:101A7000089581E0089581E008950E94253710922D
:101A8000B80810923C081092B20810923D082EE35C
:101A900038E030933B0820933A0810923E080E94A9
:101AA00028378091C1079091C2079093B508809321
:101AB000B4080E94830C08950E94560B08951F934A
:101AC0000E9425371091B8080E942837112389F405
:101AD0000E9425379AE09093B8081092B308E091DD
:101AE0003A08F0913B0810820E9428370E94560B5A
:101AF00001C080E01F9108951F930E9425379091A7
:101B0000B808913021F41092B80811E001C010E03B
:101B10000E942837113011F40E945F0D1F91089523
:101B20000F931F930E942537182F8091B8088823A0
:101B300061F48CE79DE065E00E948814882329F019
:101B400081E08093B80801E001C000E0812F0E948D
:101B50002837802F1F910F91089581E0089581E02B
:101B600008950E94BC1108950E94BA1208950E941F
:101B7000011008950E94361108950E94790B08956E
:101B80001F930E9425371091B8080E9428371A30F9
:101B900079F40E94790B80E00E94361181E00E9466
:101BA000BC110E94253792E09093B8080E94283714
:101BB00081E01F9108950E94D51208950E94491155
:101BC00008950E94110A08950E94631008950E94CA
:101BD000140A08950E94D21108950E94253792E0B8
:101BE0009093B8080E9428378091B6089091B70862
:101BF000FC0120812B50208360E00E94140A08958C
:101C0000CF93DF93EC018091B808833019F08430D2
:101C100059F519C080E00E94BC110E94D1060097BE
:101C200019F40E94D21103C084E08093B808E091B7
:101C3000B608F091B708EE58FF4FD183C08380916A
:101C4000B808843089F086E08093B8080E94D211E9
:101C500081E00E94BC1180E09DE065E00E94881454
:101C6000882311F40E94ED0D81E0DF91CF9108955A
:101C70001F93CF93DF93EC010E9425371091B80892
:101C80000E9428371230F1F588E08A838091B208EB
:101C9000882311F081E201C081E089838FEF9FEFFB
:101CA0009D838C838E819F810E940E369F838E83BD
:101CB0008881855F888380913C088F5F80933C0892
:101CC0008B83FE01EE58FF4F118210828881825073
:101CD0008093B908D093B708C093B60888E0809382
:101CE000B3080E94253795E09093B8080E942837E2
:101CF00089E89EE065E00E948814882329F40E9408
:101D0000ED0D02C080E001C081E0DF91CF911F9115
:101D1000089589E00E94BA12882319F40E94ED0DFB
:101D200008958091B9086091B6087091B7088F5FE7
:101D30000E940110882311F40E94ED0D089585E0A2
:101D40000E94BA1280E00E94BA1286958695869506
:101D500080FF04C081E00E94BC1108950E94ED0D37
:101D600008950E9449118FE30E94D51288E00E94D5
:101D7000BA1288E00E94BA120E94253710923D08DC
:101D80000E94283780E00E94361108951F93CF9358
:101D9000DF93182FEB010E9425370E9428370E94FD
:101DA000EF06009721F40E94A1060097A1F01123ED
:101DB00091F0113780F4D0933B08C0933A088981A1
:101DC0008770813041F48A81883029F488818B5072
:101DD0008883853648F00E94B10E0E942537109204
:101DE0003D080E9428374AC08E819F810E9420367C
:101DF0009F838E8320913A0830913B08812F90E099
:101E0000FC013197EC0FFD1FD901A059BF4F408154
:101E1000441F4427441F4C93D901A259BF4FC80FF8
:101E2000D91F229788818C9321593F4F80818F77CA
:101E3000F90180830E942537182F87E19DE065E036
:101E40000E948814882311F410923D08812F0E946B
:101E500028370E94EF06009721F40E94A106009700
:101E600059F00E94A106009739F487EC9FE065E0E5
:101E70000E948814882311F40E94B10E81E0DF9142
:101E8000CF911F9108951F930E94EF06009719F4B8
:101E90000E94B10E12C00E942537182F87EC9FE0D8
:101EA00065E00E948814882319F00E94491102C03D
:101EB0000E94B10E812F0E94283781E01F91089562
:101EC0001F930E9425371091B8080E9428371530BB
:101ED000C1F40E94EF06009731F40E94A10600971A
:101EE00011F40E94B10E0E940107009761F00E9458
:101EF000253793E09093B8080E9428370E949F0EE0
:101F000002C00E94B10E1F9108950E94600F81E0EF
:101F100008950F931F930E94EF06009721F40E94EB
:101F2000A106009779F10E942537082F10913D08EE
:101F3000112351F087EC9FE065E00E94881488230C
:101F400031F40E94B10E03C081E080933D08802FE0
:101F50000E9428371123B1F460913A0870913B0830
:101F600080E70E946310882369F40E94253710924D
:101F70003D080E94283787EC9FE065E00E948814A6
:101F8000882311F40E94B10E1F910F9108950E94B1
:101F9000890F089581E0089582E08093B80808953C
:101FA0001F93CF93DF930E9425371091C208C091F1
:101FB000BC08D091BD081092C1080E942837812F1B
:101FC000BE010E94C60EDF91CF911F9108951F930D
:101FD000CF93DF930E9425371091BA08C091BF08B4
:101FE000D091C0081092BE080E942837812FBE01F0
:101FF0000E94850FDF91CF911F9108950E94850F58
:102000000895EF92FF920F931F93DF93CF930F9258
:10201000CDB7DEB7182F7B010E9425379091BE08FF
:10202000992329F491E09093BE0800E001C001E0FB
:102030000E9428370023D1F50E9425371092BB0853
:102040001093BA08F092C008E092BF0889830E94FA
:10205000DF069EE39FB98981779BFECF1FB190E099
:102060000DC0E091BF08F091C00821912FB9F09305
:10207000C008E093BF08779BFECF9F5F2091BA080E
:10208000921778F391E09093BB080E9428370E9442
:10209000DD0687EE9FE065E00E948814882339F40E
:1020A0000E9425371092BE080E94283710E0812F29
:1020B0000F90CF91DF911F910F91FF90EF900895B6
:1020C0000E94C60E0895EF92FF920F931F93DF9325
:1020D000CF930F92CDB7DEB7182F7B010E94253723
:1020E0009091C108992329F491E09093C10800E0F0
:1020F00001C001E00E942837002309F04DC00E9472
:1021000025371092BB08F092BD08E092BC08898385
:102110000E94DF069FE79FB98981779BFECF9FB121
:102120001FB8779BFECF9FB19093C208992301F10E
:10213000E091BC08F091BD0890839091C2089F5F28
:102140009093C208191710F41093C20891E00CC0C4
:102150001FB8779BFECF2FB1E091BC08F091BD086E
:10216000E90FF11D20839F5F2091C208921780F331
:1021700091E09093BB080E9428370E94DD0680ED15
:102180009FE065E00E948814882341F40E9425376F
:102190001092C1080E94283780E001C081E00F90B2
:1021A000CF91DF911F910F91FF90EF9008951F92B3
:1021B0000F920FB60F920BB60F9211240F931F932D
:1021C0002F933F934F935F936F937F938F939F933F
:1021D000AF93BF93EF93FF930E942537082F0E9480
:1021E0003015882371F02DB73EB73093A4092093A2
:1021F000A30920911F09309120093EBF2DBF11E096
:1022000001C010E0802F0E9428370E94430F8823CE
:1022100031F489B78F7B89BF88B7806488BF0E94FB
:102220002537113061F42DB73EB730932009209344
:102230001F092091A3093091A4093EBF2DBF0E9420
:102240002837FF91EF91BF91AF919F918F917F912F
:102250006F915F914F913F912F911F910F910F902F
:102260000BBE0F900FBE0F901F9018950F931F93EA
:10227000082F0E942537182F802F0E94710689B7DA
:10228000806489BF812F0E94283781E01F910F91C0
:10229000089589B78F7B89BF81E008950E94430F1D
:1022A0000895982F9A01AB018AE0692F0E94A1320C
:1022B000089580E0089580E008950E94EF069091CF
:1022C000C3082091CA08291711F0891751F080938B
:1022D000CA0881E041E050E060E070E00E945111E6
:1022E000089581E008950E946B0C0895982F9A013B
:1022F000AB018BE0692F0E94A13208951F93182F24
:102300000E9425371093CC080E9428370E94C106EE
:102310008093CB0881E041E050E060E070E00E94F3
:1023200076111F9108951F930E94C106182F809166
:10233000CC089091CB08981731F0181721F40E941F
:102340006B0C882351F01093CB0881E041E050E002
:1023500060E070E00E94761101C081E01F91089555
:102360000E94751308950E947F1308950E94FD1323
:1023700008950E94831308950F931F93082F0E94BE
:102380002537182F0E948313802F0E94FD130E946F
:102390007F130E947513812F0E94283781E01F91BF
:1023A0000F9108950E94831381E008950E94000E0A
:1023B00008950E94FA1308950E94000E882319F4CC
:1023C0000E94831308950E94FA13882311F00E943B
:1023D0007F1308954091D4085091D5088091D70873
:1023E0009091D8086091D3080E94C00B0895DF93A4
:1023F000CF930F92CDB7DEB781E08093D6080E94CD
:10240000D8040E94C6040E94E6040E9489060E9425
:1024100099060E94E7060E94BB060E94CB060E9416
:10242000DB060E94FB060E94253789830E94E60492
:102430000E94D8040E94C604709A6C9A6B986A989D
:10244000699868986E9A89810E94283781E00F9078
:10245000CF91DF9108950E94C00B0895EF92FF92F3
:102460000F931F93DF93CF930F92CDB7DEB77C010D
:102470008A018091D608882309F442C069830E94AA
:1024800025371092D608F092D808E092D7086981D3
:102490006093D3081093D5080093D40889830E94D1
:1024A000DF069091D70890689FB98981779BFECF0E
:1024B0009FB12091D7083091D80836952795207C78
:1024C0002FB9779BFECF9FB190E00BC0E091D4086D
:1024D000F091D508E90FF11D20812FB9779BFECF30
:1024E0009F5F2091D308921788F30E94283781E0DC
:1024F0008093D6088AEE91E165E00E94881401C0BD
:1025000080E00F90CF91DF911F910F91FF90EF909E
:1025100008950F931F93DF93CF9300D00F92CDB701
:10252000DEB7182F6A837B830E9425371092D60866
:1025300089830E94DF061FB989817B816A81779B2D
:10254000FECF0FB11F3030F07FB9779BFECF6FB950
:10255000779BFECF91E09093D6080E9428370E9487
:10256000DD06802F0F900F900F90CF91DF911F917C
:102570000F9108951F93DF93CF930F92CDB7DEB7DE
:10258000182F0E94253789830E94DF061FB9898191
:10259000779BFECF1FB10E9428370E94DD06812F56
:1025A0000F90CF91DF911F910895CF92DF92EF921C
:1025B000FF921F93DF93CF930F92CDB7DEB7182F03
:1025C0000E9425371092D60889830E94DF06106486
:1025D0001FB98981779BFECF9FB11FB8779BFECF34
:1025E0009FB11FB8779BFECFD92ECC241FB1898312
:1025F0000E94DD0691E09093D60889810E942837D9
:10260000212F30E02C293D29C9010F90CF91DF9176
:102610001F91FF90EF90DF90CF9008950E94253793
:1026200094E09093E9082FEF30E03093E80820938E
:10263000E7080E94283781E008950F931F93DF93E6
:10264000CF930F92CDB7DEB78C01677069830E947C
:1026500025371FBC97B79F7E97BF97B79B7F97BFC4
:1026600097B79F7D97BF1DBC1CBC1BBD0ABD96B70D
:10267000906196BF698168606EBD0E94283781E0D5
:102680000F90CF91DF911F910F910895CF93DF931A
:102690000E942537C091E708D091E8080E942837AA
:1026A000CE0160E00E941D1381E0DF91CF9108957B
:1026B0000F931F93DF93CF930F92CDB7DEB70E9496
:1026C00025370091E7081091E8086091E9086983CF
:1026D0000E942837C80169810E941D1381E00F9074
:1026E000CF91DF911F910F9108958EB58F7E8EBD92
:1026F0008EB5877F8EBD87B7806287BF089586B706
:10270000846086BF089587B78F7D87BF86B7806254
:1027100086BF089581E0089581E00895EF92FF92C9
:10272000CF93DF930E942537C6B5D7B50E942837CF
:10273000CE01DF91CF91FF90EF9008950E94DC11C0
:1027400008951F920F920FB60F920BB60F9211249D
:102750000F931F932F933F934F935F936F937F93A9
:102760008F939F93AF93BF93EF93FF930E9425376F
:10277000082F0E943015882371F02DB73EB7309393
:10278000A4092093A30920911F09309120093EBF7D
:102790002DBF11E001C010E0802F0E9428370E9459
:1027A0008E130E94DC110E942537113061F42DB781
:1027B0003EB73093200920931F092091A30930913F
:1027C000A4093EBF2DBF0E942837FF91EF91BF9112
:1027D000AF919F918F917F916F915F914F913F91B9
:1027E0002F911F910F910F900BBE0F900FBE0F9066
:1027F0001F90189586B782700895882319F08EB5BA
:10280000806402C08EB58F7B8EBD86B7806286BF26
:1028100008951F920F920FB60F920BB60F921124CC
:102820000F931F932F933F934F935F936F937F93D8
:102830008F939F93AF93BF93EF93FF930E9425379E
:10284000082F0E943015882371F02DB73EB73093C2
:10285000A4092093A30920911F09309120093EBFAC
:102860002DBF11E001C010E0802F0E9428370E9488
:1028700025379091E108992381F09091E608909393
:10288000E90898609093E6089EBD2091E708309192
:10289000E8083BBD2ABD1092E1080E9428370E943B
:1028A0002537113061F42DB73EB7309320092093BE
:1028B0001F092091A3093091A4093EBF2DBF0E949A
:1028C0002837FF91EF91BF91AF919F918F917F91A9
:1028D0006F915F914F913F912F911F910F910F90A9
:1028E0000BBE0F900FBE0F901F90189510921A09F3
:1028F00080E090E0FC01EE0FFF1FE80FF91FE651AA
:10290000F74F1182108201968031910599F7089551
:102910000F931F93DF93CF930F92CDB7DEB78C0148
:1029200069830E94253790911A0969819031F9F0E5
:1029300020E030E0F901EE0FFF1FE20FF31FE65138
:10294000F74F408151814115510561F41183008396
:10295000628390911A099F5F90931A090E94283709
:1029600081E008C02F5F3F4F2031310519F70E94E9
:10297000283780E00F90CF91DF911F910F9108953C
:10298000CF93DF930E94253790911A09992341F440
:102990000E9428370E94BA030E94B80380E037C023
:1029A00020E030E0C0E0D0E060E090E0F901EE0F20
:1029B000FF1FE20FF31FE651F74F40815181411590
:1029C000510539F04281941720F4C081D181928160
:1029D000622F2F5F3F4F2031310541F7209781F063
:1029E00090911A09915090931A09262F30E0F9011D
:1029F000EE0FFF1FE20FF31FE651F74F1182108217
:102A00000E942837209711F0FE01099581E0DF919F
:102A1000CF910895FC01099508951F930E942537D1
:102A2000182F87E299E060E070E045E750E00E94EF
:102A30002B37109226091092250910922009109226
:102A40001F091092A4091092A3091092A0091092D4
:102A5000A6091092A509812F0E9428371F91089579
:102A60002DB73EB781E04091A5095091A6094217C4
:102A7000530708F480E008952F923F924F925F929F
:102A80006F927F928F929F92AF92BF92CF92DF927E
:102A9000EF92FF920F931F93CF93DF931C012B01B3
:102AA000EA01390146010E943015882309F096C0D9
:102AB0008091A5099091A6098C179D0720F4D093C9
:102AC000A609C093A50980912909882369F08091FE
:102AD0005009882361F080917709882309F07EC02E
:102AE00092E0C92ED12C06C0CC24DD2403C081E0A5
:102AF000C82ED12C0E942537182F87E290E0C89E5F
:102B0000F001C99EF00DD89EF00D1124E95DF64F3D
:102B1000F0932609E0932509D183C08382E0828364
:102B2000368E258E03830483528A418AD48BC38BCD
:102B3000148E138E768A658A908E878AB28EA18EC5
:102B4000C7010E94D4362091250930912609482FCB
:102B50004F5FC9010596B7010E944436F201E60DA8
:102B6000F71D8FEF9EEE91838083938382838DB7D1
:102B70009EB79093200980931F09E0912509F09159
:102B80002609808191819EBF8DBF8CEB97E18F9349
:102B90009F9382E290E01F920197E9F78DB79EB76D
:102BA0009183808380911F09909120099EBF8DBFE2
:102BB00010922609109225098091A009882341F4DA
:102BC00088E796E162E00E94881481E08093A00982
:102BD000812F0E94283721E030E002C020E030E061
:102BE000C901DF91CF911F910F91FF90EF90DF907E
:102BF000CF90BF90AF909F908F907F906F905F909D
:102C00004F903F902F90089590E027E230E0829F10
:102C1000F001839FF00D929FF00D1124E95DF64FB6
:102C2000748F638F08950E945B339093A209809301
:102C3000A1090E945E336093210970932209809359
:102C4000230990932409FF93FFB7FF930F921F92DC
:102C50002F923F924F925F926F927F928F929F92AC
:102C6000AF92BF92CF92DF92EF92FF920F931F939A
:102C70002F933F934F935F936F937F938F939F9384
:102C8000AF93BF93CF93DF93EF93FF938DB79EB72F
:102C90009093200980931F09E0912509F09126095E
:102CA000808191819EBF8DBFFF91EF91DF91CF9188
:102CB000BF91AF919F918F917F916F915F914F9154
:102CC0003F912F911F910F91FF90EF90DF90CF9048
:102CD000BF90AF909F908F907F906F905F904F903C
:102CE0003F902F901F900F90FF91FFBFFF9108958D
:102CF000AF92BF92CF92DF92EF92FF920F931F930A
:102D0000CF93DF930E942537E82E809129098430E4
:102D100061F080915009843059F0809177098430B6
:102D200009F094C0C2E0D0E005C0C0E0D0E002C02D
:102D3000C1E0D0E088E796E163E00E94881427E2D2
:102D400030E0C29F8001C39F100DD29F100D11244F
:102D5000095D164F85E0F80182838E2D0E94283789
:102D6000F801258D368D40E050E08C2F61E00E9407
:102D7000A13274C088E796E163E00E948814CE0116
:102D80000E94681897FD6AC047E250E0849F900156
:102D9000859F300D949F300D1124295D364F30935F
:102DA0002609209325090E9413160E945B339093F5
:102DB000A8098093A7090E945E337B018C01609370
:102DC0009C0970939D0980939E0990939F0980911F
:102DD000A7099091A8096091A1097091A209A090FA
:102DE0002109B0902209C0902309D09024098617A8
:102DF000970769F4EA18FB080C091D09E0921B0902
:102E0000F0921C0900931D0910931E091AC0681B3B
:102E1000790B80E090E020E039EF42E055E90E9434
:102E2000B8486A197B098C099D096E0D7F1D801FAA
:102E3000911F60931B0970931C0980931D09909347
:102E40001E09109226091092250908C08E2D0E9495
:102E500028370E944748EC0197FF8CCFDF91CF9134
:102E60001F910F91FF90EF90DF90CF90BF90AF90A8
:102E70000895FF93FFB7FF930F921F922F923F92F7
:102E80004F925F926F927F928F929F92AF92BF927A
:102E9000CF92DF92EF92FF920F931F932F933F9366
:102EA0004F935F936F937F938F939F93AF93BF9352
:102EB000CF93DF93EF93FF93E0912509F0912609DB
:102EC0008DB79EB79183808380911F0990912009CF
:102ED0009EBF8DBFFF91EF91DF91CF91BF91AF91D9
:102EE0009F918F917F916F915F914F913F912F9122
:102EF0001F910F91FF90EF90DF90CF90BF90AF9018
:102F00009F908F907F906F905F904F903F902F9009
:102F10001F900F90FF91FFBFFF9108951F93CF93D4
:102F2000DF930E942537182FE0912509F09126099B
:102F3000128281899289638974890E94110B0E948F
:102F4000AD1827E230E0829FE001839FD00D929F71
:102F5000D00D1124C95DD64FEB8DFC8D309719F043
:102F600009951C8E1B8E0E943917812F0E942837CD
:102F7000DF91CF911F910895E0912509F0912609E5
:102F8000858D968D0E940A150E948E17CF93DF9330
:102F9000EC010E943015882351F0E0912509F09151
:102FA000260984E08283D68FC58F0E943917DF916E
:102FB000CF9108958330E8F490E027E230E0829FDB
:102FC000F001839FF00D929FF00D1124E95DF64F03
:102FD0008281853011F482E082838091A009882368
:102FE00041F488E796E162E00E94881481E08093D2
:102FF000A00908958091A009882341F488E796E10B
:1030000062E00E94881481E08093A00908958F9265
:103010009F92AF92BF92CF92DF92EF92FF920F9367
:103020001F93CF93DF938C017A0176956795680F94
:10303000791FE8E3F9E080E090E047E2842E912CEC
:10304000889DD001899DB00D989DB00D1124A95D7A
:10305000B64F12964C911297442329F1468157811D
:103060004115510501F1A080B180C280D380DA0101
:103070001296C085D185D695C795AC0FBD1FA017F8
:10308000B10728F0425050406417750798F408942F
:10309000C11CD11CCE14DF0430F00894A108B10883
:1030A0002A153B0538F40196B7968330910541F611
:1030B00080E001C081E0DF91CF911F910F91FF90DF
:1030C000EF90DF90CF90BF90AF909F908F9008953A
:1030D0009C0187E290E0289FD001299FB00D389F86
:1030E000B00D1124A95DB64F5196ED91FC91529708
:1030F00055968D919C915697E80FF91F808191818B
:103100004EEE8F3F940731F4828193814EEE8F3FD4
:10311000940779F087E290E0289FF001299FF00D55
:10312000389FF00D1124E95DF64F89E082832FEF7F
:103130003FEFC9010895893051F48091A009882397
:1031400041F488E796E162E00E94881408950E94A5
:10315000DA1708958FE199E008954F935F93809176
:1031600025099091260929E08732920771F029E01C
:103170008E34920739F029E08537920731F422E046
:1031800030E005C021E030E002C020E030E05F9197
:103190004F91C9010895AF92BF92DF92EF92FF92D3
:1031A0000F931F93DF93CF930F92CDB7DEB7F82E17
:1031B000E62E0E942537AA24BB2407E210E062E035
:1031C000D62EA09EF001A19EF00DB09EF00D112410
:1031D000E95DF64F9281963059F4958D9F1541F433
:1031E000968D9E1529F4D28289830E94FA178981CF
:1031F0000894A11CB11C93E0A916B10411F70E9418
:1032000028370F90CF91DF911F910F91FF90EF9092
:10321000DF90BF90AF9008951F920F920FB60F925C
:103220001124349A37980F900FBE0F901F90189565
:1032300017B88EE086B9089517B897B18F71892BAA
:1032400087B93398349A86B1806C86B93699FECFA7
:1032500084B190E025B1379830E023703070322F80
:103260002227282B392BC90108951E9816981D9ADC
:10327000159A81E090E00E941C191D9815980895F8
:103280001D9815981E9A169A81E090E00E941C19CC
:103290001E9816980895A59AAD9A85E090E00E9430
:1032A0001C19A598AD980895A59AAD9A86E090E06E
:1032B0000E941C19A598AD980895A49AAC9A83E031
:1032C00090E00E941C19A498AC980895A49AAC9A16
:1032D00084E090E00E941C19A498AC980895DF93B4
:1032E000CF930F92CDB7DEB70E94253710928C0393
:1032F00089830E94E4030E9402040E94F4030E9456
:10330000D8030E94F8030E94E80389810E942837AD
:103310000F90CF91DF910895DF93CF930F92CDB7A8
:10332000DEB70E94253789830E94DA0390918C03CF
:10333000916090938C0389810E9428370F90CF91E0
:10334000DF910895DF93CF930F92CDB7DEB70E9440
:10335000253789830E94D80390918C039E7F909398
:103360008C0389810E9428370F90CF91DF910895B7
:10337000DF93CF930F92CDB7DEB70E9425379091A0
:103380008C0390FF04C089830E94A21903C0898323
:103390000E948C1989810E9428370F90CF91DF916C
:1033A0000895DF93CF930F92CDB7DEB70E942537F4
:1033B00089830E94EA0390918C03926090938C031E
:1033C00089810E9428370F90CF91DF910895DF9374
:1033D000CF930F92CDB7DEB70E94253789830E9425
:1033E000E80390918C039D7F90938C0389810E94C8
:1033F00028370F90CF91DF910895DF93CF930F92ED
:10340000CDB7DEB70E94253790918C0391FF04C0A1
:1034100089830E94E71903C089830E94D119898199
:103420000E9428370F90CF91DF910895DF93CF93BB
:103430000F92CDB7DEB70E94253789830E94FA0329
:1034400090918C03946090938C0389810E9428371B
:103450000F90CF91DF910895DF93CF930F92CDB767
:10346000DEB70E94253789830E94F80390918C0370
:103470009B7F90938C0389810E9428370F90CF9176
:10348000DF910895DF93CF930F92CDB7DEB70E94FF
:10349000253790918C0392FF04C089830E942C1AD7
:1034A00003C089830E94161A89810E9428370F90D1
:1034B000CF91DF910895DF93CF930F92CDB7DEB711
:1034C0000E94253789830E94140589810E9428372C
:1034D0000F90CF91DF910895DF93CF930F92CDB7E7
:1034E000DEB70E94253789830E9414050E940805D3
:1034F00089810E9428370F90CF91DF910895DF9343
:10350000CF930F92CDB7DEB70E94253789830E94F3
:1035100014050E940A0589810E9428370F90CF91D7
:10352000DF9108950E94BF1A08950E94C91A089554
:103530000E946B1C08950E94D31A08950E94EA1AF3
:1035400008950E94011B08950E94221B08950E9465
:10355000AF1B08950E94DD1B08950E94431B089530
:103560000E94601B08950E947D1B08950E94961B77
:1035700008950E940B1C08950E94351C0895FC01BB
:103580009B01CA01E199FECFBF01A9010E9499499F
:103590000895FC019B01CA01E199FECFBF01A90179
:1035A0000E94B74908950F931F93CF93DF93EC01C7
:1035B0000E942537182FE199FECFCE010E94A9491C
:1035C000082F812F0E942837802FDF91CF911F91E4
:1035D0000F9108950F931F93CF93DF93EC010E94F7
:1035E0002537182FE199FECFCE010E94A949082F57
:1035F000812F0E942837802FDF91CF911F910F914B
:103600000895EF92FF920F931F93DF93CF930F9242
:10361000CDB7DEB77C010E942537082FE199FECF98
:10362000C7010E94B149182F802F99830E94283723
:10363000812F99810F90CF91DF911F910F91FF9072
:10364000EF900895EF92FF920F931F93DF93CF9324
:103650000F92CDB7DEB77C010E942537082FE19984
:10366000FECFC7010E94B149182F802F99830E9475
:103670002837812F99810F90CF91DF911F910F9162
:10368000FF90EF900895EF92FF921F93DF93CF93F7
:103690000F92CDB7DEB77C0169830E942537182FC2
:1036A0006981E199FECFC7010E94C149812F0E9423
:1036B00028370F90CF91DF911F91FF90EF900895E1
:1036C000EF92FF921F93DF93CF930F92CDB7DEB7A8
:1036D0007C0169830E942537182F6981E199FECF0B
:1036E000C7010E94C149812F0E9428370F90CF91B6
:1036F000DF911F91FF90EF900895FF920F931F931A
:10370000CF93DF93EC018B010E942537F82EE199CE
:10371000FECFCE01B8010E94CE498F2D0E942837DE
:10372000DF91CF911F910F91FF900895FF920F931A
:103730001F93CF93DF93EC018B010E942537F82E66
:10374000E199FECFCE01B8010E94CE498F2D0E9493
:103750002837DF91CF911F910F91FF900895FF922D
:103760000F931F93CF93DF938C010E942537F82E80
:10377000E199FECFC8010E94B149EC01E199FECF69
:10378000C80102960E94B1498C018F2D0E942837F2
:10379000980140E050E0A90133272227CE01A0E0A4
:1037A000B0E0280F391F4A1F5B1FB901CA01DF9122
:1037B000CF911F910F91FF900895FF920F931F9348
:1037C000CF93DF938C010E942537F82EE199FECF2D
:1037D000C8010E94B149EC01E199FECFC8010296EF
:1037E0000E94B1498C018F2D0E942837980140E03A
:1037F00050E0A90133272227CE01A0E0B0E0280F36
:10380000391F4A1F5B1FB901CA01DF91CF911F9178
:103810000F91FF900895BF92CF92DF92EF92FF92A7
:103820000F931F93CF93DF93EC017A018B010E94DA
:103830002537B82E6801B701E199FECFCE010E946D
:10384000CE49CE010296E199FECFB6010E94CE4943
:103850008B2D0E942837DF91CF911F910F91FF9000
:10386000EF90DF90CF90BF900895CF92DF92FF92BC
:103870000F931F93DF93CF9300D000D0CDB7DEB767
:103880006C0149835A836B837C830E942537F82E11
:1038900049815A816B817C81062F172F642F752FE8
:1038A000E199FECFC6010E94CE49C6010296E19978
:1038B000FECFB8010E94CE498F2D0E9428370F906D
:1038C0000F900F900F90CF91DF911F910F91FF906C
:1038D000DF90CF900895CF92DF92EF92FF920F93F7
:1038E0001F93CF93DF93EC017B01C42E0E942537F9
:1038F000D82E00E010E008C0C8018C0F9D1F6C2D71
:103900000E94431B0F5F1F4F0E151F05ACF38D2D3B
:103910000E942837DF91CF911F910F91FF90EF9078
:10392000DF90CF90089580E090E00E94932321E003
:1039300030E08130910511F020E030E0C9010895B8
:103940001092A9091092B30908958091A9098823BA
:1039500039F08091B309882331F461E070E005C04B
:1039600060E070E002C062E070E0FB01EE0FFF1F5C
:10397000CB0123E0880F991F2A95E1F7E80FF91F83
:10398000E755F64F81E080836183138212822FEF27
:103990003FEFA9012683378340875187CB010895E4
:1039A0009C01FC01EE0FFF1F43E0220F331F4A95DD
:1039B000E1F7E20FF31FE755F64F108208951092DA
:1039C000A9091092B3090895CF92DF92EF92FF9266
:1039D0000F931F93DF93CF9300D0CDB7DEB76C0169
:1039E0008B01BE016F5F7F4F0E94D9277C01C80108
:1039F0000E9467238C010097F1F18FEFE8168FEF9B
:103A0000F806C9F189819A810097C9F4023011053D
:103A100091F5C6010E945023B7010E94AA27D82E13
:103A20000E94A51CE82E092F8D2D90E06E2D702F81
:103A300042E050E00E9497284E2D502F0FC0823058
:103A40009105C9F40E94A51CD82EC92EC7016D2D61
:103A50007C2DA8010E9497284D2D5C2D9A01220FE4
:103A6000331F83E0440F551F8A95E1F7240F351F5C
:103A70002755364F02C020E030E0C9010F900F906B
:103A8000CF91DF911F910F91FF90EF90DF90CF903A
:103A90000895FC01818190E00E94D01C0895EF926E
:103AA000FF920F931F93CF93DF93FC0121153105F4
:103AB00079F484819581A0E0B0E084179507A6078A
:103AC000B7070CF443C0468357836087718741C0B2
:103AD00086819781A085B185EC012130310541F4C3
:103AE000840F951FA61FB71F86839783A087B18772
:103AF000E680F7800085118517FD1FC084819581C0
:103B0000A0E0B0E08E159F05A007B107B4F0223009
:103B1000310541F4480F591F6A1F7B1F46835783A5
:103B200060877187268137814085518557FD05C0A3
:103B300082179307A407B50764F4CE01AA2797FD5F
:103B4000A095BA2F86839783A087B1872FEF3FEF89
:103B500002C020E030E0C901DF91CF911F910F91A9
:103B6000FF90EF900895DF93CF9300D0CDB7DEB7ED
:103B7000BE016F5F7F4F0E94D9279C018FEF2F3FBF
:103B8000380731F089819A81009711F42FEF3FEFC8
:103B9000C9010F900F90CF91DF910895EF92FF929E
:103BA0000F931F93DF93CF9300D0CDB7DEB78C0177
:103BB000BE016F5F7F4F0E94D9277C018FEFE8160F
:103BC0008FEFF80669F089819A81009749F4C8015E
:103BD0000E945023B7010E94862720E030E002C0F7
:103BE0002FEF3FEFC9010F900F90CF91DF911F9101
:103BF0000F91FF90EF9008950E94B31D2FEF8F3F1C
:103C0000920729F00E94B72420E030E002C02FEF95
:103C10003FEFC90108950E94262B08950E945C2A57
:103C20000895CF93DF93C0E0D0E0CE010E949323AC
:103C3000181619061CF4CE010E943A242196C136AA
:103C4000D10599F7DF91CF9108952F923F924F922E
:103C50005F926F927F928F929F92AF92BF92CF921C
:103C6000DF92EF92FF920F931F93DF93CF93CDB725
:103C7000DEB72C970FB6F894DEBF0FBECDBF9C8782
:103C80008B872B011A01FC016681778180859185E4
:103C90009101442737FD4095542F29833A834B8364
:103CA0005C8359016A01A60EB71EC81ED91E248165
:103CB000358140E050E02A153B054C055D050CF4CC
:103CC00091C0612C58E0752E812C912CA401930198
:103CD0000E9420496F83788789879A877901C60176
:103CE000B5016150704080409040A40193010E9452
:103CF00020493E832D83E216F306F1F48F819885E7
:103D000060E071E00E94EB488B01C82EEB85FC85DA
:103D100082816E2D0E941229282F30E021503040E0
:103D200043E0220F331F4A95E1F7C901800F911F2D
:103D30006C2DA201910151C08F81988500E011E0A6
:103D4000B8010E94EB485B016C01EB85FC85828128
:103D50006E2D0E9412297801EC18FD0890E0019761
:103D600033E0880F991F3A95E1F78A0D9B1D6C2D62
:103D7000A20197010E940331EB85FC856681778162
:103D800080859185615070408040904029813A81C2
:103D90004B815C81620F731F841F951FA4019301E7
:103DA0000E942049CB01B8010E94EB488B01EB85B2
:103DB000FC8582816D810E94122990E0019723E0A9
:103DC000880F991F2A95E1F7A2014E0D5F1D910101
:103DD0002E193F09800F911F60E00E94033120E0FF
:103DE00030E002C02FEF3FEFC9012C960FB6F894D8
:103DF000DEBF0FBECDBFCF91DF911F910F91FF901E
:103E0000EF90DF90CF90BF90AF909F908F907F907A
:103E10006F905F904F903F902F9008952F923F9218
:103E20004F925F926F927F928F929F92AF92BF92CA
:103E3000CF92DF92EF92FF920F931F93DF93CF9376
:103E4000CDB7DEB72C970FB6F894DEBF0FBECDBF4F
:103E50009C878B8778876F835E834D839A01442785
:103E600037FD4095542F29833A834B835C83FC01B3
:103E700086819781A085B185820F931FA41FB51FEE
:103E8000648175819B0140E050E0281739074A079B
:103E90005B07D4F5372F387F20E077706115710507
:103EA00011F02050384F40E050E0281739074A07FA
:103EB0005B073CF4AB85BC8512968C9190E00E9428
:103EC0002A29EB85FC8546815781608571850981AA
:103ED0001A812B813C81040F151F261F371F8481F7
:103EE0009581A0E0B0E080179107A207B30764F4C2
:103EF0002D813E81420F531F55834483828190E080
:103F00006DE170E00E94DB22AB85BC8514968D913B
:103F10009C911597BAEF81309B0708F0A6C0EB85FE
:103F2000FC85E680F78000851185612CF8E07F2E06
:103F3000812C912CC801B701A40193010E94204952
:103F40001B012C015901C801B7016150704080402C
:103F5000904029813A814B815C81620F731F841FDD
:103F6000951FA40193010E9420493A872987A21630
:103F7000B30601F5C10160E071E00E94EB488B01DE
:103F8000E82EAB85BC8512968C916A2D0E94122971
:103F9000282F30E021503040E3E0220F331FEA9514
:103FA000E1F7C901800F911F6E2D4F8158852D813A
:103FB0003E8156C0C10100E011E0B8010E94EB480B
:103FC0002B016C01EB85FC8582816A2D0E941229F0
:103FD0007801EC18FD0890E0019773E0880F991FB5
:103FE0007A95E1F7840D951D6C2D4F8158859701C9
:103FF0000E940631AB85BC8516966D917D918D91A1
:104000009C911997615070408040904029813A817D
:104010004B815C81620F731F841F951FA401930164
:104020000E942049CB01B8010E94EB488B01AB856F
:10403000BC8512968C9169850E94122990E00197A7
:1040400063E0880F991F6A95E1F74F8158854E0DFF
:104050005F1D2D813E812E193F09800F911F60E069
:104060000E94063120E030E002C022E030E0C901C9
:104070002C960FB6F894DEBF0FBECDBFCF91DF9167
:104080001F910F91FF90EF90DF90CF90BF90AF9076
:104090009F908F907F906F905F904F903F902F9068
:1040A0000895AF92BF92DF92EF92FF920F931F930A
:1040B000DF93CF9300D000D000D0CDB7DEB77C0126
:1040C0008B01CB010E9450239C01C8012D833E83AC
:1040D0000E94D4365C01C701BE016F5F7F4F0E9412
:1040E000D927F82EE92E6FE170E00E9489226F2D0A
:1040F0000E949629C801BE016D5F7F4F0E94D9279B
:10410000D82E8F2D9E2D6FE170E04D2D0E94C5227F
:104110000A0D1B1D2D81021B8F2D9E2D60E070E06E
:10412000402F50E03E810E941A238F2D9E2D602F3C
:1041300070E040E00E94C5228D2D6F2D0E946829FD
:1041400080E090E026960FB6F894DEBF0FBECDBF9C
:10415000CF91DF911F910F91FF90EF90DF90BF9073
:10416000AF9008958F929F92AF92BF92DF92EF929D
:10417000FF920F931F93DF93CF9300D000D000D016
:10418000CDB7DEB77C018B01CB010E9450239C018F
:10419000C8012D833E830E94D4364C01C701BE0165
:1041A0006F5F7F4F0E94D9275C01C801BE016D5F20
:1041B0007F4F0E94D927D82E0E94D12AF82EE92EAF
:1041C000C5016F2D7E2D0E94B325080D191D2D816F
:1041D000021B8F2D9E2D60E070E0402F50E03E814D
:1041E0000E941A238F2D9E2D602F70E040E00E94C8
:1041F000C5228F2D9E2D6FE170E04D2D0E94C522AE
:104200008D2D6F2D0E9468290EE010E0C501B801C8
:104210000E948922882E882379F00E94F529D82EC1
:104220008F2D9E2DB8014D2D0E94C522882D90E026
:104230006D2D70E00E94D1250F5F1F4F06311105D3
:1042400029F780E090E026960FB6F894DEBF0FBE07
:10425000CDBFCF91DF911F910F91FF90EF90DF9035
:10426000BF90AF909F908F900895DF93CF9300D031
:10427000CDB7DEB7BE016F5F7F4F0E94D9270E9486
:1042800065270F900F90CF91DF9108955F926F9205
:104290007F928F929F92AF92BF92CF92DF92EF92D6
:1042A000FF920F931F93DF93CF93CDB7DEB72D9778
:1042B0000FB6F894DEBF0FBECDBF3C017B01089462
:1042C000E108F108E80EF91EF70110826701089471
:1042D000C108D1080E9460275C014E010894811C2E
:1042E000911CAFE25A2EC401B5010E94A626C4015A
:1042F0000E94D436482F082F192FC601801B910B1E
:10430000B4010E944436F601508200951095C00E0B
:10431000D11EC5016FE170E00E948922A82EBB2446
:10432000A114B10401F7F6015082EC18FD08D60182
:10433000F30180E090E003C02D91219301968E154A
:104340009F05D4F3319710822D960FB6F894DEBFF7
:104350000FBECDBFCF91DF911F910F91FF90EF90D6
:10436000DF90CF90BF90AF909F908F907F906F9095
:104370005F9008950F931F93CF93DF938C01EB0110
:10438000CB0160E070E04CE050E098010E940D230A
:10439000CE016CE070E00E948922F8018487CE0192
:1043A0006DE170E00E948922F8018587CE016EE1FF
:1043B00070E00E948922F8018687DF91CF911F91DA
:1043C0000F910895CF92DF92EF92FF920F931F9378
:1043D000DF93CF930F92CDB7DEB78C016B017A01DB
:1043E000FB01108221E0822FB70129830E94FD2565
:1043F00029818130910551F4F6018081F801E80F9F
:10440000F11D2083F60180818F5F80832F5F21362D
:1044100051F70F90CF91DF911F910F91FF90EF9087
:10442000DF90CF9008950E949B2408955F926F9231
:104430007F928F929F92AF92BF92CF92DF92EF9234
:10444000FF920F931F93DF93CF93CDB7DEB72D97D6
:104450000FB6F894DEBF0FBECDBF3C016B010894D0
:10446000C108D108C80ED91EF60110827601089441
:10447000E108F108A42EB52E4E010894811C911C70
:10448000BFE25B2EC401B5010E94A626C4010E94B2
:10449000D436482F082F192FC701801B910BB40168
:1044A0000E944436F701508200951095E00EF11EEF
:1044B000C5016FE170E00E948922A82EBB24A114DF
:1044C000B10401F7F7015082CE18DF08D701F301DC
:1044D00080E090E003C02D91219301968C159D05FD
:1044E000D4F3319710822D960FB6F894DEBF0FBE2D
:1044F000CDBFCF91DF911F910F91FF90EF90DF9093
:10450000CF90BF90AF909F908F907F906F905F9073
:10451000089525E0880F991F2A95E1F7860F971FC8
:104520000E949B1A089535E0880F991F3A95E1F78C
:10453000860F971F0E949E1A089545E0880F991FC5
:104540004A95E1F7860F971F0E94A11A089555E03A
:10455000880F991F5A95E1F7860F971F0E94A41A9A
:104560000895E5E0880F991FEA95E1F7860F971FF8
:104570000E94A71A0895F5E0880F991FFA95E1F7B0
:10458000860F971F0E94AA1A0895A5E0880F991F09
:10459000AA95E1F7860F971F642F0E94AD1A089520
:1045A000B5E0880F991FBA95E1F7860F971F642F22
:1045B0000E94B01A08959B01BA0145E0880F991F27
:1045C0004A95E1F7820F931F0E94B31A08959B0149
:1045D000BA0155E0880F991F5A95E1F7820F931F92
:1045E0000E94B61A0895FB01BA01A901A5E0880F3F
:1045F000991FAA95E1F78E0F9F1F0E94B91A08957F
:10460000FB01BA01A901B5E0880F991FBA95E1F73E
:104610008E0F9F1F0E94B91A0895FB01BA0145E051
:10462000880F991F4A95E1F78E0F9F1FA9010E94DD
:10463000921A0895FB01BA0155E0880F991F5A9507
:10464000E1F78E0F9F1FA9010E94951A0895FB01A3
:10465000BA01A5E0880F991FAA95E1F78E0F9F1F59
:10466000422F0E94981A0895FC0120812F3209F4EC
:104670000196FC01A62FB72F01C02D93CF012191E8
:10468000322F31563A31C8F3305E3A31B0F32F351C
:10469000A1F32E3291F33F5E3A3078F31C920895E5
:1046A000CF93DF93EC010E94D436FC013197EC0FDD
:1046B000FD1F01C0319780818F3221F0EC17FD077B
:1046C000C9F701C03196CF01DF91CF910895CF9303
:1046D000DF93EC010E94D4368130910561F488812A
:1046E000823791F0873799F08136A1F08437A9F4A9
:1046F00024E030E014C0CE010E94D436823091050F
:1047000061F425E030E00BC021E030E008C022E099
:1047100030E005C023E030E002C020E030E0C90115
:10472000DF91CF9108951F93CF93DF93EC016DE05C
:1047300070E00E948922182FCE016CE070E00E9488
:104740008922112319F0282F30E002C020E030E048
:10475000C901DF91CF911F910895DF92EF92FF92EF
:104760000F931F93CF93DF93EC017B01142FD22E75
:10477000CB010E94D436482F8C3008F44F5F0130B3
:1047800061F4CE0160E070E050E097010E941A23CE
:10479000CE016CE070E041E029C0023061F4CE014E
:1047A00060E070E050E097010E941A23CE016CE0B7
:1047B00070E042E01BC0033061F4CE0160E070E0C5
:1047C00050E097010E941A23CE016CE070E043E0B4
:1047D0000DC0043071F5CE0160E070E050E097014B
:1047E0000E941A23CE016CE070E044E00E94C522D2
:1047F000CE016DE070E041E00E94C522CE016EE086
:1048000070E04EE050E020E00E942723CE016CE1F2
:1048100070E0412F0E94C522CE016DE170E040E0C2
:1048200050E00E94DB22CE016FE170E04D2D0E942E
:10483000C522209711F4DD20A9F00EE010E08D2DA7
:1048400090E0B8010E948922882339F48D2D90E0F0
:10485000B8014C2F0E94C52205C00F5F1F4F0831C1
:10486000110569F7DF91CF911F910F91FF90EF90A4
:10487000DF900895EF92FF920F931F93DF93CF93F2
:10488000CDB7DEB72E970FB6F894DEBF0FBECDBF03
:104890008C011D8660E070E04CE050E09E012F5FCF
:1048A0003F4F0E940D23C8016CE070E00E948922F6
:1048B000282FC8016DE070E02E870E9489222E8586
:1048C0008823F9F02130A1F59EE0E92EF12CC801F2
:1048D000B7010E9489220894E11CF11C88E1E816C6
:1048E000F104A9F70EC08EE0E82EF12CC801B70143
:1048F0000E9489220894E11CF11C86E1E816F1046B
:10490000A9F7C8016CE170E00E948922C8016FE13B
:1049100070E00E9489222E960FB6F894DEBF0FBE7B
:10492000CDBFCF91DF911F910F91FF90EF90089530
:104930002230C9F2E6CFCF93DF93C0E0D0E0CE01C2
:1049400060E070E040E250E020E00E9427232196E2
:10495000C132D105A1F70E94ED290E94C92ADF9139
:10496000CF9108950E94ED290E94C92A0895CF92FF
:10497000DF92FF920F931F93DF93CF930F92CDB7E8
:10498000DEB76C016CE070E00E948922082FC6013E
:104990006FE170E00E948922F82E0130A1F50EE04F
:1049A00010E0C601B8010E948922882319F090E026
:1049B0000E94B7240F5F1F4F0831110591F7C60100
:1049C0006DE070E040E00E94C522C114D10419F4EA
:1049D000FF2009F4B0C020E0022F10E0025F1F4F5B
:1049E0008F2D90E0B80129830E94892290E02981CF
:1049F0008C159D0521F48F2D90E0B80193C02F5F99
:104A00002A3051F798C0023009F053C0C6016DE05A
:104A100070E040E00E94C522C114D10411F4FF20CF
:104A200089F00EE010E08F2D90E0B8010E948922FD
:104A300090E08C159D0549F48F2D90E0B80140E081
:104A40000E94C5220EE010E006C00F5F1F4F083124
:104A5000110549F7F7CFC601B8010E9489228823C2
:104A600041F090E00E94562A0F5F1F4F063111055A
:104A700091F7FC2C8F2D90E068E170E00E94892274
:104A8000F82E882309F457C090E00E941C2B0EE0FA
:104A900010E08F2D90E0B8010E948922882351F305
:104AA00090E00E94562A0F5F1F4F0631110589F7CB
:104AB000E1CF0330E1F4C6016DE070E040E00E9418
:104AC000C522C114D10411F4FF20A9F10EE010E0B9
:104AD0008F2D90E0B8010E94892290E08C159D05F1
:104AE000F1F00F5F1F4F0831110591F724C004301A
:104AF00011F5C6016DE070E040E00E94C522C114CE
:104B0000D10411F4FF20B9F00EE010E08F2D90E0F9
:104B1000B8010E94892290E08C159D0539F48F2DF3
:104B200090E0B80140E00E94C52205C00F5F1F4F12
:104B30000831110559F7C6010E941C2B0F90CF9127
:104B4000DF911F910F91FF90DF90CF9008950F9309
:104B500080E090E069E471E040E020E001E00E9444
:104B6000AD230F910895EF92FF920F931F93CF9370
:104B7000DF938C017B01C0E0D0E0C801BE010E9440
:104B80008922482FC701BE010E94C5222196C0324A
:104B9000D10599F7DF91CF911F910F91FF90EF9081
:104BA0000895EF92FF920F931F93CF93DF938B01A2
:104BB0007C010894E108F10833E0EE0CFF1C3A9503
:104BC000E1F70150104023E0000F111F2A95E1F793
:104BD000C0E0D0E0BE01600F711FCE018E0D9F1DA1
:104BE0000E9409312196C830D105A1F7DF91CF91FC
:104BF0001F910F91FF90EF900895BF92CF92DF9297
:104C0000EF92FF920F931F93DF93CF93CDB7DEB751
:104C10002D970FB6F894DEBF0FBECDBF082F6B01E6
:104C200090E06DE070E00E948922882309F1802FD6
:104C300090E060E070E04CE050E07E010894E11C00
:104C4000F11C97010E940D231D86C7010E94D436D6
:104C5000B82E00E010E00AC0C701800F911FB60116
:104C60000E94A7360F5F1F4F009729F00B15A0F386
:104C700020E030E002C021E030E0C9012D960FB6FF
:104C8000F894DEBF0FBECDBFCF91DF911F910F9182
:104C9000FF90EF90DF90CF90BF900895BF92CF929A
:104CA000DF92EF92FF920F931F93CF93DF93C82E63
:104CB000092F7B010E94D4368D309105F4F4C70191
:104CC0000E9493230097C9F0E6016E01D02EE60101
:104CD00000E010E06E01B880C701B8010E9489228F
:104CE000B81659F42196F6018081882349F00F5FA8
:104CF0001F4F0C30110571F703C021E030E002C0F6
:104D000020E030E0C901DF91CF911F910F91FF901A
:104D1000EF90DF90CF90BF9008950F931F93CF93A4
:104D2000DF938C01CEE0D0E0C801BE010E94892251
:104D3000882331F02196C831D105B1F781E001C057
:104D400080E0DF91CF911F910F910895CF92DF9274
:104D5000EF92FF920F931F93CF93DF936B01E82E97
:104D6000E7017E01F92EE70100E010E07E01C601B7
:104D7000B8010E9489228993882331F07E010F5F58
:104D80001F4F0C30110591F7F7011082DF91CF9181
:104D90001F910F91FF90EF90DF90CF900895CF92E9
:104DA000DF92EF92FF920F931F93CF93DF937C01DB
:104DB0006B01CEE0D0E0C601BE010E948922082F1F
:104DC00010E0C701B8010E944E26009731F02196ED
:104DD000C831D10581F70FEF1FEFC801DF91CF91E7
:104DE0001F910F91FF90EF90DF90CF9008956FE1AA
:104DF00070E00E94892290E00895DF92EF92FF9286
:104E00000F931F93CF93DF938C017B01CEE0D0E013
:104E1000C701BE010E948922D82EC8016D2D70E005
:104E20000E944E26009759F48D2D90E00E94932306
:104E3000882329F0DD2019F0282F30E006C02196C4
:104E4000C831D10529F720E030E0C901DF91CF91C9
:104E50001F910F91FF90EF90DF900895BF92CF9236
:104E6000DF92EF92FF920F931F93CF93DF937C011A
:104E70006B01CEE0D0E0C601BE010E948922B82EAF
:104E8000082F10E0C701B8010E944E26009739F4A0
:104E9000C8010E949323882311F0BB2031F421968E
:104EA000C831D10541F700E010E0C801DF91CF9192
:104EB0001F910F91FF90EF90DF90CF90BF900895DA
:104EC00080918D0390918E03089590938E0380932B
:104ED0008D0308950F931F93CF93DF938C01CEE042
:104EE000D0E0C801BE010E948922882339F42196AE
:104EF000C831D105B1F720E030E002C021E030E058
:104F0000C901DF91CF911F910F9108950F931F93C6
:104F1000CF93DF93EC018B010E942E271816190600
:104F200084F0C8010E948D26813069F00E94D12A48
:104F3000182F90E0BE0140E0202F01E00E94AD2339
:104F400003C010E001C01FEF812FDF91CF911F91AF
:104F50000F9108950F931F93CF93DF93EC018B0173
:104F60000E942E271816190684F0C8010E948D266B
:104F7000813069F00E94D12A182F90E0BE0140E0F4
:104F8000202F02E00E94AD2303C010E001C01FEFFC
:104F9000812FDF91CF911F910F9108950E9493234C
:104FA00021E030E08130910511F020E030E0C901CE
:104FB0000895AF92BF92CF92DF92EF92FF920F933C
:104FC0001F93DF93CF93CDB7DEB72D970FB6F8942D
:104FD000DEBF0FBECDBF6C015B01FC0181917F0183
:104FE000F601918100918D0310918E038E3279F438
:104FF0009E3251F4C8010E94F7268C0182E0E82E0F
:10500000F12CEC0CFD1C34C09F3219F431C08F32EE
:1050100051F1982F91569A3118F081548A3138F510
:10502000C6016E010894C11CD11CB6010E94342334
:105030007C01009761F4C601B8010E94FD2600972B
:1050400079F1F50191838083C601B80132C0C601B0
:10505000B8010E94FD260097E9F1C601B8010E943F
:10506000CF268C0105C0760100E010E001C076017A
:105070006E010894C11CD11CC8010E94CE27009764
:1050800049F1C701B6010E9434237C01FC018081F3
:105090008823A1F4C601B8010E94FD26009721F4DF
:1050A000F5011182108218C0F50191838083C60139
:1050B000B8010E94CF26082F192F0EC0C601B801D3
:1050C0000E94FD26009731F0C601B8010E94CF264C
:1050D0008C01D2CF0FEF1FEFC8012D960FB6F894B9
:1050E000DEBF0FBECDBFCF91DF911F910F91FF901B
:1050F000EF90DF90CF90BF90AF9008950F931F93E4
:10510000CF93DF938C01CEE0D0E0C801BE010E94B6
:105110008922882339F090E00E94562A2196C631D0
:10512000D10599F7DF91CF911F910F910895EF92DB
:10513000FF920F931F93CF93DF93F82EE92E8B01ED
:10514000EA01CB01FB01EE0FFF1F23E0880F991F3F
:105150002A95E1F7E80FF91FE755F64FF282CB01E8
:10516000FB01EE0FFF1FA3E0880F991FAA95E1F73F
:10517000E80FF91FE755F64F43838F2D9E2D6DE104
:1051800070E00E949D229801F801EE0FFF1F63E07E
:10519000220F331F6A95E1F7E20FF31FE755F64F31
:1051A00095838483C130D10529F1C230D10511F135
:1051B000C330D105A1F49801F801EE0FFF1F43E0C1
:1051C000220F331F4A95E1F7E20FF31FE755F64F21
:1051D000A0E0B0E086839783A087B1871CC0C4306D
:1051E000D10529F48F2D9E2D0E947E2803C0C53045
:1051F000D10589F4C801F801EE0FFF1F23E0880FE5
:10520000991F2A95E1F7E80FF91FE755F64F168227
:10521000178210861186DF91CF911F910F91FF9019
:10522000EF9008950F931F93062F162F06C090E05E
:1052300068E170E00E94892218501830C0F70770AA
:10524000602F70E0625F7F4F90E00E9489221F9183
:105250000F910895EF92FF920F931F93CF93DF93D7
:10526000082FCEE0D0E0802F90E0BE010E9489227E
:10527000882369F02196C631D105A9F7802F90E0E7
:1052800068E170E00E948922882351F707C00E94DC
:10529000F529482F802F90E0BE0111C00E94D12A2D
:1052A000182F802F90E068E170E0412F0E94C52206
:1052B0000E94F529482F812F90E06EE070E00E9457
:1052C000C522DF91CF911F910F91FF90EF9008952C
:1052D000CF92DF92EF92FF921F93DF93CF930F92C3
:1052E000CDB7DEB7182F462F5EE0C52ED12C812F0B
:1052F00090E0B60149830E9489224981882331F4D4
:10530000812F90E0B6010E94C52207C00894C11CFD
:10531000D11C28E1C216D10451F70F90CF91DF9133
:105320001F91FF90EF90DF90CF900895EF92FF9242
:105330000F931F93CF93DF93182F062FCEE0D0E06B
:10534000812F90E0BE010E948922801739F4812FBD
:1053500090E0BE0140E00E94C52204C02196C83101
:10536000D10571F7DF91CF911F910F91FF90EF90D1
:1053700008959B0168E070E00E94EB48FB01E15753
:10538000FC4F2115310559F021E030E002C0220F19
:10539000331F8A95E2F78081822B8083089521E074
:1053A00030E002C0220F331F8A95E2F720958081FA
:1053B0002823208308958CE69CE060E270E04FE8AB
:1053C00053E00E94951A08958CE69CE060E270E03C
:1053D0004FE853E00E94921A0895EFE8F3E011922B
:1053E00083E0EF3AF807D9F70895EF92FF92CF9351
:1053F000DF9380E090E0FC0123E0F595E7952A95A6
:10540000E1F7E157FC4F2081332727FD3095AC01B0
:105410004770507002C0359527954A95E2F7EC0128
:10542000219620FD05C061E070E00E94B92907C007
:10543000CE0121E0C030D207F1F6CFEFDFEFCE0191
:10544000DF91CF91FF90EF9008950F931F93CF932B
:10545000DF93C0E0D0E02196CE016DE070E00E94C5
:105460008922082FCE016CE070E00E948922013071
:10547000A9F4823099F40EE010E0CE01B8010E9448
:105480008922882331F090E0019761E070E00E946A
:10549000B9290F5F1F4F0631110579F7C036D105C5
:1054A000D1F6DF91CF911F910F910895019760E0A0
:1054B00070E00E94B929089520E030E080E090E09B
:1054C000F90143E0F595E7954A95E1F7E157FC4F7F
:1054D0004081552747FD5095B9016770707002C033
:1054E000559547956A95E2F740FD01962F5F3F4F2E
:1054F00041E02030340721F7281B390BC9010895FA
:10550000089580E69CE06CE070E04DEB59E00E946D
:10551000921A089580E69CE06CE070E04DEB59E053
:105520000E94951A0895FC01CB0168E070E00E948A
:10553000EB48E60FF71F2081332727FD309502C087
:10554000359527958A95E2F721703070C901089545
:10555000FC01CB019A0168E070E00E94EB48E60F85
:10556000F71F90812115310549F021E030E002C09C
:10557000220F331F8A95E2F7292B09C021E030E082
:1055800002C0220F331F8A95E2F72095292320833A
:105590000895EDEBF9E0119289E0E93CF807D9F7BD
:1055A00008950F931F93CF93DF93C0E0D0E08DEB6E
:1055B00099E0BE010E94932A8E010F5F1F4F009752
:1055C00041F48DEB99E0BE0141E050E00E94A82A31
:1055D00006C0E8010036110551F70FEF1FEFC801B3
:1055E000DF91CF911F910F9108950F931F93CF9348
:1055F000DF93C0E0D0E001C0E8018E010F5F1F4FD4
:10560000C8016DE070E00E948922882331F48DEB9F
:1056100099E0BE0140E050E005C08DEB99E0BE018D
:1056200041E050E00E94A82A0036110529F7DF91D9
:10563000CF911F910F910895BC01615070408DEB87
:1056400099E040E050E00E94A82A0895EF92FF926E
:105650000F931F93CF93DF9300E010E0C0E0D0E002
:105660008DEB99E0BE010E94932A8130910511F4DF
:105670000F5F1F4F2196C036D10591F7C01BD10B8C
:10568000CE01DF91CF911F910F91FF90EF90089580
:105690008FB7F8949598DB988FBF0895DB9A08959B
:1056A0002FB7F89492B3977D92BB80E0959A829938
:1056B000806892BB959A8299806492BB959A8299F0
:1056C000806292BB959A8299806192BB959A8299E9
:1056D000886092BB959A8299846092BB959A8299D0
:1056E000826092BB959A829981602FBF0895282F7E
:1056F0003FB7F89492B3977D92BB80E027FD939AD1
:10570000959A92BB26FD939A959A92BB25FD939A02
:10571000959A92BB24FD939A959A92BB23FD939AF6
:10572000959A92BB22FD939A959A92BB21FD939AEA
:10573000959A92BB20FD939A959A3FBF0895AF9298
:10574000BF92CF92DF92EF92FF920F931F93DF935E
:10575000CF9300D000D0CDB7DEB7B42EA52E7901FF
:10576000813011F484E801C087E889831A827B8341
:105770006C830E94482B8E010F5F1F4F85E0C82E5F
:10578000D12CCC0EDD1EF80181918F010E94772B68
:105790000C151D05C1F7C501C92EDA2C00E010E07B
:1057A00007C0F60181916F010E94772B0F5F1F4F99
:1057B0000E151F05B0F30E944E2B81E00F900F9045
:1057C0000F900F90CF91DF911F910F91FF90EF906D
:1057D000DF90CF90BF90AF900895EF92FF920F931C
:1057E0001F93DF93CF9300D000D0CDB7DEB78130C9
:1057F00011F483E801C086E88983CB01880F892FE3
:10580000881F990B91958A83660F6B831C820E9477
:10581000482B8E010F5F1F4F95E0E92EF12CEC0E07
:10582000FD1EF80181918F010E94772B0E151F0537
:10583000C1F70E944E2B81E00F900F900F900F90B8
:10584000CF91DF911F910F91FF90EF9008950F93EB
:105850001F930E942537082F0E94482B87ED0E9436
:10586000772B0E94502B182F0E944E2B802F0E94C6
:105870002837812F8095881F8827881F1F910F91B7
:105880000895EF92FF920F931F93DF93CF9300D071
:1058900000D0CDB7DEB7E82E8B010E94272C8823DD
:1058A000E1F76091B4037091B5038091B6030E9453
:1058B000ED2B0E94272C8823E1F78E2D813011F4E7
:1058C00083E501C085E58983C801880F892F881F7A
:1058D000990B91958A83000F0B831C820E94482BA1
:1058E0008E010F5F1F4F35E0E32EF12CEC0EFD1EF5
:1058F000F80181918F010E94772B0E151F05C1F7CA
:105900000E944E2B81E00F900F900F900F90CF913F
:10591000DF911F910F91FF90EF9008952F923F928A
:105920004F925F926F927F928F929F92AF92BF92AF
:10593000CF92DF92EF92FF920F931F93DF93CF935B
:10594000CDB7DEB728970FB6F894DEBF0FBECDBF38
:105950006B018D839E836091AF037091B003809142
:10596000B1039091B20328E031E040E050E00E94A2
:10597000FE4889014B010E94272C8823E1F7662409
:10598000772468E0462E61E0562E1E010894211C03
:10599000311CCE01059698878F838DC0C4018C0D74
:1059A0009D1DE1E089309E0720F07201E818F9089A
:1059B00001C076018091B4039091B50308171907CF
:1059C00009F44DC08091B303882371F00E94272C05
:1059D0008823E1F76091B4037091B5038091B60319
:1059E0000E94ED2B1092B3038091B603813011F425
:1059F00082E001C081E08093B6031093B503009369
:105A0000B403F8E0EF16F1E0FF0648F40E94272CFB
:105A10008823E1F78091B603B8010E94412C0E94CF
:105A2000272C8823E1F721E82983C801880F892FD3
:105A3000881F990B91958A83802F880F8B831C82F6
:105A40000E94482B5101F50181915F010E94772B43
:105A50008F819885A816B906B1F70E944E2B4D810B
:105A60005E81460D571D8091B603B40197010E94D7
:105A70009F2B91E09093B3036E0C7F1C970140E045
:105A800050E08091AF039091B003A091B103B09129
:105A9000B203820F931FA41FB51F8093AF0390938F
:105AA000B003A093B103B093B203CE18DF080F5F29
:105AB0001F4F88249924C114D10409F06FCF80E0CE
:105AC00090E028960FB6F894DEBF0FBECDBFCF9101
:105AD000DF911F910F91FF90EF90DF90CF90BF90DB
